{
  "contracts/ownerToCompany.sol": {
    "OwnerToCompany": {
      "abi": [
        {
          "inputs": [
            {
              "internalType": "string",
              "name": "_name",
              "type": "string"
            }
          ],
          "stateMutability": "nonpayable",
          "type": "constructor"
        },
        {
          "inputs": [
            {
              "internalType": "string",
              "name": "type_of_sale",
              "type": "string"
            },
            {
              "components": [
                {
                  "internalType": "uint8",
                  "name": "day",
                  "type": "uint8"
                },
                {
                  "internalType": "uint8",
                  "name": "month",
                  "type": "uint8"
                },
                {
                  "internalType": "uint16",
                  "name": "year",
                  "type": "uint16"
                },
                {
                  "internalType": "uint8",
                  "name": "hour",
                  "type": "uint8"
                },
                {
                  "internalType": "uint8",
                  "name": "minute",
                  "type": "uint8"
                }
              ],
              "internalType": "struct OwnerToCompany.Date",
              "name": "date",
              "type": "tuple"
            },
            {
              "internalType": "address payable",
              "name": "owner_info",
              "type": "address"
            },
            {
              "components": [
                {
                  "internalType": "string",
                  "name": "uid",
                  "type": "string"
                },
                {
                  "internalType": "string",
                  "name": "name",
                  "type": "string"
                },
                {
                  "components": [
                    {
                      "internalType": "string",
                      "name": "model",
                      "type": "string"
                    },
                    {
                      "internalType": "string",
                      "name": "color",
                      "type": "string"
                    },
                    {
                      "components": [
                        {
                          "internalType": "uint8",
                          "name": "day",
                          "type": "uint8"
                        },
                        {
                          "internalType": "uint8",
                          "name": "month",
                          "type": "uint8"
                        },
                        {
                          "internalType": "uint16",
                          "name": "year",
                          "type": "uint16"
                        },
                        {
                          "internalType": "uint8",
                          "name": "hour",
                          "type": "uint8"
                        },
                        {
                          "internalType": "uint8",
                          "name": "minute",
                          "type": "uint8"
                        }
                      ],
                      "internalType": "struct OwnerToCompany.Date",
                      "name": "creation",
                      "type": "tuple"
                    }
                  ],
                  "internalType": "struct OwnerToCompany.CarPartDescription",
                  "name": "description",
                  "type": "tuple"
                }
              ],
              "internalType": "struct OwnerToCompany.CarPartInfo",
              "name": "carPart_info",
              "type": "tuple"
            },
            {
              "internalType": "uint128",
              "name": "price",
              "type": "uint128"
            }
          ],
          "name": "addSale",
          "outputs": [
            {
              "internalType": "bool",
              "name": "",
              "type": "bool"
            },
            {
              "internalType": "string",
              "name": "",
              "type": "string"
            },
            {
              "internalType": "int256",
              "name": "",
              "type": "int256"
            }
          ],
          "stateMutability": "payable",
          "type": "function"
        },
        {
          "inputs": [
            {
              "internalType": "string",
              "name": "_name",
              "type": "string"
            }
          ],
          "name": "changeName",
          "outputs": [],
          "stateMutability": "nonpayable",
          "type": "function"
        },
        {
          "inputs": [],
          "name": "getName",
          "outputs": [
            {
              "internalType": "string",
              "name": "",
              "type": "string"
            }
          ],
          "stateMutability": "view",
          "type": "function"
        },
        {
          "inputs": [
            {
              "internalType": "string",
              "name": "_name",
              "type": "string"
            },
            {
              "components": [
                {
                  "internalType": "string",
                  "name": "street",
                  "type": "string"
                },
                {
                  "internalType": "string",
                  "name": "number",
                  "type": "string"
                },
                {
                  "internalType": "string",
                  "name": "addr_details",
                  "type": "string"
                },
                {
                  "internalType": "string",
                  "name": "zip_code",
                  "type": "string"
                },
                {
                  "internalType": "string",
                  "name": "city",
                  "type": "string"
                },
                {
                  "internalType": "string",
                  "name": "state",
                  "type": "string"
                }
              ],
              "internalType": "struct OwnerToCompany.Address",
              "name": "_address",
              "type": "tuple"
            },
            {
              "internalType": "string",
              "name": "_id",
              "type": "string"
            }
          ],
          "name": "setCompanyInfo",
          "outputs": [],
          "stateMutability": "nonpayable",
          "type": "function"
        },
        {
          "inputs": [
            {
              "internalType": "uint8",
              "name": "day",
              "type": "uint8"
            },
            {
              "internalType": "uint8",
              "name": "month",
              "type": "uint8"
            },
            {
              "internalType": "uint16",
              "name": "year",
              "type": "uint16"
            },
            {
              "internalType": "uint8",
              "name": "hour",
              "type": "uint8"
            },
            {
              "internalType": "uint8",
              "name": "minute",
              "type": "uint8"
            }
          ],
          "name": "setDate",
          "outputs": [],
          "stateMutability": "nonpayable",
          "type": "function"
        },
        {
          "inputs": [
            {
              "internalType": "string",
              "name": "_name",
              "type": "string"
            },
            {
              "components": [
                {
                  "internalType": "string",
                  "name": "street",
                  "type": "string"
                },
                {
                  "internalType": "string",
                  "name": "number",
                  "type": "string"
                },
                {
                  "internalType": "string",
                  "name": "addr_details",
                  "type": "string"
                },
                {
                  "internalType": "string",
                  "name": "zip_code",
                  "type": "string"
                },
                {
                  "internalType": "string",
                  "name": "city",
                  "type": "string"
                },
                {
                  "internalType": "string",
                  "name": "state",
                  "type": "string"
                }
              ],
              "internalType": "struct OwnerToCompany.Address",
              "name": "_address",
              "type": "tuple"
            },
            {
              "internalType": "string",
              "name": "_id",
              "type": "string"
            }
          ],
          "name": "setOwnerInfo",
          "outputs": [],
          "stateMutability": "nonpayable",
          "type": "function"
        }
      ],
      "evm": {
        "bytecode": {
          "linkReferences": {},
          "object": "608060405260405180606001604052806040518060400160405280600681526020017f4e4f524d414c000000000000000000000000000000000000000000000000000081525081526020016040518060400160405280600581526020017f545241444500000000000000000000000000000000000000000000000000000081525081526020016040518060400160405280600481526020017f47494654000000000000000000000000000000000000000000000000000000008152508152506001906003620000d092919062000129565b506000600855348015620000e357600080fd5b5060405162001b2538038062001b2583398181016040528101906200010991906200043e565b80600090805190602001906200012192919062000183565b5050620004f4565b826003810192821562000170579160200282015b828111156200016f5782518290805190602001906200015e92919062000183565b50916020019190600101906200013d565b5b5090506200017f919062000214565b5090565b8280546200019190620004be565b90600052602060002090601f016020900481019282620001b5576000855562000201565b82601f10620001d057805160ff191683800117855562000201565b8280016001018555821562000201579182015b8281111562000200578251825591602001919060010190620001e3565b5b5090506200021091906200023c565b5090565b5b808211156200023857600081816200022e91906200025b565b5060010162000215565b5090565b5b80821115620002575760008160009055506001016200023d565b5090565b5080546200026990620004be565b6000825580601f106200027d57506200029e565b601f0160209004906000526020600020908101906200029d91906200023c565b5b50565b6000604051905090565b600080fd5b600080fd5b600080fd5b600080fd5b6000601f19601f8301169050919050565b7f4e487b7100000000000000000000000000000000000000000000000000000000600052604160045260246000fd5b6200030a82620002bf565b810181811067ffffffffffffffff821117156200032c576200032b620002d0565b5b80604052505050565b600062000341620002a1565b90506200034f8282620002ff565b919050565b600067ffffffffffffffff821115620003725762000371620002d0565b5b6200037d82620002bf565b9050602081019050919050565b60005b83811015620003aa5780820151818401526020810190506200038d565b83811115620003ba576000848401525b50505050565b6000620003d7620003d18462000354565b62000335565b905082815260208101848484011115620003f657620003f5620002ba565b5b620004038482856200038a565b509392505050565b600082601f830112620004235762000422620002b5565b5b815162000435848260208601620003c0565b91505092915050565b600060208284031215620004575762000456620002ab565b5b600082015167ffffffffffffffff811115620004785762000477620002b0565b5b62000486848285016200040b565b91505092915050565b7f4e487b7100000000000000000000000000000000000000000000000000000000600052602260045260246000fd5b60006002820490506001821680620004d757607f821691505b60208210811415620004ee57620004ed6200048f565b5b50919050565b61162180620005046000396000f3fe6080604052600436106100555760003560e01c806317d7de7c1461005a578063409dd70714610085578063517ca9f4146100ae5780635353a2d8146100e057806370c64351146101095780639747a20014610132575b600080fd5b34801561006657600080fd5b5061006f61015b565b60405161007c9190610c53565b60405180910390f35b34801561009157600080fd5b506100ac60048036038101906100a79190610f10565b6101ed565b005b6100c860048036038101906100c391906112b0565b6102f4565b6040516100d793929190611399565b60405180910390f35b3480156100ec57600080fd5b50610107600480360381019061010291906113d7565b6108b5565b005b34801561011557600080fd5b50610130600480360381019061012b9190611420565b6108cf565b005b34801561013e57600080fd5b5061015960048036038101906101549190610f10565b610983565b005b60606000805461016a906114ca565b80601f0160208091040260200160405190810160405280929190818152602001828054610196906114ca565b80156101e35780601f106101b8576101008083540402835291602001916101e3565b820191906000526020600020905b8154815290600101906020018083116101c657829003601f168201915b5050505050905090565b600060066000600854815260200190815260200160002090508181600701908051906020019061021e929190610a8a565b5083816000019080519060200190610237929190610a8a565b5082816001016000820151816000019080519060200190610259929190610a8a565b506020820151816001019080519060200190610276929190610a8a565b506040820151816002019080519060200190610293929190610a8a565b5060608201518160030190805190602001906102b0929190610a8a565b5060808201518160040190805190602001906102cd929190610a8a565b5060a08201518160050190805190602001906102ea929190610a8a565b5090505050505050565b600060606000836fffffffffffffffffffffffffffffffff1634146103a2578573ffffffffffffffffffffffffffffffffffffffff166108fc349081150290604051600060405180830381858888f19350505050158015610359573d6000803e3d6000fd5b5060007fffffffffffffffffffffffffffffffffffffffffffffffffffffffffffffffff6040518060600160405280603981526020016115b360399139909250925092506108aa565b60006004600060085481526020019081526020016000209050888160000190805190602001906103d3929190610a8a565b50878160010160008201518160000160006101000a81548160ff021916908360ff16021790555060208201518160000160016101000a81548160ff021916908360ff16021790555060408201518160000160026101000a81548161ffff021916908361ffff16021790555060608201518160000160046101000a81548160ff021916908360ff16021790555060808201518160000160056101000a81548160ff021916908360ff1602179055509050506005600060085481526020019081526020016000208160020160008201816000019080546104b0906114ca565b6104bb929190610b10565b50600182018160010160008201816000019080546104d8906114ca565b6104e3929190610b10565b5060018201816001019080546104f8906114ca565b610503929190610b10565b506002820181600201908054610518906114ca565b610523929190610b10565b506003820181600301908054610538906114ca565b610543929190610b10565b506004820181600401908054610558906114ca565b610563929190610b10565b506005820181600501908054610578906114ca565b610583929190610b10565b505050600782018160070190805461059a906114ca565b6105a5929190610b10565b5090505060066000600854815260200190815260200160002081600a0160008201816000019080546105d6906114ca565b6105e1929190610b10565b50600182018160010160008201816000019080546105fe906114ca565b610609929190610b10565b50600182018160010190805461061e906114ca565b610629929190610b10565b50600282018160020190805461063e906114ca565b610649929190610b10565b50600382018160030190805461065e906114ca565b610669929190610b10565b50600482018160040190805461067e906114ca565b610689929190610b10565b50600582018160050190805461069e906114ca565b6106a9929190610b10565b50505060078201816007019080546106c0906114ca565b6106cb929190610b10565b50905050858160120160008201518160000190805190602001906106f0929190610a8a565b50602082015181600101908051906020019061070d929190610a8a565b506040820151816002016000820151816000019080519060200190610733929190610a8a565b506020820151816001019080519060200190610750929190610a8a565b5060408201518160020160008201518160000160006101000a81548160ff021916908360ff16021790555060208201518160000160016101000a81548160ff021916908360ff16021790555060408201518160000160026101000a81548161ffff021916908361ffff16021790555060608201518160000160046101000a81548160ff021916908360ff16021790555060808201518160000160056101000a81548160ff021916908360ff16021790555050505050905050848160170160006101000a8154816fffffffffffffffffffffffffffffffff02191690836fffffffffffffffffffffffffffffffff1602179055506008600081548092919061085690611535565b919050555060018060085461086b919061157e565b6040518060400160405280600881526020017f537563636573732100000000000000000000000000000000000000000000000081525090935093509350505b955095509592505050565b80600090805190602001906108cb929190610a8a565b5050565b60006007600060085481526020019081526020016000209050858160000160006101000a81548160ff021916908360ff160217905550848160000160016101000a81548160ff021916908360ff160217905550838160000160026101000a81548161ffff021916908361ffff160217905550828160000160046101000a81548160ff021916908360ff160217905550818160000160056101000a81548160ff021916908360ff160217905550505050505050565b60006005600060085481526020019081526020016000209050818160070190805190602001906109b4929190610a8a565b50838160000190805190602001906109cd929190610a8a565b50828160010160008201518160000190805190602001906109ef929190610a8a565b506020820151816001019080519060200190610a0c929190610a8a565b506040820151816002019080519060200190610a29929190610a8a565b506060820151816003019080519060200190610a46929190610a8a565b506080820151816004019080519060200190610a63929190610a8a565b5060a0820151816005019080519060200190610a80929190610a8a565b5090505050505050565b828054610a96906114ca565b90600052602060002090601f016020900481019282610ab85760008555610aff565b82601f10610ad157805160ff1916838001178555610aff565b82800160010185558215610aff579182015b82811115610afe578251825591602001919060010190610ae3565b5b509050610b0c9190610b9d565b5090565b828054610b1c906114ca565b90600052602060002090601f016020900481019282610b3e5760008555610b8c565b82601f10610b4f5780548555610b8c565b82800160010185558215610b8c57600052602060002091601f016020900482015b82811115610b8b578254825591600101919060010190610b70565b5b509050610b999190610b9d565b5090565b5b80821115610bb6576000816000905550600101610b9e565b5090565b600081519050919050565b600082825260208201905092915050565b60005b83811015610bf4578082015181840152602081019050610bd9565b83811115610c03576000848401525b50505050565b6000601f19601f8301169050919050565b6000610c2582610bba565b610c2f8185610bc5565b9350610c3f818560208601610bd6565b610c4881610c09565b840191505092915050565b60006020820190508181036000830152610c6d8184610c1a565b905092915050565b6000604051905090565b600080fd5b600080fd5b600080fd5b600080fd5b7f4e487b7100000000000000000000000000000000000000000000000000000000600052604160045260246000fd5b610ccb82610c09565b810181811067ffffffffffffffff82111715610cea57610ce9610c93565b5b80604052505050565b6000610cfd610c75565b9050610d098282610cc2565b919050565b600067ffffffffffffffff821115610d2957610d28610c93565b5b610d3282610c09565b9050602081019050919050565b82818337600083830152505050565b6000610d61610d5c84610d0e565b610cf3565b905082815260208101848484011115610d7d57610d7c610c8e565b5b610d88848285610d3f565b509392505050565b600082601f830112610da557610da4610c89565b5b8135610db5848260208601610d4e565b91505092915050565b600080fd5b600080fd5b600060c08284031215610dde57610ddd610dbe565b5b610de860c0610cf3565b9050600082013567ffffffffffffffff811115610e0857610e07610dc3565b5b610e1484828501610d90565b600083015250602082013567ffffffffffffffff811115610e3857610e37610dc3565b5b610e4484828501610d90565b602083015250604082013567ffffffffffffffff811115610e6857610e67610dc3565b5b610e7484828501610d90565b604083015250606082013567ffffffffffffffff811115610e9857610e97610dc3565b5b610ea484828501610d90565b606083015250608082013567ffffffffffffffff811115610ec857610ec7610dc3565b5b610ed484828501610d90565b60808301525060a082013567ffffffffffffffff811115610ef857610ef7610dc3565b5b610f0484828501610d90565b60a08301525092915050565b600080600060608486031215610f2957610f28610c7f565b5b600084013567ffffffffffffffff811115610f4757610f46610c84565b5b610f5386828701610d90565b935050602084013567ffffffffffffffff811115610f7457610f73610c84565b5b610f8086828701610dc8565b925050604084013567ffffffffffffffff811115610fa157610fa0610c84565b5b610fad86828701610d90565b9150509250925092565b600060ff82169050919050565b610fcd81610fb7565b8114610fd857600080fd5b50565b600081359050610fea81610fc4565b92915050565b600061ffff82169050919050565b61100781610ff0565b811461101257600080fd5b50565b60008135905061102481610ffe565b92915050565b600060a082840312156110405761103f610dbe565b5b61104a60a0610cf3565b9050600061105a84828501610fdb565b600083015250602061106e84828501610fdb565b602083015250604061108284828501611015565b604083015250606061109684828501610fdb565b60608301525060806110aa84828501610fdb565b60808301525092915050565b600073ffffffffffffffffffffffffffffffffffffffff82169050919050565b60006110e1826110b6565b9050919050565b6110f1816110d6565b81146110fc57600080fd5b50565b60008135905061110e816110e8565b92915050565b600060e0828403121561112a57611129610dbe565b5b6111346060610cf3565b9050600082013567ffffffffffffffff81111561115457611153610dc3565b5b61116084828501610d90565b600083015250602082013567ffffffffffffffff81111561118457611183610dc3565b5b61119084828501610d90565b60208301525060406111a48482850161102a565b60408301525092915050565b6000606082840312156111c6576111c5610dbe565b5b6111d06060610cf3565b9050600082013567ffffffffffffffff8111156111f0576111ef610dc3565b5b6111fc84828501610d90565b600083015250602082013567ffffffffffffffff8111156112205761121f610dc3565b5b61122c84828501610d90565b602083015250604082013567ffffffffffffffff8111156112505761124f610dc3565b5b61125c84828501611114565b60408301525092915050565b60006fffffffffffffffffffffffffffffffff82169050919050565b61128d81611268565b811461129857600080fd5b50565b6000813590506112aa81611284565b92915050565b600080600080600061012086880312156112cd576112cc610c7f565b5b600086013567ffffffffffffffff8111156112eb576112ea610c84565b5b6112f788828901610d90565b95505060206113088882890161102a565b94505060c0611319888289016110ff565b93505060e086013567ffffffffffffffff81111561133a57611339610c84565b5b611346888289016111b0565b9250506101006113588882890161129b565b9150509295509295909350565b60008115159050919050565b61137a81611365565b82525050565b6000819050919050565b61139381611380565b82525050565b60006060820190506113ae6000830186611371565b81810360208301526113c08185610c1a565b90506113cf604083018461138a565b949350505050565b6000602082840312156113ed576113ec610c7f565b5b600082013567ffffffffffffffff81111561140b5761140a610c84565b5b61141784828501610d90565b91505092915050565b600080600080600060a0868803121561143c5761143b610c7f565b5b600061144a88828901610fdb565b955050602061145b88828901610fdb565b945050604061146c88828901611015565b935050606061147d88828901610fdb565b925050608061148e88828901610fdb565b9150509295509295909350565b7f4e487b7100000000000000000000000000000000000000000000000000000000600052602260045260246000fd5b600060028204905060018216806114e257607f821691505b602082108114156114f6576114f561149b565b5b50919050565b7f4e487b7100000000000000000000000000000000000000000000000000000000600052601160045260246000fd5b6000819050919050565b60006115408261152b565b91507fffffffffffffffffffffffffffffffffffffffffffffffffffffffffffffffff821415611573576115726114fc565b5b600182019050919050565b60006115898261152b565b91506115948361152b565b9250828210156115a7576115a66114fc565b5b82820390509291505056fe496e666f726d656420707269636520646f6573206e6f7420636f72726573706f6e6420746f2073656e7420696e20746865206d657373616765a2646970667358221220f019719ca825c44fd7d5b4c40d69482c8a7595d5ac14b2f1eb50814052da949f64736f6c63430008090033",
          "opcodes": "PUSH1 0x80 PUSH1 0x40 MSTORE PUSH1 0x40 MLOAD DUP1 PUSH1 0x60 ADD PUSH1 0x40 MSTORE DUP1 PUSH1 0x40 MLOAD DUP1 PUSH1 0x40 ADD PUSH1 0x40 MSTORE DUP1 PUSH1 0x6 DUP2 MSTORE PUSH1 0x20 ADD PUSH32 0x4E4F524D414C0000000000000000000000000000000000000000000000000000 DUP2 MSTORE POP DUP2 MSTORE PUSH1 0x20 ADD PUSH1 0x40 MLOAD DUP1 PUSH1 0x40 ADD PUSH1 0x40 MSTORE DUP1 PUSH1 0x5 DUP2 MSTORE PUSH1 0x20 ADD PUSH32 0x5452414445000000000000000000000000000000000000000000000000000000 DUP2 MSTORE POP DUP2 MSTORE PUSH1 0x20 ADD PUSH1 0x40 MLOAD DUP1 PUSH1 0x40 ADD PUSH1 0x40 MSTORE DUP1 PUSH1 0x4 DUP2 MSTORE PUSH1 0x20 ADD PUSH32 0x4749465400000000000000000000000000000000000000000000000000000000 DUP2 MSTORE POP DUP2 MSTORE POP PUSH1 0x1 SWAP1 PUSH1 0x3 PUSH3 0xD0 SWAP3 SWAP2 SWAP1 PUSH3 0x129 JUMP JUMPDEST POP PUSH1 0x0 PUSH1 0x8 SSTORE CALLVALUE DUP1 ISZERO PUSH3 0xE3 JUMPI PUSH1 0x0 DUP1 REVERT JUMPDEST POP PUSH1 0x40 MLOAD PUSH3 0x1B25 CODESIZE SUB DUP1 PUSH3 0x1B25 DUP4 CODECOPY DUP2 DUP2 ADD PUSH1 0x40 MSTORE DUP2 ADD SWAP1 PUSH3 0x109 SWAP2 SWAP1 PUSH3 0x43E JUMP JUMPDEST DUP1 PUSH1 0x0 SWAP1 DUP1 MLOAD SWAP1 PUSH1 0x20 ADD SWAP1 PUSH3 0x121 SWAP3 SWAP2 SWAP1 PUSH3 0x183 JUMP JUMPDEST POP POP PUSH3 0x4F4 JUMP JUMPDEST DUP3 PUSH1 0x3 DUP2 ADD SWAP3 DUP3 ISZERO PUSH3 0x170 JUMPI SWAP2 PUSH1 0x20 MUL DUP3 ADD JUMPDEST DUP3 DUP2 GT ISZERO PUSH3 0x16F JUMPI DUP3 MLOAD DUP3 SWAP1 DUP1 MLOAD SWAP1 PUSH1 0x20 ADD SWAP1 PUSH3 0x15E SWAP3 SWAP2 SWAP1 PUSH3 0x183 JUMP JUMPDEST POP SWAP2 PUSH1 0x20 ADD SWAP2 SWAP1 PUSH1 0x1 ADD SWAP1 PUSH3 0x13D JUMP JUMPDEST JUMPDEST POP SWAP1 POP PUSH3 0x17F SWAP2 SWAP1 PUSH3 0x214 JUMP JUMPDEST POP SWAP1 JUMP JUMPDEST DUP3 DUP1 SLOAD PUSH3 0x191 SWAP1 PUSH3 0x4BE JUMP JUMPDEST SWAP1 PUSH1 0x0 MSTORE PUSH1 0x20 PUSH1 0x0 KECCAK256 SWAP1 PUSH1 0x1F ADD PUSH1 0x20 SWAP1 DIV DUP2 ADD SWAP3 DUP3 PUSH3 0x1B5 JUMPI PUSH1 0x0 DUP6 SSTORE PUSH3 0x201 JUMP JUMPDEST DUP3 PUSH1 0x1F LT PUSH3 0x1D0 JUMPI DUP1 MLOAD PUSH1 0xFF NOT AND DUP4 DUP1 ADD OR DUP6 SSTORE PUSH3 0x201 JUMP JUMPDEST DUP3 DUP1 ADD PUSH1 0x1 ADD DUP6 SSTORE DUP3 ISZERO PUSH3 0x201 JUMPI SWAP2 DUP3 ADD JUMPDEST DUP3 DUP2 GT ISZERO PUSH3 0x200 JUMPI DUP3 MLOAD DUP3 SSTORE SWAP2 PUSH1 0x20 ADD SWAP2 SWAP1 PUSH1 0x1 ADD SWAP1 PUSH3 0x1E3 JUMP JUMPDEST JUMPDEST POP SWAP1 POP PUSH3 0x210 SWAP2 SWAP1 PUSH3 0x23C JUMP JUMPDEST POP SWAP1 JUMP JUMPDEST JUMPDEST DUP1 DUP3 GT ISZERO PUSH3 0x238 JUMPI PUSH1 0x0 DUP2 DUP2 PUSH3 0x22E SWAP2 SWAP1 PUSH3 0x25B JUMP JUMPDEST POP PUSH1 0x1 ADD PUSH3 0x215 JUMP JUMPDEST POP SWAP1 JUMP JUMPDEST JUMPDEST DUP1 DUP3 GT ISZERO PUSH3 0x257 JUMPI PUSH1 0x0 DUP2 PUSH1 0x0 SWAP1 SSTORE POP PUSH1 0x1 ADD PUSH3 0x23D JUMP JUMPDEST POP SWAP1 JUMP JUMPDEST POP DUP1 SLOAD PUSH3 0x269 SWAP1 PUSH3 0x4BE JUMP JUMPDEST PUSH1 0x0 DUP3 SSTORE DUP1 PUSH1 0x1F LT PUSH3 0x27D JUMPI POP PUSH3 0x29E JUMP JUMPDEST PUSH1 0x1F ADD PUSH1 0x20 SWAP1 DIV SWAP1 PUSH1 0x0 MSTORE PUSH1 0x20 PUSH1 0x0 KECCAK256 SWAP1 DUP2 ADD SWAP1 PUSH3 0x29D SWAP2 SWAP1 PUSH3 0x23C JUMP JUMPDEST JUMPDEST POP JUMP JUMPDEST PUSH1 0x0 PUSH1 0x40 MLOAD SWAP1 POP SWAP1 JUMP JUMPDEST PUSH1 0x0 DUP1 REVERT JUMPDEST PUSH1 0x0 DUP1 REVERT JUMPDEST PUSH1 0x0 DUP1 REVERT JUMPDEST PUSH1 0x0 DUP1 REVERT JUMPDEST PUSH1 0x0 PUSH1 0x1F NOT PUSH1 0x1F DUP4 ADD AND SWAP1 POP SWAP2 SWAP1 POP JUMP JUMPDEST PUSH32 0x4E487B7100000000000000000000000000000000000000000000000000000000 PUSH1 0x0 MSTORE PUSH1 0x41 PUSH1 0x4 MSTORE PUSH1 0x24 PUSH1 0x0 REVERT JUMPDEST PUSH3 0x30A DUP3 PUSH3 0x2BF JUMP JUMPDEST DUP2 ADD DUP2 DUP2 LT PUSH8 0xFFFFFFFFFFFFFFFF DUP3 GT OR ISZERO PUSH3 0x32C JUMPI PUSH3 0x32B PUSH3 0x2D0 JUMP JUMPDEST JUMPDEST DUP1 PUSH1 0x40 MSTORE POP POP POP JUMP JUMPDEST PUSH1 0x0 PUSH3 0x341 PUSH3 0x2A1 JUMP JUMPDEST SWAP1 POP PUSH3 0x34F DUP3 DUP3 PUSH3 0x2FF JUMP JUMPDEST SWAP2 SWAP1 POP JUMP JUMPDEST PUSH1 0x0 PUSH8 0xFFFFFFFFFFFFFFFF DUP3 GT ISZERO PUSH3 0x372 JUMPI PUSH3 0x371 PUSH3 0x2D0 JUMP JUMPDEST JUMPDEST PUSH3 0x37D DUP3 PUSH3 0x2BF JUMP JUMPDEST SWAP1 POP PUSH1 0x20 DUP2 ADD SWAP1 POP SWAP2 SWAP1 POP JUMP JUMPDEST PUSH1 0x0 JUMPDEST DUP4 DUP2 LT ISZERO PUSH3 0x3AA JUMPI DUP1 DUP3 ADD MLOAD DUP2 DUP5 ADD MSTORE PUSH1 0x20 DUP2 ADD SWAP1 POP PUSH3 0x38D JUMP JUMPDEST DUP4 DUP2 GT ISZERO PUSH3 0x3BA JUMPI PUSH1 0x0 DUP5 DUP5 ADD MSTORE JUMPDEST POP POP POP POP JUMP JUMPDEST PUSH1 0x0 PUSH3 0x3D7 PUSH3 0x3D1 DUP5 PUSH3 0x354 JUMP JUMPDEST PUSH3 0x335 JUMP JUMPDEST SWAP1 POP DUP3 DUP2 MSTORE PUSH1 0x20 DUP2 ADD DUP5 DUP5 DUP5 ADD GT ISZERO PUSH3 0x3F6 JUMPI PUSH3 0x3F5 PUSH3 0x2BA JUMP JUMPDEST JUMPDEST PUSH3 0x403 DUP5 DUP3 DUP6 PUSH3 0x38A JUMP JUMPDEST POP SWAP4 SWAP3 POP POP POP JUMP JUMPDEST PUSH1 0x0 DUP3 PUSH1 0x1F DUP4 ADD SLT PUSH3 0x423 JUMPI PUSH3 0x422 PUSH3 0x2B5 JUMP JUMPDEST JUMPDEST DUP2 MLOAD PUSH3 0x435 DUP5 DUP3 PUSH1 0x20 DUP7 ADD PUSH3 0x3C0 JUMP JUMPDEST SWAP2 POP POP SWAP3 SWAP2 POP POP JUMP JUMPDEST PUSH1 0x0 PUSH1 0x20 DUP3 DUP5 SUB SLT ISZERO PUSH3 0x457 JUMPI PUSH3 0x456 PUSH3 0x2AB JUMP JUMPDEST JUMPDEST PUSH1 0x0 DUP3 ADD MLOAD PUSH8 0xFFFFFFFFFFFFFFFF DUP2 GT ISZERO PUSH3 0x478 JUMPI PUSH3 0x477 PUSH3 0x2B0 JUMP JUMPDEST JUMPDEST PUSH3 0x486 DUP5 DUP3 DUP6 ADD PUSH3 0x40B JUMP JUMPDEST SWAP2 POP POP SWAP3 SWAP2 POP POP JUMP JUMPDEST PUSH32 0x4E487B7100000000000000000000000000000000000000000000000000000000 PUSH1 0x0 MSTORE PUSH1 0x22 PUSH1 0x4 MSTORE PUSH1 0x24 PUSH1 0x0 REVERT JUMPDEST PUSH1 0x0 PUSH1 0x2 DUP3 DIV SWAP1 POP PUSH1 0x1 DUP3 AND DUP1 PUSH3 0x4D7 JUMPI PUSH1 0x7F DUP3 AND SWAP2 POP JUMPDEST PUSH1 0x20 DUP3 LT DUP2 EQ ISZERO PUSH3 0x4EE JUMPI PUSH3 0x4ED PUSH3 0x48F JUMP JUMPDEST JUMPDEST POP SWAP2 SWAP1 POP JUMP JUMPDEST PUSH2 0x1621 DUP1 PUSH3 0x504 PUSH1 0x0 CODECOPY PUSH1 0x0 RETURN INVALID PUSH1 0x80 PUSH1 0x40 MSTORE PUSH1 0x4 CALLDATASIZE LT PUSH2 0x55 JUMPI PUSH1 0x0 CALLDATALOAD PUSH1 0xE0 SHR DUP1 PUSH4 0x17D7DE7C EQ PUSH2 0x5A JUMPI DUP1 PUSH4 0x409DD707 EQ PUSH2 0x85 JUMPI DUP1 PUSH4 0x517CA9F4 EQ PUSH2 0xAE JUMPI DUP1 PUSH4 0x5353A2D8 EQ PUSH2 0xE0 JUMPI DUP1 PUSH4 0x70C64351 EQ PUSH2 0x109 JUMPI DUP1 PUSH4 0x9747A200 EQ PUSH2 0x132 JUMPI JUMPDEST PUSH1 0x0 DUP1 REVERT JUMPDEST CALLVALUE DUP1 ISZERO PUSH2 0x66 JUMPI PUSH1 0x0 DUP1 REVERT JUMPDEST POP PUSH2 0x6F PUSH2 0x15B JUMP JUMPDEST PUSH1 0x40 MLOAD PUSH2 0x7C SWAP2 SWAP1 PUSH2 0xC53 JUMP JUMPDEST PUSH1 0x40 MLOAD DUP1 SWAP2 SUB SWAP1 RETURN JUMPDEST CALLVALUE DUP1 ISZERO PUSH2 0x91 JUMPI PUSH1 0x0 DUP1 REVERT JUMPDEST POP PUSH2 0xAC PUSH1 0x4 DUP1 CALLDATASIZE SUB DUP2 ADD SWAP1 PUSH2 0xA7 SWAP2 SWAP1 PUSH2 0xF10 JUMP JUMPDEST PUSH2 0x1ED JUMP JUMPDEST STOP JUMPDEST PUSH2 0xC8 PUSH1 0x4 DUP1 CALLDATASIZE SUB DUP2 ADD SWAP1 PUSH2 0xC3 SWAP2 SWAP1 PUSH2 0x12B0 JUMP JUMPDEST PUSH2 0x2F4 JUMP JUMPDEST PUSH1 0x40 MLOAD PUSH2 0xD7 SWAP4 SWAP3 SWAP2 SWAP1 PUSH2 0x1399 JUMP JUMPDEST PUSH1 0x40 MLOAD DUP1 SWAP2 SUB SWAP1 RETURN JUMPDEST CALLVALUE DUP1 ISZERO PUSH2 0xEC JUMPI PUSH1 0x0 DUP1 REVERT JUMPDEST POP PUSH2 0x107 PUSH1 0x4 DUP1 CALLDATASIZE SUB DUP2 ADD SWAP1 PUSH2 0x102 SWAP2 SWAP1 PUSH2 0x13D7 JUMP JUMPDEST PUSH2 0x8B5 JUMP JUMPDEST STOP JUMPDEST CALLVALUE DUP1 ISZERO PUSH2 0x115 JUMPI PUSH1 0x0 DUP1 REVERT JUMPDEST POP PUSH2 0x130 PUSH1 0x4 DUP1 CALLDATASIZE SUB DUP2 ADD SWAP1 PUSH2 0x12B SWAP2 SWAP1 PUSH2 0x1420 JUMP JUMPDEST PUSH2 0x8CF JUMP JUMPDEST STOP JUMPDEST CALLVALUE DUP1 ISZERO PUSH2 0x13E JUMPI PUSH1 0x0 DUP1 REVERT JUMPDEST POP PUSH2 0x159 PUSH1 0x4 DUP1 CALLDATASIZE SUB DUP2 ADD SWAP1 PUSH2 0x154 SWAP2 SWAP1 PUSH2 0xF10 JUMP JUMPDEST PUSH2 0x983 JUMP JUMPDEST STOP JUMPDEST PUSH1 0x60 PUSH1 0x0 DUP1 SLOAD PUSH2 0x16A SWAP1 PUSH2 0x14CA JUMP JUMPDEST DUP1 PUSH1 0x1F ADD PUSH1 0x20 DUP1 SWAP2 DIV MUL PUSH1 0x20 ADD PUSH1 0x40 MLOAD SWAP1 DUP2 ADD PUSH1 0x40 MSTORE DUP1 SWAP3 SWAP2 SWAP1 DUP2 DUP2 MSTORE PUSH1 0x20 ADD DUP3 DUP1 SLOAD PUSH2 0x196 SWAP1 PUSH2 0x14CA JUMP JUMPDEST DUP1 ISZERO PUSH2 0x1E3 JUMPI DUP1 PUSH1 0x1F LT PUSH2 0x1B8 JUMPI PUSH2 0x100 DUP1 DUP4 SLOAD DIV MUL DUP4 MSTORE SWAP2 PUSH1 0x20 ADD SWAP2 PUSH2 0x1E3 JUMP JUMPDEST DUP3 ADD SWAP2 SWAP1 PUSH1 0x0 MSTORE PUSH1 0x20 PUSH1 0x0 KECCAK256 SWAP1 JUMPDEST DUP2 SLOAD DUP2 MSTORE SWAP1 PUSH1 0x1 ADD SWAP1 PUSH1 0x20 ADD DUP1 DUP4 GT PUSH2 0x1C6 JUMPI DUP3 SWAP1 SUB PUSH1 0x1F AND DUP3 ADD SWAP2 JUMPDEST POP POP POP POP POP SWAP1 POP SWAP1 JUMP JUMPDEST PUSH1 0x0 PUSH1 0x6 PUSH1 0x0 PUSH1 0x8 SLOAD DUP2 MSTORE PUSH1 0x20 ADD SWAP1 DUP2 MSTORE PUSH1 0x20 ADD PUSH1 0x0 KECCAK256 SWAP1 POP DUP2 DUP2 PUSH1 0x7 ADD SWAP1 DUP1 MLOAD SWAP1 PUSH1 0x20 ADD SWAP1 PUSH2 0x21E SWAP3 SWAP2 SWAP1 PUSH2 0xA8A JUMP JUMPDEST POP DUP4 DUP2 PUSH1 0x0 ADD SWAP1 DUP1 MLOAD SWAP1 PUSH1 0x20 ADD SWAP1 PUSH2 0x237 SWAP3 SWAP2 SWAP1 PUSH2 0xA8A JUMP JUMPDEST POP DUP3 DUP2 PUSH1 0x1 ADD PUSH1 0x0 DUP3 ADD MLOAD DUP2 PUSH1 0x0 ADD SWAP1 DUP1 MLOAD SWAP1 PUSH1 0x20 ADD SWAP1 PUSH2 0x259 SWAP3 SWAP2 SWAP1 PUSH2 0xA8A JUMP JUMPDEST POP PUSH1 0x20 DUP3 ADD MLOAD DUP2 PUSH1 0x1 ADD SWAP1 DUP1 MLOAD SWAP1 PUSH1 0x20 ADD SWAP1 PUSH2 0x276 SWAP3 SWAP2 SWAP1 PUSH2 0xA8A JUMP JUMPDEST POP PUSH1 0x40 DUP3 ADD MLOAD DUP2 PUSH1 0x2 ADD SWAP1 DUP1 MLOAD SWAP1 PUSH1 0x20 ADD SWAP1 PUSH2 0x293 SWAP3 SWAP2 SWAP1 PUSH2 0xA8A JUMP JUMPDEST POP PUSH1 0x60 DUP3 ADD MLOAD DUP2 PUSH1 0x3 ADD SWAP1 DUP1 MLOAD SWAP1 PUSH1 0x20 ADD SWAP1 PUSH2 0x2B0 SWAP3 SWAP2 SWAP1 PUSH2 0xA8A JUMP JUMPDEST POP PUSH1 0x80 DUP3 ADD MLOAD DUP2 PUSH1 0x4 ADD SWAP1 DUP1 MLOAD SWAP1 PUSH1 0x20 ADD SWAP1 PUSH2 0x2CD SWAP3 SWAP2 SWAP1 PUSH2 0xA8A JUMP JUMPDEST POP PUSH1 0xA0 DUP3 ADD MLOAD DUP2 PUSH1 0x5 ADD SWAP1 DUP1 MLOAD SWAP1 PUSH1 0x20 ADD SWAP1 PUSH2 0x2EA SWAP3 SWAP2 SWAP1 PUSH2 0xA8A JUMP JUMPDEST POP SWAP1 POP POP POP POP POP POP JUMP JUMPDEST PUSH1 0x0 PUSH1 0x60 PUSH1 0x0 DUP4 PUSH16 0xFFFFFFFFFFFFFFFFFFFFFFFFFFFFFFFF AND CALLVALUE EQ PUSH2 0x3A2 JUMPI DUP6 PUSH20 0xFFFFFFFFFFFFFFFFFFFFFFFFFFFFFFFFFFFFFFFF AND PUSH2 0x8FC CALLVALUE SWAP1 DUP2 ISZERO MUL SWAP1 PUSH1 0x40 MLOAD PUSH1 0x0 PUSH1 0x40 MLOAD DUP1 DUP4 SUB DUP2 DUP6 DUP9 DUP9 CALL SWAP4 POP POP POP POP ISZERO DUP1 ISZERO PUSH2 0x359 JUMPI RETURNDATASIZE PUSH1 0x0 DUP1 RETURNDATACOPY RETURNDATASIZE PUSH1 0x0 REVERT JUMPDEST POP PUSH1 0x0 PUSH32 0xFFFFFFFFFFFFFFFFFFFFFFFFFFFFFFFFFFFFFFFFFFFFFFFFFFFFFFFFFFFFFFFF PUSH1 0x40 MLOAD DUP1 PUSH1 0x60 ADD PUSH1 0x40 MSTORE DUP1 PUSH1 0x39 DUP2 MSTORE PUSH1 0x20 ADD PUSH2 0x15B3 PUSH1 0x39 SWAP2 CODECOPY SWAP1 SWAP3 POP SWAP3 POP SWAP3 POP PUSH2 0x8AA JUMP JUMPDEST PUSH1 0x0 PUSH1 0x4 PUSH1 0x0 PUSH1 0x8 SLOAD DUP2 MSTORE PUSH1 0x20 ADD SWAP1 DUP2 MSTORE PUSH1 0x20 ADD PUSH1 0x0 KECCAK256 SWAP1 POP DUP9 DUP2 PUSH1 0x0 ADD SWAP1 DUP1 MLOAD SWAP1 PUSH1 0x20 ADD SWAP1 PUSH2 0x3D3 SWAP3 SWAP2 SWAP1 PUSH2 0xA8A JUMP JUMPDEST POP DUP8 DUP2 PUSH1 0x1 ADD PUSH1 0x0 DUP3 ADD MLOAD DUP2 PUSH1 0x0 ADD PUSH1 0x0 PUSH2 0x100 EXP DUP2 SLOAD DUP2 PUSH1 0xFF MUL NOT AND SWAP1 DUP4 PUSH1 0xFF AND MUL OR SWAP1 SSTORE POP PUSH1 0x20 DUP3 ADD MLOAD DUP2 PUSH1 0x0 ADD PUSH1 0x1 PUSH2 0x100 EXP DUP2 SLOAD DUP2 PUSH1 0xFF MUL NOT AND SWAP1 DUP4 PUSH1 0xFF AND MUL OR SWAP1 SSTORE POP PUSH1 0x40 DUP3 ADD MLOAD DUP2 PUSH1 0x0 ADD PUSH1 0x2 PUSH2 0x100 EXP DUP2 SLOAD DUP2 PUSH2 0xFFFF MUL NOT AND SWAP1 DUP4 PUSH2 0xFFFF AND MUL OR SWAP1 SSTORE POP PUSH1 0x60 DUP3 ADD MLOAD DUP2 PUSH1 0x0 ADD PUSH1 0x4 PUSH2 0x100 EXP DUP2 SLOAD DUP2 PUSH1 0xFF MUL NOT AND SWAP1 DUP4 PUSH1 0xFF AND MUL OR SWAP1 SSTORE POP PUSH1 0x80 DUP3 ADD MLOAD DUP2 PUSH1 0x0 ADD PUSH1 0x5 PUSH2 0x100 EXP DUP2 SLOAD DUP2 PUSH1 0xFF MUL NOT AND SWAP1 DUP4 PUSH1 0xFF AND MUL OR SWAP1 SSTORE POP SWAP1 POP POP PUSH1 0x5 PUSH1 0x0 PUSH1 0x8 SLOAD DUP2 MSTORE PUSH1 0x20 ADD SWAP1 DUP2 MSTORE PUSH1 0x20 ADD PUSH1 0x0 KECCAK256 DUP2 PUSH1 0x2 ADD PUSH1 0x0 DUP3 ADD DUP2 PUSH1 0x0 ADD SWAP1 DUP1 SLOAD PUSH2 0x4B0 SWAP1 PUSH2 0x14CA JUMP JUMPDEST PUSH2 0x4BB SWAP3 SWAP2 SWAP1 PUSH2 0xB10 JUMP JUMPDEST POP PUSH1 0x1 DUP3 ADD DUP2 PUSH1 0x1 ADD PUSH1 0x0 DUP3 ADD DUP2 PUSH1 0x0 ADD SWAP1 DUP1 SLOAD PUSH2 0x4D8 SWAP1 PUSH2 0x14CA JUMP JUMPDEST PUSH2 0x4E3 SWAP3 SWAP2 SWAP1 PUSH2 0xB10 JUMP JUMPDEST POP PUSH1 0x1 DUP3 ADD DUP2 PUSH1 0x1 ADD SWAP1 DUP1 SLOAD PUSH2 0x4F8 SWAP1 PUSH2 0x14CA JUMP JUMPDEST PUSH2 0x503 SWAP3 SWAP2 SWAP1 PUSH2 0xB10 JUMP JUMPDEST POP PUSH1 0x2 DUP3 ADD DUP2 PUSH1 0x2 ADD SWAP1 DUP1 SLOAD PUSH2 0x518 SWAP1 PUSH2 0x14CA JUMP JUMPDEST PUSH2 0x523 SWAP3 SWAP2 SWAP1 PUSH2 0xB10 JUMP JUMPDEST POP PUSH1 0x3 DUP3 ADD DUP2 PUSH1 0x3 ADD SWAP1 DUP1 SLOAD PUSH2 0x538 SWAP1 PUSH2 0x14CA JUMP JUMPDEST PUSH2 0x543 SWAP3 SWAP2 SWAP1 PUSH2 0xB10 JUMP JUMPDEST POP PUSH1 0x4 DUP3 ADD DUP2 PUSH1 0x4 ADD SWAP1 DUP1 SLOAD PUSH2 0x558 SWAP1 PUSH2 0x14CA JUMP JUMPDEST PUSH2 0x563 SWAP3 SWAP2 SWAP1 PUSH2 0xB10 JUMP JUMPDEST POP PUSH1 0x5 DUP3 ADD DUP2 PUSH1 0x5 ADD SWAP1 DUP1 SLOAD PUSH2 0x578 SWAP1 PUSH2 0x14CA JUMP JUMPDEST PUSH2 0x583 SWAP3 SWAP2 SWAP1 PUSH2 0xB10 JUMP JUMPDEST POP POP POP PUSH1 0x7 DUP3 ADD DUP2 PUSH1 0x7 ADD SWAP1 DUP1 SLOAD PUSH2 0x59A SWAP1 PUSH2 0x14CA JUMP JUMPDEST PUSH2 0x5A5 SWAP3 SWAP2 SWAP1 PUSH2 0xB10 JUMP JUMPDEST POP SWAP1 POP POP PUSH1 0x6 PUSH1 0x0 PUSH1 0x8 SLOAD DUP2 MSTORE PUSH1 0x20 ADD SWAP1 DUP2 MSTORE PUSH1 0x20 ADD PUSH1 0x0 KECCAK256 DUP2 PUSH1 0xA ADD PUSH1 0x0 DUP3 ADD DUP2 PUSH1 0x0 ADD SWAP1 DUP1 SLOAD PUSH2 0x5D6 SWAP1 PUSH2 0x14CA JUMP JUMPDEST PUSH2 0x5E1 SWAP3 SWAP2 SWAP1 PUSH2 0xB10 JUMP JUMPDEST POP PUSH1 0x1 DUP3 ADD DUP2 PUSH1 0x1 ADD PUSH1 0x0 DUP3 ADD DUP2 PUSH1 0x0 ADD SWAP1 DUP1 SLOAD PUSH2 0x5FE SWAP1 PUSH2 0x14CA JUMP JUMPDEST PUSH2 0x609 SWAP3 SWAP2 SWAP1 PUSH2 0xB10 JUMP JUMPDEST POP PUSH1 0x1 DUP3 ADD DUP2 PUSH1 0x1 ADD SWAP1 DUP1 SLOAD PUSH2 0x61E SWAP1 PUSH2 0x14CA JUMP JUMPDEST PUSH2 0x629 SWAP3 SWAP2 SWAP1 PUSH2 0xB10 JUMP JUMPDEST POP PUSH1 0x2 DUP3 ADD DUP2 PUSH1 0x2 ADD SWAP1 DUP1 SLOAD PUSH2 0x63E SWAP1 PUSH2 0x14CA JUMP JUMPDEST PUSH2 0x649 SWAP3 SWAP2 SWAP1 PUSH2 0xB10 JUMP JUMPDEST POP PUSH1 0x3 DUP3 ADD DUP2 PUSH1 0x3 ADD SWAP1 DUP1 SLOAD PUSH2 0x65E SWAP1 PUSH2 0x14CA JUMP JUMPDEST PUSH2 0x669 SWAP3 SWAP2 SWAP1 PUSH2 0xB10 JUMP JUMPDEST POP PUSH1 0x4 DUP3 ADD DUP2 PUSH1 0x4 ADD SWAP1 DUP1 SLOAD PUSH2 0x67E SWAP1 PUSH2 0x14CA JUMP JUMPDEST PUSH2 0x689 SWAP3 SWAP2 SWAP1 PUSH2 0xB10 JUMP JUMPDEST POP PUSH1 0x5 DUP3 ADD DUP2 PUSH1 0x5 ADD SWAP1 DUP1 SLOAD PUSH2 0x69E SWAP1 PUSH2 0x14CA JUMP JUMPDEST PUSH2 0x6A9 SWAP3 SWAP2 SWAP1 PUSH2 0xB10 JUMP JUMPDEST POP POP POP PUSH1 0x7 DUP3 ADD DUP2 PUSH1 0x7 ADD SWAP1 DUP1 SLOAD PUSH2 0x6C0 SWAP1 PUSH2 0x14CA JUMP JUMPDEST PUSH2 0x6CB SWAP3 SWAP2 SWAP1 PUSH2 0xB10 JUMP JUMPDEST POP SWAP1 POP POP DUP6 DUP2 PUSH1 0x12 ADD PUSH1 0x0 DUP3 ADD MLOAD DUP2 PUSH1 0x0 ADD SWAP1 DUP1 MLOAD SWAP1 PUSH1 0x20 ADD SWAP1 PUSH2 0x6F0 SWAP3 SWAP2 SWAP1 PUSH2 0xA8A JUMP JUMPDEST POP PUSH1 0x20 DUP3 ADD MLOAD DUP2 PUSH1 0x1 ADD SWAP1 DUP1 MLOAD SWAP1 PUSH1 0x20 ADD SWAP1 PUSH2 0x70D SWAP3 SWAP2 SWAP1 PUSH2 0xA8A JUMP JUMPDEST POP PUSH1 0x40 DUP3 ADD MLOAD DUP2 PUSH1 0x2 ADD PUSH1 0x0 DUP3 ADD MLOAD DUP2 PUSH1 0x0 ADD SWAP1 DUP1 MLOAD SWAP1 PUSH1 0x20 ADD SWAP1 PUSH2 0x733 SWAP3 SWAP2 SWAP1 PUSH2 0xA8A JUMP JUMPDEST POP PUSH1 0x20 DUP3 ADD MLOAD DUP2 PUSH1 0x1 ADD SWAP1 DUP1 MLOAD SWAP1 PUSH1 0x20 ADD SWAP1 PUSH2 0x750 SWAP3 SWAP2 SWAP1 PUSH2 0xA8A JUMP JUMPDEST POP PUSH1 0x40 DUP3 ADD MLOAD DUP2 PUSH1 0x2 ADD PUSH1 0x0 DUP3 ADD MLOAD DUP2 PUSH1 0x0 ADD PUSH1 0x0 PUSH2 0x100 EXP DUP2 SLOAD DUP2 PUSH1 0xFF MUL NOT AND SWAP1 DUP4 PUSH1 0xFF AND MUL OR SWAP1 SSTORE POP PUSH1 0x20 DUP3 ADD MLOAD DUP2 PUSH1 0x0 ADD PUSH1 0x1 PUSH2 0x100 EXP DUP2 SLOAD DUP2 PUSH1 0xFF MUL NOT AND SWAP1 DUP4 PUSH1 0xFF AND MUL OR SWAP1 SSTORE POP PUSH1 0x40 DUP3 ADD MLOAD DUP2 PUSH1 0x0 ADD PUSH1 0x2 PUSH2 0x100 EXP DUP2 SLOAD DUP2 PUSH2 0xFFFF MUL NOT AND SWAP1 DUP4 PUSH2 0xFFFF AND MUL OR SWAP1 SSTORE POP PUSH1 0x60 DUP3 ADD MLOAD DUP2 PUSH1 0x0 ADD PUSH1 0x4 PUSH2 0x100 EXP DUP2 SLOAD DUP2 PUSH1 0xFF MUL NOT AND SWAP1 DUP4 PUSH1 0xFF AND MUL OR SWAP1 SSTORE POP PUSH1 0x80 DUP3 ADD MLOAD DUP2 PUSH1 0x0 ADD PUSH1 0x5 PUSH2 0x100 EXP DUP2 SLOAD DUP2 PUSH1 0xFF MUL NOT AND SWAP1 DUP4 PUSH1 0xFF AND MUL OR SWAP1 SSTORE POP POP POP POP POP SWAP1 POP POP DUP5 DUP2 PUSH1 0x17 ADD PUSH1 0x0 PUSH2 0x100 EXP DUP2 SLOAD DUP2 PUSH16 0xFFFFFFFFFFFFFFFFFFFFFFFFFFFFFFFF MUL NOT AND SWAP1 DUP4 PUSH16 0xFFFFFFFFFFFFFFFFFFFFFFFFFFFFFFFF AND MUL OR SWAP1 SSTORE POP PUSH1 0x8 PUSH1 0x0 DUP2 SLOAD DUP1 SWAP3 SWAP2 SWAP1 PUSH2 0x856 SWAP1 PUSH2 0x1535 JUMP JUMPDEST SWAP2 SWAP1 POP SSTORE POP PUSH1 0x1 DUP1 PUSH1 0x8 SLOAD PUSH2 0x86B SWAP2 SWAP1 PUSH2 0x157E JUMP JUMPDEST PUSH1 0x40 MLOAD DUP1 PUSH1 0x40 ADD PUSH1 0x40 MSTORE DUP1 PUSH1 0x8 DUP2 MSTORE PUSH1 0x20 ADD PUSH32 0x5375636365737321000000000000000000000000000000000000000000000000 DUP2 MSTORE POP SWAP1 SWAP4 POP SWAP4 POP SWAP4 POP POP JUMPDEST SWAP6 POP SWAP6 POP SWAP6 SWAP3 POP POP POP JUMP JUMPDEST DUP1 PUSH1 0x0 SWAP1 DUP1 MLOAD SWAP1 PUSH1 0x20 ADD SWAP1 PUSH2 0x8CB SWAP3 SWAP2 SWAP1 PUSH2 0xA8A JUMP JUMPDEST POP POP JUMP JUMPDEST PUSH1 0x0 PUSH1 0x7 PUSH1 0x0 PUSH1 0x8 SLOAD DUP2 MSTORE PUSH1 0x20 ADD SWAP1 DUP2 MSTORE PUSH1 0x20 ADD PUSH1 0x0 KECCAK256 SWAP1 POP DUP6 DUP2 PUSH1 0x0 ADD PUSH1 0x0 PUSH2 0x100 EXP DUP2 SLOAD DUP2 PUSH1 0xFF MUL NOT AND SWAP1 DUP4 PUSH1 0xFF AND MUL OR SWAP1 SSTORE POP DUP5 DUP2 PUSH1 0x0 ADD PUSH1 0x1 PUSH2 0x100 EXP DUP2 SLOAD DUP2 PUSH1 0xFF MUL NOT AND SWAP1 DUP4 PUSH1 0xFF AND MUL OR SWAP1 SSTORE POP DUP4 DUP2 PUSH1 0x0 ADD PUSH1 0x2 PUSH2 0x100 EXP DUP2 SLOAD DUP2 PUSH2 0xFFFF MUL NOT AND SWAP1 DUP4 PUSH2 0xFFFF AND MUL OR SWAP1 SSTORE POP DUP3 DUP2 PUSH1 0x0 ADD PUSH1 0x4 PUSH2 0x100 EXP DUP2 SLOAD DUP2 PUSH1 0xFF MUL NOT AND SWAP1 DUP4 PUSH1 0xFF AND MUL OR SWAP1 SSTORE POP DUP2 DUP2 PUSH1 0x0 ADD PUSH1 0x5 PUSH2 0x100 EXP DUP2 SLOAD DUP2 PUSH1 0xFF MUL NOT AND SWAP1 DUP4 PUSH1 0xFF AND MUL OR SWAP1 SSTORE POP POP POP POP POP POP POP JUMP JUMPDEST PUSH1 0x0 PUSH1 0x5 PUSH1 0x0 PUSH1 0x8 SLOAD DUP2 MSTORE PUSH1 0x20 ADD SWAP1 DUP2 MSTORE PUSH1 0x20 ADD PUSH1 0x0 KECCAK256 SWAP1 POP DUP2 DUP2 PUSH1 0x7 ADD SWAP1 DUP1 MLOAD SWAP1 PUSH1 0x20 ADD SWAP1 PUSH2 0x9B4 SWAP3 SWAP2 SWAP1 PUSH2 0xA8A JUMP JUMPDEST POP DUP4 DUP2 PUSH1 0x0 ADD SWAP1 DUP1 MLOAD SWAP1 PUSH1 0x20 ADD SWAP1 PUSH2 0x9CD SWAP3 SWAP2 SWAP1 PUSH2 0xA8A JUMP JUMPDEST POP DUP3 DUP2 PUSH1 0x1 ADD PUSH1 0x0 DUP3 ADD MLOAD DUP2 PUSH1 0x0 ADD SWAP1 DUP1 MLOAD SWAP1 PUSH1 0x20 ADD SWAP1 PUSH2 0x9EF SWAP3 SWAP2 SWAP1 PUSH2 0xA8A JUMP JUMPDEST POP PUSH1 0x20 DUP3 ADD MLOAD DUP2 PUSH1 0x1 ADD SWAP1 DUP1 MLOAD SWAP1 PUSH1 0x20 ADD SWAP1 PUSH2 0xA0C SWAP3 SWAP2 SWAP1 PUSH2 0xA8A JUMP JUMPDEST POP PUSH1 0x40 DUP3 ADD MLOAD DUP2 PUSH1 0x2 ADD SWAP1 DUP1 MLOAD SWAP1 PUSH1 0x20 ADD SWAP1 PUSH2 0xA29 SWAP3 SWAP2 SWAP1 PUSH2 0xA8A JUMP JUMPDEST POP PUSH1 0x60 DUP3 ADD MLOAD DUP2 PUSH1 0x3 ADD SWAP1 DUP1 MLOAD SWAP1 PUSH1 0x20 ADD SWAP1 PUSH2 0xA46 SWAP3 SWAP2 SWAP1 PUSH2 0xA8A JUMP JUMPDEST POP PUSH1 0x80 DUP3 ADD MLOAD DUP2 PUSH1 0x4 ADD SWAP1 DUP1 MLOAD SWAP1 PUSH1 0x20 ADD SWAP1 PUSH2 0xA63 SWAP3 SWAP2 SWAP1 PUSH2 0xA8A JUMP JUMPDEST POP PUSH1 0xA0 DUP3 ADD MLOAD DUP2 PUSH1 0x5 ADD SWAP1 DUP1 MLOAD SWAP1 PUSH1 0x20 ADD SWAP1 PUSH2 0xA80 SWAP3 SWAP2 SWAP1 PUSH2 0xA8A JUMP JUMPDEST POP SWAP1 POP POP POP POP POP POP JUMP JUMPDEST DUP3 DUP1 SLOAD PUSH2 0xA96 SWAP1 PUSH2 0x14CA JUMP JUMPDEST SWAP1 PUSH1 0x0 MSTORE PUSH1 0x20 PUSH1 0x0 KECCAK256 SWAP1 PUSH1 0x1F ADD PUSH1 0x20 SWAP1 DIV DUP2 ADD SWAP3 DUP3 PUSH2 0xAB8 JUMPI PUSH1 0x0 DUP6 SSTORE PUSH2 0xAFF JUMP JUMPDEST DUP3 PUSH1 0x1F LT PUSH2 0xAD1 JUMPI DUP1 MLOAD PUSH1 0xFF NOT AND DUP4 DUP1 ADD OR DUP6 SSTORE PUSH2 0xAFF JUMP JUMPDEST DUP3 DUP1 ADD PUSH1 0x1 ADD DUP6 SSTORE DUP3 ISZERO PUSH2 0xAFF JUMPI SWAP2 DUP3 ADD JUMPDEST DUP3 DUP2 GT ISZERO PUSH2 0xAFE JUMPI DUP3 MLOAD DUP3 SSTORE SWAP2 PUSH1 0x20 ADD SWAP2 SWAP1 PUSH1 0x1 ADD SWAP1 PUSH2 0xAE3 JUMP JUMPDEST JUMPDEST POP SWAP1 POP PUSH2 0xB0C SWAP2 SWAP1 PUSH2 0xB9D JUMP JUMPDEST POP SWAP1 JUMP JUMPDEST DUP3 DUP1 SLOAD PUSH2 0xB1C SWAP1 PUSH2 0x14CA JUMP JUMPDEST SWAP1 PUSH1 0x0 MSTORE PUSH1 0x20 PUSH1 0x0 KECCAK256 SWAP1 PUSH1 0x1F ADD PUSH1 0x20 SWAP1 DIV DUP2 ADD SWAP3 DUP3 PUSH2 0xB3E JUMPI PUSH1 0x0 DUP6 SSTORE PUSH2 0xB8C JUMP JUMPDEST DUP3 PUSH1 0x1F LT PUSH2 0xB4F JUMPI DUP1 SLOAD DUP6 SSTORE PUSH2 0xB8C JUMP JUMPDEST DUP3 DUP1 ADD PUSH1 0x1 ADD DUP6 SSTORE DUP3 ISZERO PUSH2 0xB8C JUMPI PUSH1 0x0 MSTORE PUSH1 0x20 PUSH1 0x0 KECCAK256 SWAP2 PUSH1 0x1F ADD PUSH1 0x20 SWAP1 DIV DUP3 ADD JUMPDEST DUP3 DUP2 GT ISZERO PUSH2 0xB8B JUMPI DUP3 SLOAD DUP3 SSTORE SWAP2 PUSH1 0x1 ADD SWAP2 SWAP1 PUSH1 0x1 ADD SWAP1 PUSH2 0xB70 JUMP JUMPDEST JUMPDEST POP SWAP1 POP PUSH2 0xB99 SWAP2 SWAP1 PUSH2 0xB9D JUMP JUMPDEST POP SWAP1 JUMP JUMPDEST JUMPDEST DUP1 DUP3 GT ISZERO PUSH2 0xBB6 JUMPI PUSH1 0x0 DUP2 PUSH1 0x0 SWAP1 SSTORE POP PUSH1 0x1 ADD PUSH2 0xB9E JUMP JUMPDEST POP SWAP1 JUMP JUMPDEST PUSH1 0x0 DUP2 MLOAD SWAP1 POP SWAP2 SWAP1 POP JUMP JUMPDEST PUSH1 0x0 DUP3 DUP3 MSTORE PUSH1 0x20 DUP3 ADD SWAP1 POP SWAP3 SWAP2 POP POP JUMP JUMPDEST PUSH1 0x0 JUMPDEST DUP4 DUP2 LT ISZERO PUSH2 0xBF4 JUMPI DUP1 DUP3 ADD MLOAD DUP2 DUP5 ADD MSTORE PUSH1 0x20 DUP2 ADD SWAP1 POP PUSH2 0xBD9 JUMP JUMPDEST DUP4 DUP2 GT ISZERO PUSH2 0xC03 JUMPI PUSH1 0x0 DUP5 DUP5 ADD MSTORE JUMPDEST POP POP POP POP JUMP JUMPDEST PUSH1 0x0 PUSH1 0x1F NOT PUSH1 0x1F DUP4 ADD AND SWAP1 POP SWAP2 SWAP1 POP JUMP JUMPDEST PUSH1 0x0 PUSH2 0xC25 DUP3 PUSH2 0xBBA JUMP JUMPDEST PUSH2 0xC2F DUP2 DUP6 PUSH2 0xBC5 JUMP JUMPDEST SWAP4 POP PUSH2 0xC3F DUP2 DUP6 PUSH1 0x20 DUP7 ADD PUSH2 0xBD6 JUMP JUMPDEST PUSH2 0xC48 DUP2 PUSH2 0xC09 JUMP JUMPDEST DUP5 ADD SWAP2 POP POP SWAP3 SWAP2 POP POP JUMP JUMPDEST PUSH1 0x0 PUSH1 0x20 DUP3 ADD SWAP1 POP DUP2 DUP2 SUB PUSH1 0x0 DUP4 ADD MSTORE PUSH2 0xC6D DUP2 DUP5 PUSH2 0xC1A JUMP JUMPDEST SWAP1 POP SWAP3 SWAP2 POP POP JUMP JUMPDEST PUSH1 0x0 PUSH1 0x40 MLOAD SWAP1 POP SWAP1 JUMP JUMPDEST PUSH1 0x0 DUP1 REVERT JUMPDEST PUSH1 0x0 DUP1 REVERT JUMPDEST PUSH1 0x0 DUP1 REVERT JUMPDEST PUSH1 0x0 DUP1 REVERT JUMPDEST PUSH32 0x4E487B7100000000000000000000000000000000000000000000000000000000 PUSH1 0x0 MSTORE PUSH1 0x41 PUSH1 0x4 MSTORE PUSH1 0x24 PUSH1 0x0 REVERT JUMPDEST PUSH2 0xCCB DUP3 PUSH2 0xC09 JUMP JUMPDEST DUP2 ADD DUP2 DUP2 LT PUSH8 0xFFFFFFFFFFFFFFFF DUP3 GT OR ISZERO PUSH2 0xCEA JUMPI PUSH2 0xCE9 PUSH2 0xC93 JUMP JUMPDEST JUMPDEST DUP1 PUSH1 0x40 MSTORE POP POP POP JUMP JUMPDEST PUSH1 0x0 PUSH2 0xCFD PUSH2 0xC75 JUMP JUMPDEST SWAP1 POP PUSH2 0xD09 DUP3 DUP3 PUSH2 0xCC2 JUMP JUMPDEST SWAP2 SWAP1 POP JUMP JUMPDEST PUSH1 0x0 PUSH8 0xFFFFFFFFFFFFFFFF DUP3 GT ISZERO PUSH2 0xD29 JUMPI PUSH2 0xD28 PUSH2 0xC93 JUMP JUMPDEST JUMPDEST PUSH2 0xD32 DUP3 PUSH2 0xC09 JUMP JUMPDEST SWAP1 POP PUSH1 0x20 DUP2 ADD SWAP1 POP SWAP2 SWAP1 POP JUMP JUMPDEST DUP3 DUP2 DUP4 CALLDATACOPY PUSH1 0x0 DUP4 DUP4 ADD MSTORE POP POP POP JUMP JUMPDEST PUSH1 0x0 PUSH2 0xD61 PUSH2 0xD5C DUP5 PUSH2 0xD0E JUMP JUMPDEST PUSH2 0xCF3 JUMP JUMPDEST SWAP1 POP DUP3 DUP2 MSTORE PUSH1 0x20 DUP2 ADD DUP5 DUP5 DUP5 ADD GT ISZERO PUSH2 0xD7D JUMPI PUSH2 0xD7C PUSH2 0xC8E JUMP JUMPDEST JUMPDEST PUSH2 0xD88 DUP5 DUP3 DUP6 PUSH2 0xD3F JUMP JUMPDEST POP SWAP4 SWAP3 POP POP POP JUMP JUMPDEST PUSH1 0x0 DUP3 PUSH1 0x1F DUP4 ADD SLT PUSH2 0xDA5 JUMPI PUSH2 0xDA4 PUSH2 0xC89 JUMP JUMPDEST JUMPDEST DUP2 CALLDATALOAD PUSH2 0xDB5 DUP5 DUP3 PUSH1 0x20 DUP7 ADD PUSH2 0xD4E JUMP JUMPDEST SWAP2 POP POP SWAP3 SWAP2 POP POP JUMP JUMPDEST PUSH1 0x0 DUP1 REVERT JUMPDEST PUSH1 0x0 DUP1 REVERT JUMPDEST PUSH1 0x0 PUSH1 0xC0 DUP3 DUP5 SUB SLT ISZERO PUSH2 0xDDE JUMPI PUSH2 0xDDD PUSH2 0xDBE JUMP JUMPDEST JUMPDEST PUSH2 0xDE8 PUSH1 0xC0 PUSH2 0xCF3 JUMP JUMPDEST SWAP1 POP PUSH1 0x0 DUP3 ADD CALLDATALOAD PUSH8 0xFFFFFFFFFFFFFFFF DUP2 GT ISZERO PUSH2 0xE08 JUMPI PUSH2 0xE07 PUSH2 0xDC3 JUMP JUMPDEST JUMPDEST PUSH2 0xE14 DUP5 DUP3 DUP6 ADD PUSH2 0xD90 JUMP JUMPDEST PUSH1 0x0 DUP4 ADD MSTORE POP PUSH1 0x20 DUP3 ADD CALLDATALOAD PUSH8 0xFFFFFFFFFFFFFFFF DUP2 GT ISZERO PUSH2 0xE38 JUMPI PUSH2 0xE37 PUSH2 0xDC3 JUMP JUMPDEST JUMPDEST PUSH2 0xE44 DUP5 DUP3 DUP6 ADD PUSH2 0xD90 JUMP JUMPDEST PUSH1 0x20 DUP4 ADD MSTORE POP PUSH1 0x40 DUP3 ADD CALLDATALOAD PUSH8 0xFFFFFFFFFFFFFFFF DUP2 GT ISZERO PUSH2 0xE68 JUMPI PUSH2 0xE67 PUSH2 0xDC3 JUMP JUMPDEST JUMPDEST PUSH2 0xE74 DUP5 DUP3 DUP6 ADD PUSH2 0xD90 JUMP JUMPDEST PUSH1 0x40 DUP4 ADD MSTORE POP PUSH1 0x60 DUP3 ADD CALLDATALOAD PUSH8 0xFFFFFFFFFFFFFFFF DUP2 GT ISZERO PUSH2 0xE98 JUMPI PUSH2 0xE97 PUSH2 0xDC3 JUMP JUMPDEST JUMPDEST PUSH2 0xEA4 DUP5 DUP3 DUP6 ADD PUSH2 0xD90 JUMP JUMPDEST PUSH1 0x60 DUP4 ADD MSTORE POP PUSH1 0x80 DUP3 ADD CALLDATALOAD PUSH8 0xFFFFFFFFFFFFFFFF DUP2 GT ISZERO PUSH2 0xEC8 JUMPI PUSH2 0xEC7 PUSH2 0xDC3 JUMP JUMPDEST JUMPDEST PUSH2 0xED4 DUP5 DUP3 DUP6 ADD PUSH2 0xD90 JUMP JUMPDEST PUSH1 0x80 DUP4 ADD MSTORE POP PUSH1 0xA0 DUP3 ADD CALLDATALOAD PUSH8 0xFFFFFFFFFFFFFFFF DUP2 GT ISZERO PUSH2 0xEF8 JUMPI PUSH2 0xEF7 PUSH2 0xDC3 JUMP JUMPDEST JUMPDEST PUSH2 0xF04 DUP5 DUP3 DUP6 ADD PUSH2 0xD90 JUMP JUMPDEST PUSH1 0xA0 DUP4 ADD MSTORE POP SWAP3 SWAP2 POP POP JUMP JUMPDEST PUSH1 0x0 DUP1 PUSH1 0x0 PUSH1 0x60 DUP5 DUP7 SUB SLT ISZERO PUSH2 0xF29 JUMPI PUSH2 0xF28 PUSH2 0xC7F JUMP JUMPDEST JUMPDEST PUSH1 0x0 DUP5 ADD CALLDATALOAD PUSH8 0xFFFFFFFFFFFFFFFF DUP2 GT ISZERO PUSH2 0xF47 JUMPI PUSH2 0xF46 PUSH2 0xC84 JUMP JUMPDEST JUMPDEST PUSH2 0xF53 DUP7 DUP3 DUP8 ADD PUSH2 0xD90 JUMP JUMPDEST SWAP4 POP POP PUSH1 0x20 DUP5 ADD CALLDATALOAD PUSH8 0xFFFFFFFFFFFFFFFF DUP2 GT ISZERO PUSH2 0xF74 JUMPI PUSH2 0xF73 PUSH2 0xC84 JUMP JUMPDEST JUMPDEST PUSH2 0xF80 DUP7 DUP3 DUP8 ADD PUSH2 0xDC8 JUMP JUMPDEST SWAP3 POP POP PUSH1 0x40 DUP5 ADD CALLDATALOAD PUSH8 0xFFFFFFFFFFFFFFFF DUP2 GT ISZERO PUSH2 0xFA1 JUMPI PUSH2 0xFA0 PUSH2 0xC84 JUMP JUMPDEST JUMPDEST PUSH2 0xFAD DUP7 DUP3 DUP8 ADD PUSH2 0xD90 JUMP JUMPDEST SWAP2 POP POP SWAP3 POP SWAP3 POP SWAP3 JUMP JUMPDEST PUSH1 0x0 PUSH1 0xFF DUP3 AND SWAP1 POP SWAP2 SWAP1 POP JUMP JUMPDEST PUSH2 0xFCD DUP2 PUSH2 0xFB7 JUMP JUMPDEST DUP2 EQ PUSH2 0xFD8 JUMPI PUSH1 0x0 DUP1 REVERT JUMPDEST POP JUMP JUMPDEST PUSH1 0x0 DUP2 CALLDATALOAD SWAP1 POP PUSH2 0xFEA DUP2 PUSH2 0xFC4 JUMP JUMPDEST SWAP3 SWAP2 POP POP JUMP JUMPDEST PUSH1 0x0 PUSH2 0xFFFF DUP3 AND SWAP1 POP SWAP2 SWAP1 POP JUMP JUMPDEST PUSH2 0x1007 DUP2 PUSH2 0xFF0 JUMP JUMPDEST DUP2 EQ PUSH2 0x1012 JUMPI PUSH1 0x0 DUP1 REVERT JUMPDEST POP JUMP JUMPDEST PUSH1 0x0 DUP2 CALLDATALOAD SWAP1 POP PUSH2 0x1024 DUP2 PUSH2 0xFFE JUMP JUMPDEST SWAP3 SWAP2 POP POP JUMP JUMPDEST PUSH1 0x0 PUSH1 0xA0 DUP3 DUP5 SUB SLT ISZERO PUSH2 0x1040 JUMPI PUSH2 0x103F PUSH2 0xDBE JUMP JUMPDEST JUMPDEST PUSH2 0x104A PUSH1 0xA0 PUSH2 0xCF3 JUMP JUMPDEST SWAP1 POP PUSH1 0x0 PUSH2 0x105A DUP5 DUP3 DUP6 ADD PUSH2 0xFDB JUMP JUMPDEST PUSH1 0x0 DUP4 ADD MSTORE POP PUSH1 0x20 PUSH2 0x106E DUP5 DUP3 DUP6 ADD PUSH2 0xFDB JUMP JUMPDEST PUSH1 0x20 DUP4 ADD MSTORE POP PUSH1 0x40 PUSH2 0x1082 DUP5 DUP3 DUP6 ADD PUSH2 0x1015 JUMP JUMPDEST PUSH1 0x40 DUP4 ADD MSTORE POP PUSH1 0x60 PUSH2 0x1096 DUP5 DUP3 DUP6 ADD PUSH2 0xFDB JUMP JUMPDEST PUSH1 0x60 DUP4 ADD MSTORE POP PUSH1 0x80 PUSH2 0x10AA DUP5 DUP3 DUP6 ADD PUSH2 0xFDB JUMP JUMPDEST PUSH1 0x80 DUP4 ADD MSTORE POP SWAP3 SWAP2 POP POP JUMP JUMPDEST PUSH1 0x0 PUSH20 0xFFFFFFFFFFFFFFFFFFFFFFFFFFFFFFFFFFFFFFFF DUP3 AND SWAP1 POP SWAP2 SWAP1 POP JUMP JUMPDEST PUSH1 0x0 PUSH2 0x10E1 DUP3 PUSH2 0x10B6 JUMP JUMPDEST SWAP1 POP SWAP2 SWAP1 POP JUMP JUMPDEST PUSH2 0x10F1 DUP2 PUSH2 0x10D6 JUMP JUMPDEST DUP2 EQ PUSH2 0x10FC JUMPI PUSH1 0x0 DUP1 REVERT JUMPDEST POP JUMP JUMPDEST PUSH1 0x0 DUP2 CALLDATALOAD SWAP1 POP PUSH2 0x110E DUP2 PUSH2 0x10E8 JUMP JUMPDEST SWAP3 SWAP2 POP POP JUMP JUMPDEST PUSH1 0x0 PUSH1 0xE0 DUP3 DUP5 SUB SLT ISZERO PUSH2 0x112A JUMPI PUSH2 0x1129 PUSH2 0xDBE JUMP JUMPDEST JUMPDEST PUSH2 0x1134 PUSH1 0x60 PUSH2 0xCF3 JUMP JUMPDEST SWAP1 POP PUSH1 0x0 DUP3 ADD CALLDATALOAD PUSH8 0xFFFFFFFFFFFFFFFF DUP2 GT ISZERO PUSH2 0x1154 JUMPI PUSH2 0x1153 PUSH2 0xDC3 JUMP JUMPDEST JUMPDEST PUSH2 0x1160 DUP5 DUP3 DUP6 ADD PUSH2 0xD90 JUMP JUMPDEST PUSH1 0x0 DUP4 ADD MSTORE POP PUSH1 0x20 DUP3 ADD CALLDATALOAD PUSH8 0xFFFFFFFFFFFFFFFF DUP2 GT ISZERO PUSH2 0x1184 JUMPI PUSH2 0x1183 PUSH2 0xDC3 JUMP JUMPDEST JUMPDEST PUSH2 0x1190 DUP5 DUP3 DUP6 ADD PUSH2 0xD90 JUMP JUMPDEST PUSH1 0x20 DUP4 ADD MSTORE POP PUSH1 0x40 PUSH2 0x11A4 DUP5 DUP3 DUP6 ADD PUSH2 0x102A JUMP JUMPDEST PUSH1 0x40 DUP4 ADD MSTORE POP SWAP3 SWAP2 POP POP JUMP JUMPDEST PUSH1 0x0 PUSH1 0x60 DUP3 DUP5 SUB SLT ISZERO PUSH2 0x11C6 JUMPI PUSH2 0x11C5 PUSH2 0xDBE JUMP JUMPDEST JUMPDEST PUSH2 0x11D0 PUSH1 0x60 PUSH2 0xCF3 JUMP JUMPDEST SWAP1 POP PUSH1 0x0 DUP3 ADD CALLDATALOAD PUSH8 0xFFFFFFFFFFFFFFFF DUP2 GT ISZERO PUSH2 0x11F0 JUMPI PUSH2 0x11EF PUSH2 0xDC3 JUMP JUMPDEST JUMPDEST PUSH2 0x11FC DUP5 DUP3 DUP6 ADD PUSH2 0xD90 JUMP JUMPDEST PUSH1 0x0 DUP4 ADD MSTORE POP PUSH1 0x20 DUP3 ADD CALLDATALOAD PUSH8 0xFFFFFFFFFFFFFFFF DUP2 GT ISZERO PUSH2 0x1220 JUMPI PUSH2 0x121F PUSH2 0xDC3 JUMP JUMPDEST JUMPDEST PUSH2 0x122C DUP5 DUP3 DUP6 ADD PUSH2 0xD90 JUMP JUMPDEST PUSH1 0x20 DUP4 ADD MSTORE POP PUSH1 0x40 DUP3 ADD CALLDATALOAD PUSH8 0xFFFFFFFFFFFFFFFF DUP2 GT ISZERO PUSH2 0x1250 JUMPI PUSH2 0x124F PUSH2 0xDC3 JUMP JUMPDEST JUMPDEST PUSH2 0x125C DUP5 DUP3 DUP6 ADD PUSH2 0x1114 JUMP JUMPDEST PUSH1 0x40 DUP4 ADD MSTORE POP SWAP3 SWAP2 POP POP JUMP JUMPDEST PUSH1 0x0 PUSH16 0xFFFFFFFFFFFFFFFFFFFFFFFFFFFFFFFF DUP3 AND SWAP1 POP SWAP2 SWAP1 POP JUMP JUMPDEST PUSH2 0x128D DUP2 PUSH2 0x1268 JUMP JUMPDEST DUP2 EQ PUSH2 0x1298 JUMPI PUSH1 0x0 DUP1 REVERT JUMPDEST POP JUMP JUMPDEST PUSH1 0x0 DUP2 CALLDATALOAD SWAP1 POP PUSH2 0x12AA DUP2 PUSH2 0x1284 JUMP JUMPDEST SWAP3 SWAP2 POP POP JUMP JUMPDEST PUSH1 0x0 DUP1 PUSH1 0x0 DUP1 PUSH1 0x0 PUSH2 0x120 DUP7 DUP9 SUB SLT ISZERO PUSH2 0x12CD JUMPI PUSH2 0x12CC PUSH2 0xC7F JUMP JUMPDEST JUMPDEST PUSH1 0x0 DUP7 ADD CALLDATALOAD PUSH8 0xFFFFFFFFFFFFFFFF DUP2 GT ISZERO PUSH2 0x12EB JUMPI PUSH2 0x12EA PUSH2 0xC84 JUMP JUMPDEST JUMPDEST PUSH2 0x12F7 DUP9 DUP3 DUP10 ADD PUSH2 0xD90 JUMP JUMPDEST SWAP6 POP POP PUSH1 0x20 PUSH2 0x1308 DUP9 DUP3 DUP10 ADD PUSH2 0x102A JUMP JUMPDEST SWAP5 POP POP PUSH1 0xC0 PUSH2 0x1319 DUP9 DUP3 DUP10 ADD PUSH2 0x10FF JUMP JUMPDEST SWAP4 POP POP PUSH1 0xE0 DUP7 ADD CALLDATALOAD PUSH8 0xFFFFFFFFFFFFFFFF DUP2 GT ISZERO PUSH2 0x133A JUMPI PUSH2 0x1339 PUSH2 0xC84 JUMP JUMPDEST JUMPDEST PUSH2 0x1346 DUP9 DUP3 DUP10 ADD PUSH2 0x11B0 JUMP JUMPDEST SWAP3 POP POP PUSH2 0x100 PUSH2 0x1358 DUP9 DUP3 DUP10 ADD PUSH2 0x129B JUMP JUMPDEST SWAP2 POP POP SWAP3 SWAP6 POP SWAP3 SWAP6 SWAP1 SWAP4 POP JUMP JUMPDEST PUSH1 0x0 DUP2 ISZERO ISZERO SWAP1 POP SWAP2 SWAP1 POP JUMP JUMPDEST PUSH2 0x137A DUP2 PUSH2 0x1365 JUMP JUMPDEST DUP3 MSTORE POP POP JUMP JUMPDEST PUSH1 0x0 DUP2 SWAP1 POP SWAP2 SWAP1 POP JUMP JUMPDEST PUSH2 0x1393 DUP2 PUSH2 0x1380 JUMP JUMPDEST DUP3 MSTORE POP POP JUMP JUMPDEST PUSH1 0x0 PUSH1 0x60 DUP3 ADD SWAP1 POP PUSH2 0x13AE PUSH1 0x0 DUP4 ADD DUP7 PUSH2 0x1371 JUMP JUMPDEST DUP2 DUP2 SUB PUSH1 0x20 DUP4 ADD MSTORE PUSH2 0x13C0 DUP2 DUP6 PUSH2 0xC1A JUMP JUMPDEST SWAP1 POP PUSH2 0x13CF PUSH1 0x40 DUP4 ADD DUP5 PUSH2 0x138A JUMP JUMPDEST SWAP5 SWAP4 POP POP POP POP JUMP JUMPDEST PUSH1 0x0 PUSH1 0x20 DUP3 DUP5 SUB SLT ISZERO PUSH2 0x13ED JUMPI PUSH2 0x13EC PUSH2 0xC7F JUMP JUMPDEST JUMPDEST PUSH1 0x0 DUP3 ADD CALLDATALOAD PUSH8 0xFFFFFFFFFFFFFFFF DUP2 GT ISZERO PUSH2 0x140B JUMPI PUSH2 0x140A PUSH2 0xC84 JUMP JUMPDEST JUMPDEST PUSH2 0x1417 DUP5 DUP3 DUP6 ADD PUSH2 0xD90 JUMP JUMPDEST SWAP2 POP POP SWAP3 SWAP2 POP POP JUMP JUMPDEST PUSH1 0x0 DUP1 PUSH1 0x0 DUP1 PUSH1 0x0 PUSH1 0xA0 DUP7 DUP9 SUB SLT ISZERO PUSH2 0x143C JUMPI PUSH2 0x143B PUSH2 0xC7F JUMP JUMPDEST JUMPDEST PUSH1 0x0 PUSH2 0x144A DUP9 DUP3 DUP10 ADD PUSH2 0xFDB JUMP JUMPDEST SWAP6 POP POP PUSH1 0x20 PUSH2 0x145B DUP9 DUP3 DUP10 ADD PUSH2 0xFDB JUMP JUMPDEST SWAP5 POP POP PUSH1 0x40 PUSH2 0x146C DUP9 DUP3 DUP10 ADD PUSH2 0x1015 JUMP JUMPDEST SWAP4 POP POP PUSH1 0x60 PUSH2 0x147D DUP9 DUP3 DUP10 ADD PUSH2 0xFDB JUMP JUMPDEST SWAP3 POP POP PUSH1 0x80 PUSH2 0x148E DUP9 DUP3 DUP10 ADD PUSH2 0xFDB JUMP JUMPDEST SWAP2 POP POP SWAP3 SWAP6 POP SWAP3 SWAP6 SWAP1 SWAP4 POP JUMP JUMPDEST PUSH32 0x4E487B7100000000000000000000000000000000000000000000000000000000 PUSH1 0x0 MSTORE PUSH1 0x22 PUSH1 0x4 MSTORE PUSH1 0x24 PUSH1 0x0 REVERT JUMPDEST PUSH1 0x0 PUSH1 0x2 DUP3 DIV SWAP1 POP PUSH1 0x1 DUP3 AND DUP1 PUSH2 0x14E2 JUMPI PUSH1 0x7F DUP3 AND SWAP2 POP JUMPDEST PUSH1 0x20 DUP3 LT DUP2 EQ ISZERO PUSH2 0x14F6 JUMPI PUSH2 0x14F5 PUSH2 0x149B JUMP JUMPDEST JUMPDEST POP SWAP2 SWAP1 POP JUMP JUMPDEST PUSH32 0x4E487B7100000000000000000000000000000000000000000000000000000000 PUSH1 0x0 MSTORE PUSH1 0x11 PUSH1 0x4 MSTORE PUSH1 0x24 PUSH1 0x0 REVERT JUMPDEST PUSH1 0x0 DUP2 SWAP1 POP SWAP2 SWAP1 POP JUMP JUMPDEST PUSH1 0x0 PUSH2 0x1540 DUP3 PUSH2 0x152B JUMP JUMPDEST SWAP2 POP PUSH32 0xFFFFFFFFFFFFFFFFFFFFFFFFFFFFFFFFFFFFFFFFFFFFFFFFFFFFFFFFFFFFFFFF DUP3 EQ ISZERO PUSH2 0x1573 JUMPI PUSH2 0x1572 PUSH2 0x14FC JUMP JUMPDEST JUMPDEST PUSH1 0x1 DUP3 ADD SWAP1 POP SWAP2 SWAP1 POP JUMP JUMPDEST PUSH1 0x0 PUSH2 0x1589 DUP3 PUSH2 0x152B JUMP JUMPDEST SWAP2 POP PUSH2 0x1594 DUP4 PUSH2 0x152B JUMP JUMPDEST SWAP3 POP DUP3 DUP3 LT ISZERO PUSH2 0x15A7 JUMPI PUSH2 0x15A6 PUSH2 0x14FC JUMP JUMPDEST JUMPDEST DUP3 DUP3 SUB SWAP1 POP SWAP3 SWAP2 POP POP JUMP INVALID 0x49 PUSH15 0x666F726D656420707269636520646F PUSH6 0x73206E6F7420 PUSH4 0x6F727265 PUSH20 0x706F6E6420746F2073656E7420696E2074686520 PUSH14 0x657373616765A264697066735822 SLT KECCAK256 CREATE NOT PUSH18 0x9CA825C44FD7D5B4C40D69482C8A7595D5AC EQ 0xB2 CALL 0xEB POP DUP2 BLOCKHASH MSTORE 0xDA SWAP5 SWAP16 PUSH5 0x736F6C6343 STOP ADDMOD MULMOD STOP CALLER "
        },
        "methodIdentifiers": {
          "addSale(string,(uint8,uint8,uint16,uint8,uint8),address,(string,string,(string,string,(uint8,uint8,uint16,uint8,uint8))),uint128)": "517ca9f4",
          "changeName(string)": "5353a2d8",
          "getName()": "17d7de7c",
          "setCompanyInfo(string,(string,string,string,string,string,string),string)": "409dd707",
          "setDate(uint8,uint8,uint16,uint8,uint8)": "70c64351",
          "setOwnerInfo(string,(string,string,string,string,string,string),string)": "9747a200"
        }
      }
    }
  }
}