{
  "contracts/ownerToCompany.sol": {
    "OwnerToCompany": {
      "abi": [
        {
          "inputs": [
            {
              "internalType": "string",
              "name": "type_of_sale",
              "type": "string"
            },
            {
              "components": [
                {
                  "internalType": "uint8",
                  "name": "day",
                  "type": "uint8"
                },
                {
                  "internalType": "uint8",
                  "name": "month",
                  "type": "uint8"
                },
                {
                  "internalType": "uint16",
                  "name": "year",
                  "type": "uint16"
                },
                {
                  "internalType": "uint8",
                  "name": "hour",
                  "type": "uint8"
                },
                {
                  "internalType": "uint8",
                  "name": "minute",
                  "type": "uint8"
                }
              ],
              "internalType": "struct OwnerToCompany.Date",
              "name": "date",
              "type": "tuple"
            },
            {
              "internalType": "address payable",
              "name": "owner_info",
              "type": "address"
            },
            {
              "components": [
                {
                  "internalType": "string",
                  "name": "uid",
                  "type": "string"
                },
                {
                  "internalType": "string",
                  "name": "name",
                  "type": "string"
                },
                {
                  "components": [
                    {
                      "internalType": "string",
                      "name": "model",
                      "type": "string"
                    },
                    {
                      "internalType": "string",
                      "name": "color",
                      "type": "string"
                    },
                    {
                      "components": [
                        {
                          "internalType": "uint8",
                          "name": "day",
                          "type": "uint8"
                        },
                        {
                          "internalType": "uint8",
                          "name": "month",
                          "type": "uint8"
                        },
                        {
                          "internalType": "uint16",
                          "name": "year",
                          "type": "uint16"
                        },
                        {
                          "internalType": "uint8",
                          "name": "hour",
                          "type": "uint8"
                        },
                        {
                          "internalType": "uint8",
                          "name": "minute",
                          "type": "uint8"
                        }
                      ],
                      "internalType": "struct OwnerToCompany.Date",
                      "name": "creation",
                      "type": "tuple"
                    }
                  ],
                  "internalType": "struct OwnerToCompany.CarPartDescription",
                  "name": "description",
                  "type": "tuple"
                }
              ],
              "internalType": "struct OwnerToCompany.CarPartInfo",
              "name": "carPart_info",
              "type": "tuple"
            },
            {
              "internalType": "uint128",
              "name": "price",
              "type": "uint128"
            }
          ],
          "name": "addSale",
          "outputs": [
            {
              "internalType": "bool",
              "name": "",
              "type": "bool"
            },
            {
              "internalType": "string",
              "name": "",
              "type": "string"
            },
            {
              "internalType": "int256",
              "name": "",
              "type": "int256"
            }
          ],
          "stateMutability": "payable",
          "type": "function"
        },
        {
          "inputs": [
            {
              "internalType": "string",
              "name": "_name",
              "type": "string"
            },
            {
              "components": [
                {
                  "internalType": "string",
                  "name": "street",
                  "type": "string"
                },
                {
                  "internalType": "string",
                  "name": "number",
                  "type": "string"
                },
                {
                  "internalType": "string",
                  "name": "addr_details",
                  "type": "string"
                },
                {
                  "internalType": "string",
                  "name": "zip_code",
                  "type": "string"
                },
                {
                  "internalType": "string",
                  "name": "city",
                  "type": "string"
                },
                {
                  "internalType": "string",
                  "name": "state",
                  "type": "string"
                }
              ],
              "internalType": "struct OwnerToCompany.Address",
              "name": "_address",
              "type": "tuple"
            },
            {
              "internalType": "string",
              "name": "_id",
              "type": "string"
            }
          ],
          "name": "setCompanyInfo",
          "outputs": [],
          "stateMutability": "nonpayable",
          "type": "function"
        },
        {
          "inputs": [
            {
              "internalType": "uint8",
              "name": "day",
              "type": "uint8"
            },
            {
              "internalType": "uint8",
              "name": "month",
              "type": "uint8"
            },
            {
              "internalType": "uint16",
              "name": "year",
              "type": "uint16"
            },
            {
              "internalType": "uint8",
              "name": "hour",
              "type": "uint8"
            },
            {
              "internalType": "uint8",
              "name": "minute",
              "type": "uint8"
            }
          ],
          "name": "setDate",
          "outputs": [],
          "stateMutability": "nonpayable",
          "type": "function"
        },
        {
          "inputs": [
            {
              "internalType": "string",
              "name": "_name",
              "type": "string"
            },
            {
              "components": [
                {
                  "internalType": "string",
                  "name": "street",
                  "type": "string"
                },
                {
                  "internalType": "string",
                  "name": "number",
                  "type": "string"
                },
                {
                  "internalType": "string",
                  "name": "addr_details",
                  "type": "string"
                },
                {
                  "internalType": "string",
                  "name": "zip_code",
                  "type": "string"
                },
                {
                  "internalType": "string",
                  "name": "city",
                  "type": "string"
                },
                {
                  "internalType": "string",
                  "name": "state",
                  "type": "string"
                }
              ],
              "internalType": "struct OwnerToCompany.Address",
              "name": "_address",
              "type": "tuple"
            },
            {
              "internalType": "string",
              "name": "_id",
              "type": "string"
            }
          ],
          "name": "setOwnerInfo",
          "outputs": [],
          "stateMutability": "nonpayable",
          "type": "function"
        }
      ],
      "evm": {
        "bytecode": {
          "linkReferences": {},
          "object": "608060405260405180606001604052806040518060400160405280600681526020017f4e4f524d414c000000000000000000000000000000000000000000000000000081525081526020016040518060400160405280600581526020017f545241444500000000000000000000000000000000000000000000000000000081525081526020016040518060400160405280600481526020017f47494654000000000000000000000000000000000000000000000000000000008152508152506000906003620000d0929190620000ea565b506000600755348015620000e357600080fd5b50620002c7565b826003810192821562000131579160200282015b82811115620001305782518290805190602001906200011f92919062000144565b5091602001919060010190620000fe565b5b509050620001409190620001d5565b5090565b828054620001529062000291565b90600052602060002090601f016020900481019282620001765760008555620001c2565b82601f106200019157805160ff1916838001178555620001c2565b82800160010185558215620001c2579182015b82811115620001c1578251825591602001919060010190620001a4565b5b509050620001d19190620001fd565b5090565b5b80821115620001f95760008181620001ef91906200021c565b50600101620001d6565b5090565b5b8082111562000218576000816000905550600101620001fe565b5090565b5080546200022a9062000291565b6000825580601f106200023e57506200025f565b601f0160209004906000526020600020908101906200025e9190620001fd565b5b50565b7f4e487b7100000000000000000000000000000000000000000000000000000000600052602260045260246000fd5b60006002820490506001821680620002aa57607f821691505b60208210811415620002c157620002c062000262565b5b50919050565b6114a080620002d76000396000f3fe60806040526004361061003f5760003560e01c8063409dd70714610044578063517ca9f41461006d57806370c643511461009f5780639747a200146100c8575b600080fd5b34801561005057600080fd5b5061006b60048036038101906100669190610d50565b6100f1565b005b610087600480360381019061008291906110f0565b6101f8565b60405161009693929190611261565b60405180910390f35b3480156100ab57600080fd5b506100c660048036038101906100c1919061129f565b6107b9565b005b3480156100d457600080fd5b506100ef60048036038101906100ea9190610d50565b61086d565b005b6000600560006007548152602001908152602001600020905081816007019080519060200190610122929190610974565b508381600001908051906020019061013b929190610974565b508281600101600082015181600001908051906020019061015d929190610974565b50602082015181600101908051906020019061017a929190610974565b506040820151816002019080519060200190610197929190610974565b5060608201518160030190805190602001906101b4929190610974565b5060808201518160040190805190602001906101d1929190610974565b5060a08201518160050190805190602001906101ee929190610974565b5090505050505050565b600060606000836fffffffffffffffffffffffffffffffff1634146102a6578573ffffffffffffffffffffffffffffffffffffffff166108fc349081150290604051600060405180830381858888f1935050505015801561025d573d6000803e3d6000fd5b5060007fffffffffffffffffffffffffffffffffffffffffffffffffffffffffffffffff60405180606001604052806039815260200161143260399139909250925092506107ae565b60006003600060075481526020019081526020016000209050888160000190805190602001906102d7929190610974565b50878160010160008201518160000160006101000a81548160ff021916908360ff16021790555060208201518160000160016101000a81548160ff021916908360ff16021790555060408201518160000160026101000a81548161ffff021916908361ffff16021790555060608201518160000160046101000a81548160ff021916908360ff16021790555060808201518160000160056101000a81548160ff021916908360ff1602179055509050506004600060075481526020019081526020016000208160020160008201816000019080546103b490611349565b6103bf9291906109fa565b50600182018160010160008201816000019080546103dc90611349565b6103e79291906109fa565b5060018201816001019080546103fc90611349565b6104079291906109fa565b50600282018160020190805461041c90611349565b6104279291906109fa565b50600382018160030190805461043c90611349565b6104479291906109fa565b50600482018160040190805461045c90611349565b6104679291906109fa565b50600582018160050190805461047c90611349565b6104879291906109fa565b505050600782018160070190805461049e90611349565b6104a99291906109fa565b5090505060056000600754815260200190815260200160002081600a0160008201816000019080546104da90611349565b6104e59291906109fa565b506001820181600101600082018160000190805461050290611349565b61050d9291906109fa565b50600182018160010190805461052290611349565b61052d9291906109fa565b50600282018160020190805461054290611349565b61054d9291906109fa565b50600382018160030190805461056290611349565b61056d9291906109fa565b50600482018160040190805461058290611349565b61058d9291906109fa565b5060058201816005019080546105a290611349565b6105ad9291906109fa565b50505060078201816007019080546105c490611349565b6105cf9291906109fa565b50905050858160120160008201518160000190805190602001906105f4929190610974565b506020820151816001019080519060200190610611929190610974565b506040820151816002016000820151816000019080519060200190610637929190610974565b506020820151816001019080519060200190610654929190610974565b5060408201518160020160008201518160000160006101000a81548160ff021916908360ff16021790555060208201518160000160016101000a81548160ff021916908360ff16021790555060408201518160000160026101000a81548161ffff021916908361ffff16021790555060608201518160000160046101000a81548160ff021916908360ff16021790555060808201518160000160056101000a81548160ff021916908360ff16021790555050505050905050848160170160006101000a8154816fffffffffffffffffffffffffffffffff02191690836fffffffffffffffffffffffffffffffff1602179055506007600081548092919061075a906113b4565b919050555060018060075461076f91906113fd565b6040518060400160405280600881526020017f537563636573732100000000000000000000000000000000000000000000000081525090935093509350505b955095509592505050565b60006006600060075481526020019081526020016000209050858160000160006101000a81548160ff021916908360ff160217905550848160000160016101000a81548160ff021916908360ff160217905550838160000160026101000a81548161ffff021916908361ffff160217905550828160000160046101000a81548160ff021916908360ff160217905550818160000160056101000a81548160ff021916908360ff160217905550505050505050565b600060046000600754815260200190815260200160002090508181600701908051906020019061089e929190610974565b50838160000190805190602001906108b7929190610974565b50828160010160008201518160000190805190602001906108d9929190610974565b5060208201518160010190805190602001906108f6929190610974565b506040820151816002019080519060200190610913929190610974565b506060820151816003019080519060200190610930929190610974565b50608082015181600401908051906020019061094d929190610974565b5060a082015181600501908051906020019061096a929190610974565b5090505050505050565b82805461098090611349565b90600052602060002090601f0160209004810192826109a257600085556109e9565b82601f106109bb57805160ff19168380011785556109e9565b828001600101855582156109e9579182015b828111156109e85782518255916020019190600101906109cd565b5b5090506109f69190610a87565b5090565b828054610a0690611349565b90600052602060002090601f016020900481019282610a285760008555610a76565b82601f10610a395780548555610a76565b82800160010185558215610a7657600052602060002091601f016020900482015b82811115610a75578254825591600101919060010190610a5a565b5b509050610a839190610a87565b5090565b5b80821115610aa0576000816000905550600101610a88565b5090565b6000604051905090565b600080fd5b600080fd5b600080fd5b600080fd5b6000601f19601f8301169050919050565b7f4e487b7100000000000000000000000000000000000000000000000000000000600052604160045260246000fd5b610b0b82610ac2565b810181811067ffffffffffffffff82111715610b2a57610b29610ad3565b5b80604052505050565b6000610b3d610aa4565b9050610b498282610b02565b919050565b600067ffffffffffffffff821115610b6957610b68610ad3565b5b610b7282610ac2565b9050602081019050919050565b82818337600083830152505050565b6000610ba1610b9c84610b4e565b610b33565b905082815260208101848484011115610bbd57610bbc610abd565b5b610bc8848285610b7f565b509392505050565b600082601f830112610be557610be4610ab8565b5b8135610bf5848260208601610b8e565b91505092915050565b600080fd5b600080fd5b600060c08284031215610c1e57610c1d610bfe565b5b610c2860c0610b33565b9050600082013567ffffffffffffffff811115610c4857610c47610c03565b5b610c5484828501610bd0565b600083015250602082013567ffffffffffffffff811115610c7857610c77610c03565b5b610c8484828501610bd0565b602083015250604082013567ffffffffffffffff811115610ca857610ca7610c03565b5b610cb484828501610bd0565b604083015250606082013567ffffffffffffffff811115610cd857610cd7610c03565b5b610ce484828501610bd0565b606083015250608082013567ffffffffffffffff811115610d0857610d07610c03565b5b610d1484828501610bd0565b60808301525060a082013567ffffffffffffffff811115610d3857610d37610c03565b5b610d4484828501610bd0565b60a08301525092915050565b600080600060608486031215610d6957610d68610aae565b5b600084013567ffffffffffffffff811115610d8757610d86610ab3565b5b610d9386828701610bd0565b935050602084013567ffffffffffffffff811115610db457610db3610ab3565b5b610dc086828701610c08565b925050604084013567ffffffffffffffff811115610de157610de0610ab3565b5b610ded86828701610bd0565b9150509250925092565b600060ff82169050919050565b610e0d81610df7565b8114610e1857600080fd5b50565b600081359050610e2a81610e04565b92915050565b600061ffff82169050919050565b610e4781610e30565b8114610e5257600080fd5b50565b600081359050610e6481610e3e565b92915050565b600060a08284031215610e8057610e7f610bfe565b5b610e8a60a0610b33565b90506000610e9a84828501610e1b565b6000830152506020610eae84828501610e1b565b6020830152506040610ec284828501610e55565b6040830152506060610ed684828501610e1b565b6060830152506080610eea84828501610e1b565b60808301525092915050565b600073ffffffffffffffffffffffffffffffffffffffff82169050919050565b6000610f2182610ef6565b9050919050565b610f3181610f16565b8114610f3c57600080fd5b50565b600081359050610f4e81610f28565b92915050565b600060e08284031215610f6a57610f69610bfe565b5b610f746060610b33565b9050600082013567ffffffffffffffff811115610f9457610f93610c03565b5b610fa084828501610bd0565b600083015250602082013567ffffffffffffffff811115610fc457610fc3610c03565b5b610fd084828501610bd0565b6020830152506040610fe484828501610e6a565b60408301525092915050565b60006060828403121561100657611005610bfe565b5b6110106060610b33565b9050600082013567ffffffffffffffff8111156110305761102f610c03565b5b61103c84828501610bd0565b600083015250602082013567ffffffffffffffff8111156110605761105f610c03565b5b61106c84828501610bd0565b602083015250604082013567ffffffffffffffff8111156110905761108f610c03565b5b61109c84828501610f54565b60408301525092915050565b60006fffffffffffffffffffffffffffffffff82169050919050565b6110cd816110a8565b81146110d857600080fd5b50565b6000813590506110ea816110c4565b92915050565b6000806000806000610120868803121561110d5761110c610aae565b5b600086013567ffffffffffffffff81111561112b5761112a610ab3565b5b61113788828901610bd0565b955050602061114888828901610e6a565b94505060c061115988828901610f3f565b93505060e086013567ffffffffffffffff81111561117a57611179610ab3565b5b61118688828901610ff0565b925050610100611198888289016110db565b9150509295509295909350565b60008115159050919050565b6111ba816111a5565b82525050565b600081519050919050565b600082825260208201905092915050565b60005b838110156111fa5780820151818401526020810190506111df565b83811115611209576000848401525b50505050565b600061121a826111c0565b61122481856111cb565b93506112348185602086016111dc565b61123d81610ac2565b840191505092915050565b6000819050919050565b61125b81611248565b82525050565b600060608201905061127660008301866111b1565b8181036020830152611288818561120f565b90506112976040830184611252565b949350505050565b600080600080600060a086880312156112bb576112ba610aae565b5b60006112c988828901610e1b565b95505060206112da88828901610e1b565b94505060406112eb88828901610e55565b93505060606112fc88828901610e1b565b925050608061130d88828901610e1b565b9150509295509295909350565b7f4e487b7100000000000000000000000000000000000000000000000000000000600052602260045260246000fd5b6000600282049050600182168061136157607f821691505b602082108114156113755761137461131a565b5b50919050565b7f4e487b7100000000000000000000000000000000000000000000000000000000600052601160045260246000fd5b6000819050919050565b60006113bf826113aa565b91507fffffffffffffffffffffffffffffffffffffffffffffffffffffffffffffffff8214156113f2576113f161137b565b5b600182019050919050565b6000611408826113aa565b9150611413836113aa565b9250828210156114265761142561137b565b5b82820390509291505056fe496e666f726d656420707269636520646f6573206e6f7420636f72726573706f6e6420746f2073656e7420696e20746865206d657373616765a2646970667358221220ad3d07223b5b4ab52c0235a2ef6c1e0aa137bc2922c6527093e9f9a27a13f80264736f6c63430008090033",
          "opcodes": "PUSH1 0x80 PUSH1 0x40 MSTORE PUSH1 0x40 MLOAD DUP1 PUSH1 0x60 ADD PUSH1 0x40 MSTORE DUP1 PUSH1 0x40 MLOAD DUP1 PUSH1 0x40 ADD PUSH1 0x40 MSTORE DUP1 PUSH1 0x6 DUP2 MSTORE PUSH1 0x20 ADD PUSH32 0x4E4F524D414C0000000000000000000000000000000000000000000000000000 DUP2 MSTORE POP DUP2 MSTORE PUSH1 0x20 ADD PUSH1 0x40 MLOAD DUP1 PUSH1 0x40 ADD PUSH1 0x40 MSTORE DUP1 PUSH1 0x5 DUP2 MSTORE PUSH1 0x20 ADD PUSH32 0x5452414445000000000000000000000000000000000000000000000000000000 DUP2 MSTORE POP DUP2 MSTORE PUSH1 0x20 ADD PUSH1 0x40 MLOAD DUP1 PUSH1 0x40 ADD PUSH1 0x40 MSTORE DUP1 PUSH1 0x4 DUP2 MSTORE PUSH1 0x20 ADD PUSH32 0x4749465400000000000000000000000000000000000000000000000000000000 DUP2 MSTORE POP DUP2 MSTORE POP PUSH1 0x0 SWAP1 PUSH1 0x3 PUSH3 0xD0 SWAP3 SWAP2 SWAP1 PUSH3 0xEA JUMP JUMPDEST POP PUSH1 0x0 PUSH1 0x7 SSTORE CALLVALUE DUP1 ISZERO PUSH3 0xE3 JUMPI PUSH1 0x0 DUP1 REVERT JUMPDEST POP PUSH3 0x2C7 JUMP JUMPDEST DUP3 PUSH1 0x3 DUP2 ADD SWAP3 DUP3 ISZERO PUSH3 0x131 JUMPI SWAP2 PUSH1 0x20 MUL DUP3 ADD JUMPDEST DUP3 DUP2 GT ISZERO PUSH3 0x130 JUMPI DUP3 MLOAD DUP3 SWAP1 DUP1 MLOAD SWAP1 PUSH1 0x20 ADD SWAP1 PUSH3 0x11F SWAP3 SWAP2 SWAP1 PUSH3 0x144 JUMP JUMPDEST POP SWAP2 PUSH1 0x20 ADD SWAP2 SWAP1 PUSH1 0x1 ADD SWAP1 PUSH3 0xFE JUMP JUMPDEST JUMPDEST POP SWAP1 POP PUSH3 0x140 SWAP2 SWAP1 PUSH3 0x1D5 JUMP JUMPDEST POP SWAP1 JUMP JUMPDEST DUP3 DUP1 SLOAD PUSH3 0x152 SWAP1 PUSH3 0x291 JUMP JUMPDEST SWAP1 PUSH1 0x0 MSTORE PUSH1 0x20 PUSH1 0x0 KECCAK256 SWAP1 PUSH1 0x1F ADD PUSH1 0x20 SWAP1 DIV DUP2 ADD SWAP3 DUP3 PUSH3 0x176 JUMPI PUSH1 0x0 DUP6 SSTORE PUSH3 0x1C2 JUMP JUMPDEST DUP3 PUSH1 0x1F LT PUSH3 0x191 JUMPI DUP1 MLOAD PUSH1 0xFF NOT AND DUP4 DUP1 ADD OR DUP6 SSTORE PUSH3 0x1C2 JUMP JUMPDEST DUP3 DUP1 ADD PUSH1 0x1 ADD DUP6 SSTORE DUP3 ISZERO PUSH3 0x1C2 JUMPI SWAP2 DUP3 ADD JUMPDEST DUP3 DUP2 GT ISZERO PUSH3 0x1C1 JUMPI DUP3 MLOAD DUP3 SSTORE SWAP2 PUSH1 0x20 ADD SWAP2 SWAP1 PUSH1 0x1 ADD SWAP1 PUSH3 0x1A4 JUMP JUMPDEST JUMPDEST POP SWAP1 POP PUSH3 0x1D1 SWAP2 SWAP1 PUSH3 0x1FD JUMP JUMPDEST POP SWAP1 JUMP JUMPDEST JUMPDEST DUP1 DUP3 GT ISZERO PUSH3 0x1F9 JUMPI PUSH1 0x0 DUP2 DUP2 PUSH3 0x1EF SWAP2 SWAP1 PUSH3 0x21C JUMP JUMPDEST POP PUSH1 0x1 ADD PUSH3 0x1D6 JUMP JUMPDEST POP SWAP1 JUMP JUMPDEST JUMPDEST DUP1 DUP3 GT ISZERO PUSH3 0x218 JUMPI PUSH1 0x0 DUP2 PUSH1 0x0 SWAP1 SSTORE POP PUSH1 0x1 ADD PUSH3 0x1FE JUMP JUMPDEST POP SWAP1 JUMP JUMPDEST POP DUP1 SLOAD PUSH3 0x22A SWAP1 PUSH3 0x291 JUMP JUMPDEST PUSH1 0x0 DUP3 SSTORE DUP1 PUSH1 0x1F LT PUSH3 0x23E JUMPI POP PUSH3 0x25F JUMP JUMPDEST PUSH1 0x1F ADD PUSH1 0x20 SWAP1 DIV SWAP1 PUSH1 0x0 MSTORE PUSH1 0x20 PUSH1 0x0 KECCAK256 SWAP1 DUP2 ADD SWAP1 PUSH3 0x25E SWAP2 SWAP1 PUSH3 0x1FD JUMP JUMPDEST JUMPDEST POP JUMP JUMPDEST PUSH32 0x4E487B7100000000000000000000000000000000000000000000000000000000 PUSH1 0x0 MSTORE PUSH1 0x22 PUSH1 0x4 MSTORE PUSH1 0x24 PUSH1 0x0 REVERT JUMPDEST PUSH1 0x0 PUSH1 0x2 DUP3 DIV SWAP1 POP PUSH1 0x1 DUP3 AND DUP1 PUSH3 0x2AA JUMPI PUSH1 0x7F DUP3 AND SWAP2 POP JUMPDEST PUSH1 0x20 DUP3 LT DUP2 EQ ISZERO PUSH3 0x2C1 JUMPI PUSH3 0x2C0 PUSH3 0x262 JUMP JUMPDEST JUMPDEST POP SWAP2 SWAP1 POP JUMP JUMPDEST PUSH2 0x14A0 DUP1 PUSH3 0x2D7 PUSH1 0x0 CODECOPY PUSH1 0x0 RETURN INVALID PUSH1 0x80 PUSH1 0x40 MSTORE PUSH1 0x4 CALLDATASIZE LT PUSH2 0x3F JUMPI PUSH1 0x0 CALLDATALOAD PUSH1 0xE0 SHR DUP1 PUSH4 0x409DD707 EQ PUSH2 0x44 JUMPI DUP1 PUSH4 0x517CA9F4 EQ PUSH2 0x6D JUMPI DUP1 PUSH4 0x70C64351 EQ PUSH2 0x9F JUMPI DUP1 PUSH4 0x9747A200 EQ PUSH2 0xC8 JUMPI JUMPDEST PUSH1 0x0 DUP1 REVERT JUMPDEST CALLVALUE DUP1 ISZERO PUSH2 0x50 JUMPI PUSH1 0x0 DUP1 REVERT JUMPDEST POP PUSH2 0x6B PUSH1 0x4 DUP1 CALLDATASIZE SUB DUP2 ADD SWAP1 PUSH2 0x66 SWAP2 SWAP1 PUSH2 0xD50 JUMP JUMPDEST PUSH2 0xF1 JUMP JUMPDEST STOP JUMPDEST PUSH2 0x87 PUSH1 0x4 DUP1 CALLDATASIZE SUB DUP2 ADD SWAP1 PUSH2 0x82 SWAP2 SWAP1 PUSH2 0x10F0 JUMP JUMPDEST PUSH2 0x1F8 JUMP JUMPDEST PUSH1 0x40 MLOAD PUSH2 0x96 SWAP4 SWAP3 SWAP2 SWAP1 PUSH2 0x1261 JUMP JUMPDEST PUSH1 0x40 MLOAD DUP1 SWAP2 SUB SWAP1 RETURN JUMPDEST CALLVALUE DUP1 ISZERO PUSH2 0xAB JUMPI PUSH1 0x0 DUP1 REVERT JUMPDEST POP PUSH2 0xC6 PUSH1 0x4 DUP1 CALLDATASIZE SUB DUP2 ADD SWAP1 PUSH2 0xC1 SWAP2 SWAP1 PUSH2 0x129F JUMP JUMPDEST PUSH2 0x7B9 JUMP JUMPDEST STOP JUMPDEST CALLVALUE DUP1 ISZERO PUSH2 0xD4 JUMPI PUSH1 0x0 DUP1 REVERT JUMPDEST POP PUSH2 0xEF PUSH1 0x4 DUP1 CALLDATASIZE SUB DUP2 ADD SWAP1 PUSH2 0xEA SWAP2 SWAP1 PUSH2 0xD50 JUMP JUMPDEST PUSH2 0x86D JUMP JUMPDEST STOP JUMPDEST PUSH1 0x0 PUSH1 0x5 PUSH1 0x0 PUSH1 0x7 SLOAD DUP2 MSTORE PUSH1 0x20 ADD SWAP1 DUP2 MSTORE PUSH1 0x20 ADD PUSH1 0x0 KECCAK256 SWAP1 POP DUP2 DUP2 PUSH1 0x7 ADD SWAP1 DUP1 MLOAD SWAP1 PUSH1 0x20 ADD SWAP1 PUSH2 0x122 SWAP3 SWAP2 SWAP1 PUSH2 0x974 JUMP JUMPDEST POP DUP4 DUP2 PUSH1 0x0 ADD SWAP1 DUP1 MLOAD SWAP1 PUSH1 0x20 ADD SWAP1 PUSH2 0x13B SWAP3 SWAP2 SWAP1 PUSH2 0x974 JUMP JUMPDEST POP DUP3 DUP2 PUSH1 0x1 ADD PUSH1 0x0 DUP3 ADD MLOAD DUP2 PUSH1 0x0 ADD SWAP1 DUP1 MLOAD SWAP1 PUSH1 0x20 ADD SWAP1 PUSH2 0x15D SWAP3 SWAP2 SWAP1 PUSH2 0x974 JUMP JUMPDEST POP PUSH1 0x20 DUP3 ADD MLOAD DUP2 PUSH1 0x1 ADD SWAP1 DUP1 MLOAD SWAP1 PUSH1 0x20 ADD SWAP1 PUSH2 0x17A SWAP3 SWAP2 SWAP1 PUSH2 0x974 JUMP JUMPDEST POP PUSH1 0x40 DUP3 ADD MLOAD DUP2 PUSH1 0x2 ADD SWAP1 DUP1 MLOAD SWAP1 PUSH1 0x20 ADD SWAP1 PUSH2 0x197 SWAP3 SWAP2 SWAP1 PUSH2 0x974 JUMP JUMPDEST POP PUSH1 0x60 DUP3 ADD MLOAD DUP2 PUSH1 0x3 ADD SWAP1 DUP1 MLOAD SWAP1 PUSH1 0x20 ADD SWAP1 PUSH2 0x1B4 SWAP3 SWAP2 SWAP1 PUSH2 0x974 JUMP JUMPDEST POP PUSH1 0x80 DUP3 ADD MLOAD DUP2 PUSH1 0x4 ADD SWAP1 DUP1 MLOAD SWAP1 PUSH1 0x20 ADD SWAP1 PUSH2 0x1D1 SWAP3 SWAP2 SWAP1 PUSH2 0x974 JUMP JUMPDEST POP PUSH1 0xA0 DUP3 ADD MLOAD DUP2 PUSH1 0x5 ADD SWAP1 DUP1 MLOAD SWAP1 PUSH1 0x20 ADD SWAP1 PUSH2 0x1EE SWAP3 SWAP2 SWAP1 PUSH2 0x974 JUMP JUMPDEST POP SWAP1 POP POP POP POP POP POP JUMP JUMPDEST PUSH1 0x0 PUSH1 0x60 PUSH1 0x0 DUP4 PUSH16 0xFFFFFFFFFFFFFFFFFFFFFFFFFFFFFFFF AND CALLVALUE EQ PUSH2 0x2A6 JUMPI DUP6 PUSH20 0xFFFFFFFFFFFFFFFFFFFFFFFFFFFFFFFFFFFFFFFF AND PUSH2 0x8FC CALLVALUE SWAP1 DUP2 ISZERO MUL SWAP1 PUSH1 0x40 MLOAD PUSH1 0x0 PUSH1 0x40 MLOAD DUP1 DUP4 SUB DUP2 DUP6 DUP9 DUP9 CALL SWAP4 POP POP POP POP ISZERO DUP1 ISZERO PUSH2 0x25D JUMPI RETURNDATASIZE PUSH1 0x0 DUP1 RETURNDATACOPY RETURNDATASIZE PUSH1 0x0 REVERT JUMPDEST POP PUSH1 0x0 PUSH32 0xFFFFFFFFFFFFFFFFFFFFFFFFFFFFFFFFFFFFFFFFFFFFFFFFFFFFFFFFFFFFFFFF PUSH1 0x40 MLOAD DUP1 PUSH1 0x60 ADD PUSH1 0x40 MSTORE DUP1 PUSH1 0x39 DUP2 MSTORE PUSH1 0x20 ADD PUSH2 0x1432 PUSH1 0x39 SWAP2 CODECOPY SWAP1 SWAP3 POP SWAP3 POP SWAP3 POP PUSH2 0x7AE JUMP JUMPDEST PUSH1 0x0 PUSH1 0x3 PUSH1 0x0 PUSH1 0x7 SLOAD DUP2 MSTORE PUSH1 0x20 ADD SWAP1 DUP2 MSTORE PUSH1 0x20 ADD PUSH1 0x0 KECCAK256 SWAP1 POP DUP9 DUP2 PUSH1 0x0 ADD SWAP1 DUP1 MLOAD SWAP1 PUSH1 0x20 ADD SWAP1 PUSH2 0x2D7 SWAP3 SWAP2 SWAP1 PUSH2 0x974 JUMP JUMPDEST POP DUP8 DUP2 PUSH1 0x1 ADD PUSH1 0x0 DUP3 ADD MLOAD DUP2 PUSH1 0x0 ADD PUSH1 0x0 PUSH2 0x100 EXP DUP2 SLOAD DUP2 PUSH1 0xFF MUL NOT AND SWAP1 DUP4 PUSH1 0xFF AND MUL OR SWAP1 SSTORE POP PUSH1 0x20 DUP3 ADD MLOAD DUP2 PUSH1 0x0 ADD PUSH1 0x1 PUSH2 0x100 EXP DUP2 SLOAD DUP2 PUSH1 0xFF MUL NOT AND SWAP1 DUP4 PUSH1 0xFF AND MUL OR SWAP1 SSTORE POP PUSH1 0x40 DUP3 ADD MLOAD DUP2 PUSH1 0x0 ADD PUSH1 0x2 PUSH2 0x100 EXP DUP2 SLOAD DUP2 PUSH2 0xFFFF MUL NOT AND SWAP1 DUP4 PUSH2 0xFFFF AND MUL OR SWAP1 SSTORE POP PUSH1 0x60 DUP3 ADD MLOAD DUP2 PUSH1 0x0 ADD PUSH1 0x4 PUSH2 0x100 EXP DUP2 SLOAD DUP2 PUSH1 0xFF MUL NOT AND SWAP1 DUP4 PUSH1 0xFF AND MUL OR SWAP1 SSTORE POP PUSH1 0x80 DUP3 ADD MLOAD DUP2 PUSH1 0x0 ADD PUSH1 0x5 PUSH2 0x100 EXP DUP2 SLOAD DUP2 PUSH1 0xFF MUL NOT AND SWAP1 DUP4 PUSH1 0xFF AND MUL OR SWAP1 SSTORE POP SWAP1 POP POP PUSH1 0x4 PUSH1 0x0 PUSH1 0x7 SLOAD DUP2 MSTORE PUSH1 0x20 ADD SWAP1 DUP2 MSTORE PUSH1 0x20 ADD PUSH1 0x0 KECCAK256 DUP2 PUSH1 0x2 ADD PUSH1 0x0 DUP3 ADD DUP2 PUSH1 0x0 ADD SWAP1 DUP1 SLOAD PUSH2 0x3B4 SWAP1 PUSH2 0x1349 JUMP JUMPDEST PUSH2 0x3BF SWAP3 SWAP2 SWAP1 PUSH2 0x9FA JUMP JUMPDEST POP PUSH1 0x1 DUP3 ADD DUP2 PUSH1 0x1 ADD PUSH1 0x0 DUP3 ADD DUP2 PUSH1 0x0 ADD SWAP1 DUP1 SLOAD PUSH2 0x3DC SWAP1 PUSH2 0x1349 JUMP JUMPDEST PUSH2 0x3E7 SWAP3 SWAP2 SWAP1 PUSH2 0x9FA JUMP JUMPDEST POP PUSH1 0x1 DUP3 ADD DUP2 PUSH1 0x1 ADD SWAP1 DUP1 SLOAD PUSH2 0x3FC SWAP1 PUSH2 0x1349 JUMP JUMPDEST PUSH2 0x407 SWAP3 SWAP2 SWAP1 PUSH2 0x9FA JUMP JUMPDEST POP PUSH1 0x2 DUP3 ADD DUP2 PUSH1 0x2 ADD SWAP1 DUP1 SLOAD PUSH2 0x41C SWAP1 PUSH2 0x1349 JUMP JUMPDEST PUSH2 0x427 SWAP3 SWAP2 SWAP1 PUSH2 0x9FA JUMP JUMPDEST POP PUSH1 0x3 DUP3 ADD DUP2 PUSH1 0x3 ADD SWAP1 DUP1 SLOAD PUSH2 0x43C SWAP1 PUSH2 0x1349 JUMP JUMPDEST PUSH2 0x447 SWAP3 SWAP2 SWAP1 PUSH2 0x9FA JUMP JUMPDEST POP PUSH1 0x4 DUP3 ADD DUP2 PUSH1 0x4 ADD SWAP1 DUP1 SLOAD PUSH2 0x45C SWAP1 PUSH2 0x1349 JUMP JUMPDEST PUSH2 0x467 SWAP3 SWAP2 SWAP1 PUSH2 0x9FA JUMP JUMPDEST POP PUSH1 0x5 DUP3 ADD DUP2 PUSH1 0x5 ADD SWAP1 DUP1 SLOAD PUSH2 0x47C SWAP1 PUSH2 0x1349 JUMP JUMPDEST PUSH2 0x487 SWAP3 SWAP2 SWAP1 PUSH2 0x9FA JUMP JUMPDEST POP POP POP PUSH1 0x7 DUP3 ADD DUP2 PUSH1 0x7 ADD SWAP1 DUP1 SLOAD PUSH2 0x49E SWAP1 PUSH2 0x1349 JUMP JUMPDEST PUSH2 0x4A9 SWAP3 SWAP2 SWAP1 PUSH2 0x9FA JUMP JUMPDEST POP SWAP1 POP POP PUSH1 0x5 PUSH1 0x0 PUSH1 0x7 SLOAD DUP2 MSTORE PUSH1 0x20 ADD SWAP1 DUP2 MSTORE PUSH1 0x20 ADD PUSH1 0x0 KECCAK256 DUP2 PUSH1 0xA ADD PUSH1 0x0 DUP3 ADD DUP2 PUSH1 0x0 ADD SWAP1 DUP1 SLOAD PUSH2 0x4DA SWAP1 PUSH2 0x1349 JUMP JUMPDEST PUSH2 0x4E5 SWAP3 SWAP2 SWAP1 PUSH2 0x9FA JUMP JUMPDEST POP PUSH1 0x1 DUP3 ADD DUP2 PUSH1 0x1 ADD PUSH1 0x0 DUP3 ADD DUP2 PUSH1 0x0 ADD SWAP1 DUP1 SLOAD PUSH2 0x502 SWAP1 PUSH2 0x1349 JUMP JUMPDEST PUSH2 0x50D SWAP3 SWAP2 SWAP1 PUSH2 0x9FA JUMP JUMPDEST POP PUSH1 0x1 DUP3 ADD DUP2 PUSH1 0x1 ADD SWAP1 DUP1 SLOAD PUSH2 0x522 SWAP1 PUSH2 0x1349 JUMP JUMPDEST PUSH2 0x52D SWAP3 SWAP2 SWAP1 PUSH2 0x9FA JUMP JUMPDEST POP PUSH1 0x2 DUP3 ADD DUP2 PUSH1 0x2 ADD SWAP1 DUP1 SLOAD PUSH2 0x542 SWAP1 PUSH2 0x1349 JUMP JUMPDEST PUSH2 0x54D SWAP3 SWAP2 SWAP1 PUSH2 0x9FA JUMP JUMPDEST POP PUSH1 0x3 DUP3 ADD DUP2 PUSH1 0x3 ADD SWAP1 DUP1 SLOAD PUSH2 0x562 SWAP1 PUSH2 0x1349 JUMP JUMPDEST PUSH2 0x56D SWAP3 SWAP2 SWAP1 PUSH2 0x9FA JUMP JUMPDEST POP PUSH1 0x4 DUP3 ADD DUP2 PUSH1 0x4 ADD SWAP1 DUP1 SLOAD PUSH2 0x582 SWAP1 PUSH2 0x1349 JUMP JUMPDEST PUSH2 0x58D SWAP3 SWAP2 SWAP1 PUSH2 0x9FA JUMP JUMPDEST POP PUSH1 0x5 DUP3 ADD DUP2 PUSH1 0x5 ADD SWAP1 DUP1 SLOAD PUSH2 0x5A2 SWAP1 PUSH2 0x1349 JUMP JUMPDEST PUSH2 0x5AD SWAP3 SWAP2 SWAP1 PUSH2 0x9FA JUMP JUMPDEST POP POP POP PUSH1 0x7 DUP3 ADD DUP2 PUSH1 0x7 ADD SWAP1 DUP1 SLOAD PUSH2 0x5C4 SWAP1 PUSH2 0x1349 JUMP JUMPDEST PUSH2 0x5CF SWAP3 SWAP2 SWAP1 PUSH2 0x9FA JUMP JUMPDEST POP SWAP1 POP POP DUP6 DUP2 PUSH1 0x12 ADD PUSH1 0x0 DUP3 ADD MLOAD DUP2 PUSH1 0x0 ADD SWAP1 DUP1 MLOAD SWAP1 PUSH1 0x20 ADD SWAP1 PUSH2 0x5F4 SWAP3 SWAP2 SWAP1 PUSH2 0x974 JUMP JUMPDEST POP PUSH1 0x20 DUP3 ADD MLOAD DUP2 PUSH1 0x1 ADD SWAP1 DUP1 MLOAD SWAP1 PUSH1 0x20 ADD SWAP1 PUSH2 0x611 SWAP3 SWAP2 SWAP1 PUSH2 0x974 JUMP JUMPDEST POP PUSH1 0x40 DUP3 ADD MLOAD DUP2 PUSH1 0x2 ADD PUSH1 0x0 DUP3 ADD MLOAD DUP2 PUSH1 0x0 ADD SWAP1 DUP1 MLOAD SWAP1 PUSH1 0x20 ADD SWAP1 PUSH2 0x637 SWAP3 SWAP2 SWAP1 PUSH2 0x974 JUMP JUMPDEST POP PUSH1 0x20 DUP3 ADD MLOAD DUP2 PUSH1 0x1 ADD SWAP1 DUP1 MLOAD SWAP1 PUSH1 0x20 ADD SWAP1 PUSH2 0x654 SWAP3 SWAP2 SWAP1 PUSH2 0x974 JUMP JUMPDEST POP PUSH1 0x40 DUP3 ADD MLOAD DUP2 PUSH1 0x2 ADD PUSH1 0x0 DUP3 ADD MLOAD DUP2 PUSH1 0x0 ADD PUSH1 0x0 PUSH2 0x100 EXP DUP2 SLOAD DUP2 PUSH1 0xFF MUL NOT AND SWAP1 DUP4 PUSH1 0xFF AND MUL OR SWAP1 SSTORE POP PUSH1 0x20 DUP3 ADD MLOAD DUP2 PUSH1 0x0 ADD PUSH1 0x1 PUSH2 0x100 EXP DUP2 SLOAD DUP2 PUSH1 0xFF MUL NOT AND SWAP1 DUP4 PUSH1 0xFF AND MUL OR SWAP1 SSTORE POP PUSH1 0x40 DUP3 ADD MLOAD DUP2 PUSH1 0x0 ADD PUSH1 0x2 PUSH2 0x100 EXP DUP2 SLOAD DUP2 PUSH2 0xFFFF MUL NOT AND SWAP1 DUP4 PUSH2 0xFFFF AND MUL OR SWAP1 SSTORE POP PUSH1 0x60 DUP3 ADD MLOAD DUP2 PUSH1 0x0 ADD PUSH1 0x4 PUSH2 0x100 EXP DUP2 SLOAD DUP2 PUSH1 0xFF MUL NOT AND SWAP1 DUP4 PUSH1 0xFF AND MUL OR SWAP1 SSTORE POP PUSH1 0x80 DUP3 ADD MLOAD DUP2 PUSH1 0x0 ADD PUSH1 0x5 PUSH2 0x100 EXP DUP2 SLOAD DUP2 PUSH1 0xFF MUL NOT AND SWAP1 DUP4 PUSH1 0xFF AND MUL OR SWAP1 SSTORE POP POP POP POP POP SWAP1 POP POP DUP5 DUP2 PUSH1 0x17 ADD PUSH1 0x0 PUSH2 0x100 EXP DUP2 SLOAD DUP2 PUSH16 0xFFFFFFFFFFFFFFFFFFFFFFFFFFFFFFFF MUL NOT AND SWAP1 DUP4 PUSH16 0xFFFFFFFFFFFFFFFFFFFFFFFFFFFFFFFF AND MUL OR SWAP1 SSTORE POP PUSH1 0x7 PUSH1 0x0 DUP2 SLOAD DUP1 SWAP3 SWAP2 SWAP1 PUSH2 0x75A SWAP1 PUSH2 0x13B4 JUMP JUMPDEST SWAP2 SWAP1 POP SSTORE POP PUSH1 0x1 DUP1 PUSH1 0x7 SLOAD PUSH2 0x76F SWAP2 SWAP1 PUSH2 0x13FD JUMP JUMPDEST PUSH1 0x40 MLOAD DUP1 PUSH1 0x40 ADD PUSH1 0x40 MSTORE DUP1 PUSH1 0x8 DUP2 MSTORE PUSH1 0x20 ADD PUSH32 0x5375636365737321000000000000000000000000000000000000000000000000 DUP2 MSTORE POP SWAP1 SWAP4 POP SWAP4 POP SWAP4 POP POP JUMPDEST SWAP6 POP SWAP6 POP SWAP6 SWAP3 POP POP POP JUMP JUMPDEST PUSH1 0x0 PUSH1 0x6 PUSH1 0x0 PUSH1 0x7 SLOAD DUP2 MSTORE PUSH1 0x20 ADD SWAP1 DUP2 MSTORE PUSH1 0x20 ADD PUSH1 0x0 KECCAK256 SWAP1 POP DUP6 DUP2 PUSH1 0x0 ADD PUSH1 0x0 PUSH2 0x100 EXP DUP2 SLOAD DUP2 PUSH1 0xFF MUL NOT AND SWAP1 DUP4 PUSH1 0xFF AND MUL OR SWAP1 SSTORE POP DUP5 DUP2 PUSH1 0x0 ADD PUSH1 0x1 PUSH2 0x100 EXP DUP2 SLOAD DUP2 PUSH1 0xFF MUL NOT AND SWAP1 DUP4 PUSH1 0xFF AND MUL OR SWAP1 SSTORE POP DUP4 DUP2 PUSH1 0x0 ADD PUSH1 0x2 PUSH2 0x100 EXP DUP2 SLOAD DUP2 PUSH2 0xFFFF MUL NOT AND SWAP1 DUP4 PUSH2 0xFFFF AND MUL OR SWAP1 SSTORE POP DUP3 DUP2 PUSH1 0x0 ADD PUSH1 0x4 PUSH2 0x100 EXP DUP2 SLOAD DUP2 PUSH1 0xFF MUL NOT AND SWAP1 DUP4 PUSH1 0xFF AND MUL OR SWAP1 SSTORE POP DUP2 DUP2 PUSH1 0x0 ADD PUSH1 0x5 PUSH2 0x100 EXP DUP2 SLOAD DUP2 PUSH1 0xFF MUL NOT AND SWAP1 DUP4 PUSH1 0xFF AND MUL OR SWAP1 SSTORE POP POP POP POP POP POP POP JUMP JUMPDEST PUSH1 0x0 PUSH1 0x4 PUSH1 0x0 PUSH1 0x7 SLOAD DUP2 MSTORE PUSH1 0x20 ADD SWAP1 DUP2 MSTORE PUSH1 0x20 ADD PUSH1 0x0 KECCAK256 SWAP1 POP DUP2 DUP2 PUSH1 0x7 ADD SWAP1 DUP1 MLOAD SWAP1 PUSH1 0x20 ADD SWAP1 PUSH2 0x89E SWAP3 SWAP2 SWAP1 PUSH2 0x974 JUMP JUMPDEST POP DUP4 DUP2 PUSH1 0x0 ADD SWAP1 DUP1 MLOAD SWAP1 PUSH1 0x20 ADD SWAP1 PUSH2 0x8B7 SWAP3 SWAP2 SWAP1 PUSH2 0x974 JUMP JUMPDEST POP DUP3 DUP2 PUSH1 0x1 ADD PUSH1 0x0 DUP3 ADD MLOAD DUP2 PUSH1 0x0 ADD SWAP1 DUP1 MLOAD SWAP1 PUSH1 0x20 ADD SWAP1 PUSH2 0x8D9 SWAP3 SWAP2 SWAP1 PUSH2 0x974 JUMP JUMPDEST POP PUSH1 0x20 DUP3 ADD MLOAD DUP2 PUSH1 0x1 ADD SWAP1 DUP1 MLOAD SWAP1 PUSH1 0x20 ADD SWAP1 PUSH2 0x8F6 SWAP3 SWAP2 SWAP1 PUSH2 0x974 JUMP JUMPDEST POP PUSH1 0x40 DUP3 ADD MLOAD DUP2 PUSH1 0x2 ADD SWAP1 DUP1 MLOAD SWAP1 PUSH1 0x20 ADD SWAP1 PUSH2 0x913 SWAP3 SWAP2 SWAP1 PUSH2 0x974 JUMP JUMPDEST POP PUSH1 0x60 DUP3 ADD MLOAD DUP2 PUSH1 0x3 ADD SWAP1 DUP1 MLOAD SWAP1 PUSH1 0x20 ADD SWAP1 PUSH2 0x930 SWAP3 SWAP2 SWAP1 PUSH2 0x974 JUMP JUMPDEST POP PUSH1 0x80 DUP3 ADD MLOAD DUP2 PUSH1 0x4 ADD SWAP1 DUP1 MLOAD SWAP1 PUSH1 0x20 ADD SWAP1 PUSH2 0x94D SWAP3 SWAP2 SWAP1 PUSH2 0x974 JUMP JUMPDEST POP PUSH1 0xA0 DUP3 ADD MLOAD DUP2 PUSH1 0x5 ADD SWAP1 DUP1 MLOAD SWAP1 PUSH1 0x20 ADD SWAP1 PUSH2 0x96A SWAP3 SWAP2 SWAP1 PUSH2 0x974 JUMP JUMPDEST POP SWAP1 POP POP POP POP POP POP JUMP JUMPDEST DUP3 DUP1 SLOAD PUSH2 0x980 SWAP1 PUSH2 0x1349 JUMP JUMPDEST SWAP1 PUSH1 0x0 MSTORE PUSH1 0x20 PUSH1 0x0 KECCAK256 SWAP1 PUSH1 0x1F ADD PUSH1 0x20 SWAP1 DIV DUP2 ADD SWAP3 DUP3 PUSH2 0x9A2 JUMPI PUSH1 0x0 DUP6 SSTORE PUSH2 0x9E9 JUMP JUMPDEST DUP3 PUSH1 0x1F LT PUSH2 0x9BB JUMPI DUP1 MLOAD PUSH1 0xFF NOT AND DUP4 DUP1 ADD OR DUP6 SSTORE PUSH2 0x9E9 JUMP JUMPDEST DUP3 DUP1 ADD PUSH1 0x1 ADD DUP6 SSTORE DUP3 ISZERO PUSH2 0x9E9 JUMPI SWAP2 DUP3 ADD JUMPDEST DUP3 DUP2 GT ISZERO PUSH2 0x9E8 JUMPI DUP3 MLOAD DUP3 SSTORE SWAP2 PUSH1 0x20 ADD SWAP2 SWAP1 PUSH1 0x1 ADD SWAP1 PUSH2 0x9CD JUMP JUMPDEST JUMPDEST POP SWAP1 POP PUSH2 0x9F6 SWAP2 SWAP1 PUSH2 0xA87 JUMP JUMPDEST POP SWAP1 JUMP JUMPDEST DUP3 DUP1 SLOAD PUSH2 0xA06 SWAP1 PUSH2 0x1349 JUMP JUMPDEST SWAP1 PUSH1 0x0 MSTORE PUSH1 0x20 PUSH1 0x0 KECCAK256 SWAP1 PUSH1 0x1F ADD PUSH1 0x20 SWAP1 DIV DUP2 ADD SWAP3 DUP3 PUSH2 0xA28 JUMPI PUSH1 0x0 DUP6 SSTORE PUSH2 0xA76 JUMP JUMPDEST DUP3 PUSH1 0x1F LT PUSH2 0xA39 JUMPI DUP1 SLOAD DUP6 SSTORE PUSH2 0xA76 JUMP JUMPDEST DUP3 DUP1 ADD PUSH1 0x1 ADD DUP6 SSTORE DUP3 ISZERO PUSH2 0xA76 JUMPI PUSH1 0x0 MSTORE PUSH1 0x20 PUSH1 0x0 KECCAK256 SWAP2 PUSH1 0x1F ADD PUSH1 0x20 SWAP1 DIV DUP3 ADD JUMPDEST DUP3 DUP2 GT ISZERO PUSH2 0xA75 JUMPI DUP3 SLOAD DUP3 SSTORE SWAP2 PUSH1 0x1 ADD SWAP2 SWAP1 PUSH1 0x1 ADD SWAP1 PUSH2 0xA5A JUMP JUMPDEST JUMPDEST POP SWAP1 POP PUSH2 0xA83 SWAP2 SWAP1 PUSH2 0xA87 JUMP JUMPDEST POP SWAP1 JUMP JUMPDEST JUMPDEST DUP1 DUP3 GT ISZERO PUSH2 0xAA0 JUMPI PUSH1 0x0 DUP2 PUSH1 0x0 SWAP1 SSTORE POP PUSH1 0x1 ADD PUSH2 0xA88 JUMP JUMPDEST POP SWAP1 JUMP JUMPDEST PUSH1 0x0 PUSH1 0x40 MLOAD SWAP1 POP SWAP1 JUMP JUMPDEST PUSH1 0x0 DUP1 REVERT JUMPDEST PUSH1 0x0 DUP1 REVERT JUMPDEST PUSH1 0x0 DUP1 REVERT JUMPDEST PUSH1 0x0 DUP1 REVERT JUMPDEST PUSH1 0x0 PUSH1 0x1F NOT PUSH1 0x1F DUP4 ADD AND SWAP1 POP SWAP2 SWAP1 POP JUMP JUMPDEST PUSH32 0x4E487B7100000000000000000000000000000000000000000000000000000000 PUSH1 0x0 MSTORE PUSH1 0x41 PUSH1 0x4 MSTORE PUSH1 0x24 PUSH1 0x0 REVERT JUMPDEST PUSH2 0xB0B DUP3 PUSH2 0xAC2 JUMP JUMPDEST DUP2 ADD DUP2 DUP2 LT PUSH8 0xFFFFFFFFFFFFFFFF DUP3 GT OR ISZERO PUSH2 0xB2A JUMPI PUSH2 0xB29 PUSH2 0xAD3 JUMP JUMPDEST JUMPDEST DUP1 PUSH1 0x40 MSTORE POP POP POP JUMP JUMPDEST PUSH1 0x0 PUSH2 0xB3D PUSH2 0xAA4 JUMP JUMPDEST SWAP1 POP PUSH2 0xB49 DUP3 DUP3 PUSH2 0xB02 JUMP JUMPDEST SWAP2 SWAP1 POP JUMP JUMPDEST PUSH1 0x0 PUSH8 0xFFFFFFFFFFFFFFFF DUP3 GT ISZERO PUSH2 0xB69 JUMPI PUSH2 0xB68 PUSH2 0xAD3 JUMP JUMPDEST JUMPDEST PUSH2 0xB72 DUP3 PUSH2 0xAC2 JUMP JUMPDEST SWAP1 POP PUSH1 0x20 DUP2 ADD SWAP1 POP SWAP2 SWAP1 POP JUMP JUMPDEST DUP3 DUP2 DUP4 CALLDATACOPY PUSH1 0x0 DUP4 DUP4 ADD MSTORE POP POP POP JUMP JUMPDEST PUSH1 0x0 PUSH2 0xBA1 PUSH2 0xB9C DUP5 PUSH2 0xB4E JUMP JUMPDEST PUSH2 0xB33 JUMP JUMPDEST SWAP1 POP DUP3 DUP2 MSTORE PUSH1 0x20 DUP2 ADD DUP5 DUP5 DUP5 ADD GT ISZERO PUSH2 0xBBD JUMPI PUSH2 0xBBC PUSH2 0xABD JUMP JUMPDEST JUMPDEST PUSH2 0xBC8 DUP5 DUP3 DUP6 PUSH2 0xB7F JUMP JUMPDEST POP SWAP4 SWAP3 POP POP POP JUMP JUMPDEST PUSH1 0x0 DUP3 PUSH1 0x1F DUP4 ADD SLT PUSH2 0xBE5 JUMPI PUSH2 0xBE4 PUSH2 0xAB8 JUMP JUMPDEST JUMPDEST DUP2 CALLDATALOAD PUSH2 0xBF5 DUP5 DUP3 PUSH1 0x20 DUP7 ADD PUSH2 0xB8E JUMP JUMPDEST SWAP2 POP POP SWAP3 SWAP2 POP POP JUMP JUMPDEST PUSH1 0x0 DUP1 REVERT JUMPDEST PUSH1 0x0 DUP1 REVERT JUMPDEST PUSH1 0x0 PUSH1 0xC0 DUP3 DUP5 SUB SLT ISZERO PUSH2 0xC1E JUMPI PUSH2 0xC1D PUSH2 0xBFE JUMP JUMPDEST JUMPDEST PUSH2 0xC28 PUSH1 0xC0 PUSH2 0xB33 JUMP JUMPDEST SWAP1 POP PUSH1 0x0 DUP3 ADD CALLDATALOAD PUSH8 0xFFFFFFFFFFFFFFFF DUP2 GT ISZERO PUSH2 0xC48 JUMPI PUSH2 0xC47 PUSH2 0xC03 JUMP JUMPDEST JUMPDEST PUSH2 0xC54 DUP5 DUP3 DUP6 ADD PUSH2 0xBD0 JUMP JUMPDEST PUSH1 0x0 DUP4 ADD MSTORE POP PUSH1 0x20 DUP3 ADD CALLDATALOAD PUSH8 0xFFFFFFFFFFFFFFFF DUP2 GT ISZERO PUSH2 0xC78 JUMPI PUSH2 0xC77 PUSH2 0xC03 JUMP JUMPDEST JUMPDEST PUSH2 0xC84 DUP5 DUP3 DUP6 ADD PUSH2 0xBD0 JUMP JUMPDEST PUSH1 0x20 DUP4 ADD MSTORE POP PUSH1 0x40 DUP3 ADD CALLDATALOAD PUSH8 0xFFFFFFFFFFFFFFFF DUP2 GT ISZERO PUSH2 0xCA8 JUMPI PUSH2 0xCA7 PUSH2 0xC03 JUMP JUMPDEST JUMPDEST PUSH2 0xCB4 DUP5 DUP3 DUP6 ADD PUSH2 0xBD0 JUMP JUMPDEST PUSH1 0x40 DUP4 ADD MSTORE POP PUSH1 0x60 DUP3 ADD CALLDATALOAD PUSH8 0xFFFFFFFFFFFFFFFF DUP2 GT ISZERO PUSH2 0xCD8 JUMPI PUSH2 0xCD7 PUSH2 0xC03 JUMP JUMPDEST JUMPDEST PUSH2 0xCE4 DUP5 DUP3 DUP6 ADD PUSH2 0xBD0 JUMP JUMPDEST PUSH1 0x60 DUP4 ADD MSTORE POP PUSH1 0x80 DUP3 ADD CALLDATALOAD PUSH8 0xFFFFFFFFFFFFFFFF DUP2 GT ISZERO PUSH2 0xD08 JUMPI PUSH2 0xD07 PUSH2 0xC03 JUMP JUMPDEST JUMPDEST PUSH2 0xD14 DUP5 DUP3 DUP6 ADD PUSH2 0xBD0 JUMP JUMPDEST PUSH1 0x80 DUP4 ADD MSTORE POP PUSH1 0xA0 DUP3 ADD CALLDATALOAD PUSH8 0xFFFFFFFFFFFFFFFF DUP2 GT ISZERO PUSH2 0xD38 JUMPI PUSH2 0xD37 PUSH2 0xC03 JUMP JUMPDEST JUMPDEST PUSH2 0xD44 DUP5 DUP3 DUP6 ADD PUSH2 0xBD0 JUMP JUMPDEST PUSH1 0xA0 DUP4 ADD MSTORE POP SWAP3 SWAP2 POP POP JUMP JUMPDEST PUSH1 0x0 DUP1 PUSH1 0x0 PUSH1 0x60 DUP5 DUP7 SUB SLT ISZERO PUSH2 0xD69 JUMPI PUSH2 0xD68 PUSH2 0xAAE JUMP JUMPDEST JUMPDEST PUSH1 0x0 DUP5 ADD CALLDATALOAD PUSH8 0xFFFFFFFFFFFFFFFF DUP2 GT ISZERO PUSH2 0xD87 JUMPI PUSH2 0xD86 PUSH2 0xAB3 JUMP JUMPDEST JUMPDEST PUSH2 0xD93 DUP7 DUP3 DUP8 ADD PUSH2 0xBD0 JUMP JUMPDEST SWAP4 POP POP PUSH1 0x20 DUP5 ADD CALLDATALOAD PUSH8 0xFFFFFFFFFFFFFFFF DUP2 GT ISZERO PUSH2 0xDB4 JUMPI PUSH2 0xDB3 PUSH2 0xAB3 JUMP JUMPDEST JUMPDEST PUSH2 0xDC0 DUP7 DUP3 DUP8 ADD PUSH2 0xC08 JUMP JUMPDEST SWAP3 POP POP PUSH1 0x40 DUP5 ADD CALLDATALOAD PUSH8 0xFFFFFFFFFFFFFFFF DUP2 GT ISZERO PUSH2 0xDE1 JUMPI PUSH2 0xDE0 PUSH2 0xAB3 JUMP JUMPDEST JUMPDEST PUSH2 0xDED DUP7 DUP3 DUP8 ADD PUSH2 0xBD0 JUMP JUMPDEST SWAP2 POP POP SWAP3 POP SWAP3 POP SWAP3 JUMP JUMPDEST PUSH1 0x0 PUSH1 0xFF DUP3 AND SWAP1 POP SWAP2 SWAP1 POP JUMP JUMPDEST PUSH2 0xE0D DUP2 PUSH2 0xDF7 JUMP JUMPDEST DUP2 EQ PUSH2 0xE18 JUMPI PUSH1 0x0 DUP1 REVERT JUMPDEST POP JUMP JUMPDEST PUSH1 0x0 DUP2 CALLDATALOAD SWAP1 POP PUSH2 0xE2A DUP2 PUSH2 0xE04 JUMP JUMPDEST SWAP3 SWAP2 POP POP JUMP JUMPDEST PUSH1 0x0 PUSH2 0xFFFF DUP3 AND SWAP1 POP SWAP2 SWAP1 POP JUMP JUMPDEST PUSH2 0xE47 DUP2 PUSH2 0xE30 JUMP JUMPDEST DUP2 EQ PUSH2 0xE52 JUMPI PUSH1 0x0 DUP1 REVERT JUMPDEST POP JUMP JUMPDEST PUSH1 0x0 DUP2 CALLDATALOAD SWAP1 POP PUSH2 0xE64 DUP2 PUSH2 0xE3E JUMP JUMPDEST SWAP3 SWAP2 POP POP JUMP JUMPDEST PUSH1 0x0 PUSH1 0xA0 DUP3 DUP5 SUB SLT ISZERO PUSH2 0xE80 JUMPI PUSH2 0xE7F PUSH2 0xBFE JUMP JUMPDEST JUMPDEST PUSH2 0xE8A PUSH1 0xA0 PUSH2 0xB33 JUMP JUMPDEST SWAP1 POP PUSH1 0x0 PUSH2 0xE9A DUP5 DUP3 DUP6 ADD PUSH2 0xE1B JUMP JUMPDEST PUSH1 0x0 DUP4 ADD MSTORE POP PUSH1 0x20 PUSH2 0xEAE DUP5 DUP3 DUP6 ADD PUSH2 0xE1B JUMP JUMPDEST PUSH1 0x20 DUP4 ADD MSTORE POP PUSH1 0x40 PUSH2 0xEC2 DUP5 DUP3 DUP6 ADD PUSH2 0xE55 JUMP JUMPDEST PUSH1 0x40 DUP4 ADD MSTORE POP PUSH1 0x60 PUSH2 0xED6 DUP5 DUP3 DUP6 ADD PUSH2 0xE1B JUMP JUMPDEST PUSH1 0x60 DUP4 ADD MSTORE POP PUSH1 0x80 PUSH2 0xEEA DUP5 DUP3 DUP6 ADD PUSH2 0xE1B JUMP JUMPDEST PUSH1 0x80 DUP4 ADD MSTORE POP SWAP3 SWAP2 POP POP JUMP JUMPDEST PUSH1 0x0 PUSH20 0xFFFFFFFFFFFFFFFFFFFFFFFFFFFFFFFFFFFFFFFF DUP3 AND SWAP1 POP SWAP2 SWAP1 POP JUMP JUMPDEST PUSH1 0x0 PUSH2 0xF21 DUP3 PUSH2 0xEF6 JUMP JUMPDEST SWAP1 POP SWAP2 SWAP1 POP JUMP JUMPDEST PUSH2 0xF31 DUP2 PUSH2 0xF16 JUMP JUMPDEST DUP2 EQ PUSH2 0xF3C JUMPI PUSH1 0x0 DUP1 REVERT JUMPDEST POP JUMP JUMPDEST PUSH1 0x0 DUP2 CALLDATALOAD SWAP1 POP PUSH2 0xF4E DUP2 PUSH2 0xF28 JUMP JUMPDEST SWAP3 SWAP2 POP POP JUMP JUMPDEST PUSH1 0x0 PUSH1 0xE0 DUP3 DUP5 SUB SLT ISZERO PUSH2 0xF6A JUMPI PUSH2 0xF69 PUSH2 0xBFE JUMP JUMPDEST JUMPDEST PUSH2 0xF74 PUSH1 0x60 PUSH2 0xB33 JUMP JUMPDEST SWAP1 POP PUSH1 0x0 DUP3 ADD CALLDATALOAD PUSH8 0xFFFFFFFFFFFFFFFF DUP2 GT ISZERO PUSH2 0xF94 JUMPI PUSH2 0xF93 PUSH2 0xC03 JUMP JUMPDEST JUMPDEST PUSH2 0xFA0 DUP5 DUP3 DUP6 ADD PUSH2 0xBD0 JUMP JUMPDEST PUSH1 0x0 DUP4 ADD MSTORE POP PUSH1 0x20 DUP3 ADD CALLDATALOAD PUSH8 0xFFFFFFFFFFFFFFFF DUP2 GT ISZERO PUSH2 0xFC4 JUMPI PUSH2 0xFC3 PUSH2 0xC03 JUMP JUMPDEST JUMPDEST PUSH2 0xFD0 DUP5 DUP3 DUP6 ADD PUSH2 0xBD0 JUMP JUMPDEST PUSH1 0x20 DUP4 ADD MSTORE POP PUSH1 0x40 PUSH2 0xFE4 DUP5 DUP3 DUP6 ADD PUSH2 0xE6A JUMP JUMPDEST PUSH1 0x40 DUP4 ADD MSTORE POP SWAP3 SWAP2 POP POP JUMP JUMPDEST PUSH1 0x0 PUSH1 0x60 DUP3 DUP5 SUB SLT ISZERO PUSH2 0x1006 JUMPI PUSH2 0x1005 PUSH2 0xBFE JUMP JUMPDEST JUMPDEST PUSH2 0x1010 PUSH1 0x60 PUSH2 0xB33 JUMP JUMPDEST SWAP1 POP PUSH1 0x0 DUP3 ADD CALLDATALOAD PUSH8 0xFFFFFFFFFFFFFFFF DUP2 GT ISZERO PUSH2 0x1030 JUMPI PUSH2 0x102F PUSH2 0xC03 JUMP JUMPDEST JUMPDEST PUSH2 0x103C DUP5 DUP3 DUP6 ADD PUSH2 0xBD0 JUMP JUMPDEST PUSH1 0x0 DUP4 ADD MSTORE POP PUSH1 0x20 DUP3 ADD CALLDATALOAD PUSH8 0xFFFFFFFFFFFFFFFF DUP2 GT ISZERO PUSH2 0x1060 JUMPI PUSH2 0x105F PUSH2 0xC03 JUMP JUMPDEST JUMPDEST PUSH2 0x106C DUP5 DUP3 DUP6 ADD PUSH2 0xBD0 JUMP JUMPDEST PUSH1 0x20 DUP4 ADD MSTORE POP PUSH1 0x40 DUP3 ADD CALLDATALOAD PUSH8 0xFFFFFFFFFFFFFFFF DUP2 GT ISZERO PUSH2 0x1090 JUMPI PUSH2 0x108F PUSH2 0xC03 JUMP JUMPDEST JUMPDEST PUSH2 0x109C DUP5 DUP3 DUP6 ADD PUSH2 0xF54 JUMP JUMPDEST PUSH1 0x40 DUP4 ADD MSTORE POP SWAP3 SWAP2 POP POP JUMP JUMPDEST PUSH1 0x0 PUSH16 0xFFFFFFFFFFFFFFFFFFFFFFFFFFFFFFFF DUP3 AND SWAP1 POP SWAP2 SWAP1 POP JUMP JUMPDEST PUSH2 0x10CD DUP2 PUSH2 0x10A8 JUMP JUMPDEST DUP2 EQ PUSH2 0x10D8 JUMPI PUSH1 0x0 DUP1 REVERT JUMPDEST POP JUMP JUMPDEST PUSH1 0x0 DUP2 CALLDATALOAD SWAP1 POP PUSH2 0x10EA DUP2 PUSH2 0x10C4 JUMP JUMPDEST SWAP3 SWAP2 POP POP JUMP JUMPDEST PUSH1 0x0 DUP1 PUSH1 0x0 DUP1 PUSH1 0x0 PUSH2 0x120 DUP7 DUP9 SUB SLT ISZERO PUSH2 0x110D JUMPI PUSH2 0x110C PUSH2 0xAAE JUMP JUMPDEST JUMPDEST PUSH1 0x0 DUP7 ADD CALLDATALOAD PUSH8 0xFFFFFFFFFFFFFFFF DUP2 GT ISZERO PUSH2 0x112B JUMPI PUSH2 0x112A PUSH2 0xAB3 JUMP JUMPDEST JUMPDEST PUSH2 0x1137 DUP9 DUP3 DUP10 ADD PUSH2 0xBD0 JUMP JUMPDEST SWAP6 POP POP PUSH1 0x20 PUSH2 0x1148 DUP9 DUP3 DUP10 ADD PUSH2 0xE6A JUMP JUMPDEST SWAP5 POP POP PUSH1 0xC0 PUSH2 0x1159 DUP9 DUP3 DUP10 ADD PUSH2 0xF3F JUMP JUMPDEST SWAP4 POP POP PUSH1 0xE0 DUP7 ADD CALLDATALOAD PUSH8 0xFFFFFFFFFFFFFFFF DUP2 GT ISZERO PUSH2 0x117A JUMPI PUSH2 0x1179 PUSH2 0xAB3 JUMP JUMPDEST JUMPDEST PUSH2 0x1186 DUP9 DUP3 DUP10 ADD PUSH2 0xFF0 JUMP JUMPDEST SWAP3 POP POP PUSH2 0x100 PUSH2 0x1198 DUP9 DUP3 DUP10 ADD PUSH2 0x10DB JUMP JUMPDEST SWAP2 POP POP SWAP3 SWAP6 POP SWAP3 SWAP6 SWAP1 SWAP4 POP JUMP JUMPDEST PUSH1 0x0 DUP2 ISZERO ISZERO SWAP1 POP SWAP2 SWAP1 POP JUMP JUMPDEST PUSH2 0x11BA DUP2 PUSH2 0x11A5 JUMP JUMPDEST DUP3 MSTORE POP POP JUMP JUMPDEST PUSH1 0x0 DUP2 MLOAD SWAP1 POP SWAP2 SWAP1 POP JUMP JUMPDEST PUSH1 0x0 DUP3 DUP3 MSTORE PUSH1 0x20 DUP3 ADD SWAP1 POP SWAP3 SWAP2 POP POP JUMP JUMPDEST PUSH1 0x0 JUMPDEST DUP4 DUP2 LT ISZERO PUSH2 0x11FA JUMPI DUP1 DUP3 ADD MLOAD DUP2 DUP5 ADD MSTORE PUSH1 0x20 DUP2 ADD SWAP1 POP PUSH2 0x11DF JUMP JUMPDEST DUP4 DUP2 GT ISZERO PUSH2 0x1209 JUMPI PUSH1 0x0 DUP5 DUP5 ADD MSTORE JUMPDEST POP POP POP POP JUMP JUMPDEST PUSH1 0x0 PUSH2 0x121A DUP3 PUSH2 0x11C0 JUMP JUMPDEST PUSH2 0x1224 DUP2 DUP6 PUSH2 0x11CB JUMP JUMPDEST SWAP4 POP PUSH2 0x1234 DUP2 DUP6 PUSH1 0x20 DUP7 ADD PUSH2 0x11DC JUMP JUMPDEST PUSH2 0x123D DUP2 PUSH2 0xAC2 JUMP JUMPDEST DUP5 ADD SWAP2 POP POP SWAP3 SWAP2 POP POP JUMP JUMPDEST PUSH1 0x0 DUP2 SWAP1 POP SWAP2 SWAP1 POP JUMP JUMPDEST PUSH2 0x125B DUP2 PUSH2 0x1248 JUMP JUMPDEST DUP3 MSTORE POP POP JUMP JUMPDEST PUSH1 0x0 PUSH1 0x60 DUP3 ADD SWAP1 POP PUSH2 0x1276 PUSH1 0x0 DUP4 ADD DUP7 PUSH2 0x11B1 JUMP JUMPDEST DUP2 DUP2 SUB PUSH1 0x20 DUP4 ADD MSTORE PUSH2 0x1288 DUP2 DUP6 PUSH2 0x120F JUMP JUMPDEST SWAP1 POP PUSH2 0x1297 PUSH1 0x40 DUP4 ADD DUP5 PUSH2 0x1252 JUMP JUMPDEST SWAP5 SWAP4 POP POP POP POP JUMP JUMPDEST PUSH1 0x0 DUP1 PUSH1 0x0 DUP1 PUSH1 0x0 PUSH1 0xA0 DUP7 DUP9 SUB SLT ISZERO PUSH2 0x12BB JUMPI PUSH2 0x12BA PUSH2 0xAAE JUMP JUMPDEST JUMPDEST PUSH1 0x0 PUSH2 0x12C9 DUP9 DUP3 DUP10 ADD PUSH2 0xE1B JUMP JUMPDEST SWAP6 POP POP PUSH1 0x20 PUSH2 0x12DA DUP9 DUP3 DUP10 ADD PUSH2 0xE1B JUMP JUMPDEST SWAP5 POP POP PUSH1 0x40 PUSH2 0x12EB DUP9 DUP3 DUP10 ADD PUSH2 0xE55 JUMP JUMPDEST SWAP4 POP POP PUSH1 0x60 PUSH2 0x12FC DUP9 DUP3 DUP10 ADD PUSH2 0xE1B JUMP JUMPDEST SWAP3 POP POP PUSH1 0x80 PUSH2 0x130D DUP9 DUP3 DUP10 ADD PUSH2 0xE1B JUMP JUMPDEST SWAP2 POP POP SWAP3 SWAP6 POP SWAP3 SWAP6 SWAP1 SWAP4 POP JUMP JUMPDEST PUSH32 0x4E487B7100000000000000000000000000000000000000000000000000000000 PUSH1 0x0 MSTORE PUSH1 0x22 PUSH1 0x4 MSTORE PUSH1 0x24 PUSH1 0x0 REVERT JUMPDEST PUSH1 0x0 PUSH1 0x2 DUP3 DIV SWAP1 POP PUSH1 0x1 DUP3 AND DUP1 PUSH2 0x1361 JUMPI PUSH1 0x7F DUP3 AND SWAP2 POP JUMPDEST PUSH1 0x20 DUP3 LT DUP2 EQ ISZERO PUSH2 0x1375 JUMPI PUSH2 0x1374 PUSH2 0x131A JUMP JUMPDEST JUMPDEST POP SWAP2 SWAP1 POP JUMP JUMPDEST PUSH32 0x4E487B7100000000000000000000000000000000000000000000000000000000 PUSH1 0x0 MSTORE PUSH1 0x11 PUSH1 0x4 MSTORE PUSH1 0x24 PUSH1 0x0 REVERT JUMPDEST PUSH1 0x0 DUP2 SWAP1 POP SWAP2 SWAP1 POP JUMP JUMPDEST PUSH1 0x0 PUSH2 0x13BF DUP3 PUSH2 0x13AA JUMP JUMPDEST SWAP2 POP PUSH32 0xFFFFFFFFFFFFFFFFFFFFFFFFFFFFFFFFFFFFFFFFFFFFFFFFFFFFFFFFFFFFFFFF DUP3 EQ ISZERO PUSH2 0x13F2 JUMPI PUSH2 0x13F1 PUSH2 0x137B JUMP JUMPDEST JUMPDEST PUSH1 0x1 DUP3 ADD SWAP1 POP SWAP2 SWAP1 POP JUMP JUMPDEST PUSH1 0x0 PUSH2 0x1408 DUP3 PUSH2 0x13AA JUMP JUMPDEST SWAP2 POP PUSH2 0x1413 DUP4 PUSH2 0x13AA JUMP JUMPDEST SWAP3 POP DUP3 DUP3 LT ISZERO PUSH2 0x1426 JUMPI PUSH2 0x1425 PUSH2 0x137B JUMP JUMPDEST JUMPDEST DUP3 DUP3 SUB SWAP1 POP SWAP3 SWAP2 POP POP JUMP INVALID 0x49 PUSH15 0x666F726D656420707269636520646F PUSH6 0x73206E6F7420 PUSH4 0x6F727265 PUSH20 0x706F6E6420746F2073656E7420696E2074686520 PUSH14 0x657373616765A264697066735822 SLT KECCAK256 0xAD RETURNDATASIZE SMOD 0x22 EXTCODESIZE JUMPDEST 0x4A 0xB5 0x2C MUL CALLDATALOAD LOG2 0xEF PUSH13 0x1E0AA137BC2922C6527093E9F9 LOG2 PUSH27 0x13F80264736F6C6343000809003300000000000000000000000000 "
        },
        "methodIdentifiers": {
          "addSale(string,(uint8,uint8,uint16,uint8,uint8),address,(string,string,(string,string,(uint8,uint8,uint16,uint8,uint8))),uint128)": "517ca9f4",
          "setCompanyInfo(string,(string,string,string,string,string,string),string)": "409dd707",
          "setDate(uint8,uint8,uint16,uint8,uint8)": "70c64351",
          "setOwnerInfo(string,(string,string,string,string,string,string),string)": "9747a200"
        }
      }
    }
  }
}