{
  "contracts/ownerToCompany.sol": {
    "OwnerToCompany": {
      "abi": [
        {
          "inputs": [
            {
              "internalType": "string",
              "name": "_name",
              "type": "string"
            }
          ],
          "stateMutability": "nonpayable",
          "type": "constructor"
        },
        {
          "inputs": [
            {
              "internalType": "string",
              "name": "type_of_sale",
              "type": "string"
            },
            {
              "components": [
                {
                  "internalType": "uint8",
                  "name": "day",
                  "type": "uint8"
                },
                {
                  "internalType": "uint8",
                  "name": "month",
                  "type": "uint8"
                },
                {
                  "internalType": "uint16",
                  "name": "year",
                  "type": "uint16"
                },
                {
                  "internalType": "uint8",
                  "name": "hour",
                  "type": "uint8"
                },
                {
                  "internalType": "uint8",
                  "name": "minute",
                  "type": "uint8"
                }
              ],
              "internalType": "struct OwnerToCompany.Date",
              "name": "date",
              "type": "tuple"
            },
            {
              "internalType": "address payable",
              "name": "owner_info",
              "type": "address"
            },
            {
              "components": [
                {
                  "internalType": "string",
                  "name": "uid",
                  "type": "string"
                },
                {
                  "internalType": "string",
                  "name": "name",
                  "type": "string"
                },
                {
                  "components": [
                    {
                      "internalType": "string",
                      "name": "model",
                      "type": "string"
                    },
                    {
                      "internalType": "string",
                      "name": "color",
                      "type": "string"
                    },
                    {
                      "components": [
                        {
                          "internalType": "uint8",
                          "name": "day",
                          "type": "uint8"
                        },
                        {
                          "internalType": "uint8",
                          "name": "month",
                          "type": "uint8"
                        },
                        {
                          "internalType": "uint16",
                          "name": "year",
                          "type": "uint16"
                        },
                        {
                          "internalType": "uint8",
                          "name": "hour",
                          "type": "uint8"
                        },
                        {
                          "internalType": "uint8",
                          "name": "minute",
                          "type": "uint8"
                        }
                      ],
                      "internalType": "struct OwnerToCompany.Date",
                      "name": "creation",
                      "type": "tuple"
                    }
                  ],
                  "internalType": "struct OwnerToCompany.CarPartDescription",
                  "name": "description",
                  "type": "tuple"
                }
              ],
              "internalType": "struct OwnerToCompany.CarPartInfo",
              "name": "carPart_info",
              "type": "tuple"
            },
            {
              "internalType": "uint128",
              "name": "price",
              "type": "uint128"
            }
          ],
          "name": "addSale",
          "outputs": [
            {
              "internalType": "bool",
              "name": "",
              "type": "bool"
            },
            {
              "internalType": "string",
              "name": "",
              "type": "string"
            },
            {
              "internalType": "int256",
              "name": "",
              "type": "int256"
            }
          ],
          "stateMutability": "payable",
          "type": "function"
        },
        {
          "inputs": [
            {
              "internalType": "string",
              "name": "_name",
              "type": "string"
            }
          ],
          "name": "changeName",
          "outputs": [],
          "stateMutability": "nonpayable",
          "type": "function"
        },
        {
          "inputs": [],
          "name": "getName",
          "outputs": [
            {
              "internalType": "string",
              "name": "",
              "type": "string"
            }
          ],
          "stateMutability": "view",
          "type": "function"
        },
        {
          "inputs": [
            {
              "internalType": "string",
              "name": "_name",
              "type": "string"
            },
            {
              "components": [
                {
                  "internalType": "string",
                  "name": "street",
                  "type": "string"
                },
                {
                  "internalType": "string",
                  "name": "number",
                  "type": "string"
                },
                {
                  "internalType": "string",
                  "name": "addr_details",
                  "type": "string"
                },
                {
                  "internalType": "string",
                  "name": "zip_code",
                  "type": "string"
                },
                {
                  "internalType": "string",
                  "name": "city",
                  "type": "string"
                },
                {
                  "internalType": "string",
                  "name": "state",
                  "type": "string"
                }
              ],
              "internalType": "struct OwnerToCompany.Address",
              "name": "_address",
              "type": "tuple"
            },
            {
              "internalType": "string",
              "name": "_id",
              "type": "string"
            }
          ],
          "name": "setCompanyInfo",
          "outputs": [],
          "stateMutability": "nonpayable",
          "type": "function"
        },
        {
          "inputs": [
            {
              "internalType": "uint8",
              "name": "day",
              "type": "uint8"
            },
            {
              "internalType": "uint8",
              "name": "month",
              "type": "uint8"
            },
            {
              "internalType": "uint16",
              "name": "year",
              "type": "uint16"
            },
            {
              "internalType": "uint8",
              "name": "hour",
              "type": "uint8"
            },
            {
              "internalType": "uint8",
              "name": "minute",
              "type": "uint8"
            }
          ],
          "name": "setDate",
          "outputs": [],
          "stateMutability": "nonpayable",
          "type": "function"
        },
        {
          "inputs": [
            {
              "internalType": "string",
              "name": "_name",
              "type": "string"
            },
            {
              "components": [
                {
                  "internalType": "string",
                  "name": "street",
                  "type": "string"
                },
                {
                  "internalType": "string",
                  "name": "number",
                  "type": "string"
                },
                {
                  "internalType": "string",
                  "name": "addr_details",
                  "type": "string"
                },
                {
                  "internalType": "string",
                  "name": "zip_code",
                  "type": "string"
                },
                {
                  "internalType": "string",
                  "name": "city",
                  "type": "string"
                },
                {
                  "internalType": "string",
                  "name": "state",
                  "type": "string"
                }
              ],
              "internalType": "struct OwnerToCompany.Address",
              "name": "_address",
              "type": "tuple"
            },
            {
              "internalType": "string",
              "name": "_id",
              "type": "string"
            }
          ],
          "name": "setOwnerInfo",
          "outputs": [],
          "stateMutability": "nonpayable",
          "type": "function"
        }
      ],
      "evm": {
        "bytecode": {
          "linkReferences": {},
          "object": "608060405260405180606001604052806040518060400160405280600681526020017f4e4f524d414c000000000000000000000000000000000000000000000000000081525081526020016040518060400160405280600581526020017f545241444500000000000000000000000000000000000000000000000000000081525081526020016040518060400160405280600481526020017f47494654000000000000000000000000000000000000000000000000000000008152508152506001906003620000d0929190620001c8565b506000600855348015620000e357600080fd5b506040516200269a3803806200269a8339818101604052810190620001099190620004dd565b6200013d7f9cb68fe2e5e45863e7ae5e3bd897d4335aae0b4c78da317bcaa20556d970fffd60001b620001c560201b60201c565b620001717fe0c71756e2707b7b28903f8b89e27893da56357eec5f19ff28de28902959f6ee60001b620001c560201b60201c565b620001a57f8ea1a64111742ed5197196d73596d8afa414ad5f04cb5418a953032c00b25e8260001b620001c560201b60201c565b8060009080519060200190620001bd92919062000222565b505062000593565b50565b82600381019282156200020f579160200282015b828111156200020e578251829080519060200190620001fd92919062000222565b5091602001919060010190620001dc565b5b5090506200021e9190620002b3565b5090565b82805462000230906200055d565b90600052602060002090601f016020900481019282620002545760008555620002a0565b82601f106200026f57805160ff1916838001178555620002a0565b82800160010185558215620002a0579182015b828111156200029f57825182559160200191906001019062000282565b5b509050620002af9190620002db565b5090565b5b80821115620002d75760008181620002cd9190620002fa565b50600101620002b4565b5090565b5b80821115620002f6576000816000905550600101620002dc565b5090565b50805462000308906200055d565b6000825580601f106200031c57506200033d565b601f0160209004906000526020600020908101906200033c9190620002db565b5b50565b6000604051905090565b600080fd5b600080fd5b600080fd5b600080fd5b6000601f19601f8301169050919050565b7f4e487b7100000000000000000000000000000000000000000000000000000000600052604160045260246000fd5b620003a9826200035e565b810181811067ffffffffffffffff82111715620003cb57620003ca6200036f565b5b80604052505050565b6000620003e062000340565b9050620003ee82826200039e565b919050565b600067ffffffffffffffff8211156200041157620004106200036f565b5b6200041c826200035e565b9050602081019050919050565b60005b83811015620004495780820151818401526020810190506200042c565b8381111562000459576000848401525b50505050565b6000620004766200047084620003f3565b620003d4565b90508281526020810184848401111562000495576200049462000359565b5b620004a284828562000429565b509392505050565b600082601f830112620004c257620004c162000354565b5b8151620004d48482602086016200045f565b91505092915050565b600060208284031215620004f657620004f56200034a565b5b600082015167ffffffffffffffff8111156200051757620005166200034f565b5b6200052584828501620004aa565b91505092915050565b7f4e487b7100000000000000000000000000000000000000000000000000000000600052602260045260246000fd5b600060028204905060018216806200057657607f821691505b602082108114156200058d576200058c6200052e565b5b50919050565b6120f780620005a36000396000f3fe6080604052600436106100555760003560e01c806317d7de7c1461005a578063409dd70714610085578063517ca9f4146100ae5780635353a2d8146100e057806370c64351146101095780639747a20014610132575b600080fd5b34801561006657600080fd5b5061006f61015b565b60405161007c9190611729565b60405180910390f35b34801561009157600080fd5b506100ac60048036038101906100a791906119e6565b610271565b005b6100c860048036038101906100c39190611d86565b610504565b6040516100d793929190611e6f565b60405180910390f35b3480156100ec57600080fd5b5061010760048036038101906101029190611ead565b610f3c565b005b34801561011557600080fd5b50610130600480360381019061012b9190611ef6565b610fda565b005b34801561013e57600080fd5b50610159600480360381019061015491906119e6565b6112ca565b005b60606101897fb6febfdc3b6189c3ee731ab4c29f11d5c7196c080bcb8c15a53d4e6213c5b39560001b61155d565b6101b57f943bf6cba249e1ada24d8eb60b18194e2e3b3d1d200bc77c97d47b395fdb05e660001b61155d565b6101e17f7b35b24d5e36035a4d7e161b45cb4db394fe99a49ea29ed0c93c820168f0afde60001b61155d565b600080546101ee90611fa0565b80601f016020809104026020016040519081016040528092919081815260200182805461021a90611fa0565b80156102675780601f1061023c57610100808354040283529160200191610267565b820191906000526020600020905b81548152906001019060200180831161024a57829003601f168201915b5050505050905090565b61029d7f870a469a7da06646f0e1861793851d84a97e92aa7d02bd56a517934f4f4dfcc260001b61155d565b6102c97f47023e2d016bc472362a36dde3f766bce078325fce1a062b7845aa95851d46ae60001b61155d565b6102f57f784dd6b436404ce01debbcf42626c26dc1dae49355f6eaf949b93c75e2b168a260001b61155d565b6000600660006008548152602001908152602001600020905061033a7fa12f34aaecb8f16c57766c6e6fd4bb5650d391d0849e847e2cddc5b480f8a3c660001b61155d565b6103667f6df385fd01f80903eabfeecbc5a310baae2bb0dbd856da7e9e32264bde245ff660001b61155d565b8181600701908051906020019061037e929190611560565b506103ab7f79b068737e37ccd2d53f9901128dd7dc2f49b6e5d9e761e0b4bd7e96e08d937b60001b61155d565b6103d77ffc9403c6264871a6b5ce0aa287c35ebc7615c2dc212083c08381805a8ea040e260001b61155d565b838160000190805190602001906103ef929190611560565b5061041c7f3dccaef7dc6c9032f26ff7052d40ff48b30d58c6ae9833392aadd76e6c1de45660001b61155d565b6104487f4d57261466d5280f89c7194845755371f86d1e0d85291127ea98ea94759b60f560001b61155d565b82816001016000820151816000019080519060200190610469929190611560565b506020820151816001019080519060200190610486929190611560565b5060408201518160020190805190602001906104a3929190611560565b5060608201518160030190805190602001906104c0929190611560565b5060808201518160040190805190602001906104dd929190611560565b5060a08201518160050190805190602001906104fa929190611560565b5090505050505050565b6000606060006105367f16501bfc64e53fa0127db52e280ef351d1ae2d21685f53fa2f56fe084dd3a90460001b61155d565b6105627f1cb3fc7df858ef8959d0f098672f19f1008d0646018d1bed5362475aed82c7a060001b61155d565b61058e7f0114f8c5bdd2f8668dbb924cca033b2961b59f9a8608977ec3c47fb1f314bdd260001b61155d565b836fffffffffffffffffffffffffffffffff163414610711576105d27ef8abdf795e4e695ea762d68cc4d7665f3ad456b2005736d250995fe8857ecc60001b61155d565b6105fe7f850aa47e95b933f97d18c31d75eb209787e4c3cf38f6b9f4b10c123b9082038560001b61155d565b61062a7f6ba4dc3baf0badb256a6a6a480753beacf3d23f97ae9b6179e9dda4080e7760960001b61155d565b8573ffffffffffffffffffffffffffffffffffffffff166108fc349081150290604051600060405180830381858888f19350505050158015610670573d6000803e3d6000fd5b5061069d7f5dbbd9a88839f8e4aff55c44eacb8d263b8abec4cdfb9fac66998c922368666b60001b61155d565b6106c97fee6008be172b57250877a21e4ff796e97fe7dd6449b393f919ec59801cff9b7f60001b61155d565b60007fffffffffffffffffffffffffffffffffffffffffffffffffffffffffffffffff6040518060600160405280603981526020016120896039913990925092509250610f31565b61073d7faf3bac6d3df658e65803c0af8d7e71d1417ba29ffa142ef8b7ed1e4ae9b71c0160001b61155d565b6107697f23d8c74e02ba85d24b987a0164f378eab55abeb683c5dae7ce383bc96f1362ca60001b61155d565b6107957f9d71b182401ae83270c4deeff178fa59dd3a136f36e83b0c2426fcd4817f949460001b61155d565b600060046000600854815260200190815260200160002090506107da7fd5d00c1cf93d495b0168e2fd7b3fd237aaa95d99d4b38869657dca63face401a60001b61155d565b6108067f42ba79315ab5fac7b2f18b03378ca557fa1114c0adfc4d9f8344a1197c587c8b60001b61155d565b8881600001908051906020019061081e929190611560565b5061084b7f9f3478cc86d3f0c30b491b18fe90b2eff31cd59bcc2d5ea0d075723eabf3ef3860001b61155d565b6108777f5e504cd5c6658ad64073b767b8f639356ef66c95d5e1bbc9e3944bfcf92df67360001b61155d565b878160010160008201518160000160006101000a81548160ff021916908360ff16021790555060208201518160000160016101000a81548160ff021916908360ff16021790555060408201518160000160026101000a81548161ffff021916908361ffff16021790555060608201518160000160046101000a81548160ff021916908360ff16021790555060808201518160000160056101000a81548160ff021916908360ff1602179055509050506109527fdcb8f69a348338c14a036606e2bf05ff733d894bd1999550cb34171d9e8cbb1d60001b61155d565b61097e7fb231786fa7bbbfd53c7bbd1a809a526ef168b52816f4794a86f24204cddf8e2060001b61155d565b6005600060085481526020019081526020016000208160020160008201816000019080546109ab90611fa0565b6109b69291906115e6565b50600182018160010160008201816000019080546109d390611fa0565b6109de9291906115e6565b5060018201816001019080546109f390611fa0565b6109fe9291906115e6565b506002820181600201908054610a1390611fa0565b610a1e9291906115e6565b506003820181600301908054610a3390611fa0565b610a3e9291906115e6565b506004820181600401908054610a5390611fa0565b610a5e9291906115e6565b506005820181600501908054610a7390611fa0565b610a7e9291906115e6565b5050506007820181600701908054610a9590611fa0565b610aa09291906115e6565b50905050610ad07f8d686b05abafa744c863ff66b4ca7477b5fc146d9021a965360ea39ce636d1d860001b61155d565b610afc7f3a23034266080d051e6cc4f6f264f25f240fb44d87ba5972b26a1303d30a841660001b61155d565b60066000600854815260200190815260200160002081600a016000820181600001908054610b2990611fa0565b610b349291906115e6565b5060018201816001016000820181600001908054610b5190611fa0565b610b5c9291906115e6565b506001820181600101908054610b7190611fa0565b610b7c9291906115e6565b506002820181600201908054610b9190611fa0565b610b9c9291906115e6565b506003820181600301908054610bb190611fa0565b610bbc9291906115e6565b506004820181600401908054610bd190611fa0565b610bdc9291906115e6565b506005820181600501908054610bf190611fa0565b610bfc9291906115e6565b5050506007820181600701908054610c1390611fa0565b610c1e9291906115e6565b50905050610c4e7f6fb1e300e1a61af2e82d78c6d5a74bce2eba5d0a8582d3c931115de78bee1c8260001b61155d565b610c7a7f2ba6036df372b9fb29db5919206c6c50920a8715509b4ad60e327834e45d156e60001b61155d565b85816012016000820151816000019080519060200190610c9b929190611560565b506020820151816001019080519060200190610cb8929190611560565b506040820151816002016000820151816000019080519060200190610cde929190611560565b506020820151816001019080519060200190610cfb929190611560565b5060408201518160020160008201518160000160006101000a81548160ff021916908360ff16021790555060208201518160000160016101000a81548160ff021916908360ff16021790555060408201518160000160026101000a81548161ffff021916908361ffff16021790555060608201518160000160046101000a81548160ff021916908360ff16021790555060808201518160000160056101000a81548160ff021916908360ff16021790555050505050905050610ddf7f970e99947a77e1b9e2d79839d1da73c369b5bd415b9a5f126b694fcc396d344660001b61155d565b610e0b7fced965dc1aa0f02b1741ad019aaf6c2bc08930cb61caa4be0ad77d84c814514d60001b61155d565b848160170160006101000a8154816fffffffffffffffffffffffffffffffff02191690836fffffffffffffffffffffffffffffffff160217905550610e727fbaaceee0b935bf2b4e6262b6359b5e23b147a185fc083ce571440d35844e859760001b61155d565b60086000815480929190610e859061200b565b9190505550610eb67fb2d8f45a82bfdd9a40b9dc717bd6cd9d64adc4c04765ba6beed4879e7c3365eb60001b61155d565b610ee27f5bc05ec95e33eaa8ce565a0ed9b3b76ef18fecd0e88b073d9917a71f4212b6ab60001b61155d565b600180600854610ef29190612054565b6040518060400160405280600881526020017f537563636573732100000000000000000000000000000000000000000000000081525090935093509350505b955095509592505050565b610f687f9984b8f2187243259acc35cad80bbb8354a609e3b13463c39b9c9efbbb67a84660001b61155d565b610f947f223451563be1b93b93a725ddccb383ddbf6cf3b1e5ffb0f6322413ab74441d0460001b61155d565b610fc07f3e7672fd4dd3ee83e1e9a00d705b45421e524379e128121998201067ac111db460001b61155d565b8060009080519060200190610fd6929190611560565b5050565b6110067fd7058df211153e89d4b5ba6021b9ab7d3736f914b157496c045e8fe31f250da360001b61155d565b6110327f800df6152a42ca0f48ef80d25c7a3705a446f8367a42ebb57f98d43d4f7abecb60001b61155d565b61105e7fb11658ac07d3a7062c23db42fefee1c74eb88e88ea8a4c6c9b56cb57647ca8f160001b61155d565b600060076000600854815260200190815260200160002090506110a37f6d0152557609e965319f4cfdbe515d90d2d41234e39190f2de2df5764eb50b4360001b61155d565b6110cf7f9a45ee739c25e88962e926f571283c9108ef6c8de3aea1afad4923495f5d69f560001b61155d565b858160000160006101000a81548160ff021916908360ff1602179055506111187fdca0b95de551049796d9274e868da98fa73b67550154b91df9e9b2e8e4366c4d60001b61155d565b6111447f6901ca07c61426e81d3f7b6ef5e11a3880387016723e43316717ac91b0781b3560001b61155d565b848160000160016101000a81548160ff021916908360ff16021790555061118d7f5d016c0ea621350c59b39cf06df2469aa00958051448b0ed5bc451663f72e57560001b61155d565b6111b97f81b7056711c4157440e226f477a4bc451d3c154caf152e0bade0f53bebc8aff160001b61155d565b838160000160026101000a81548161ffff021916908361ffff1602179055506112047f1300a89945019e249b3ed87e024e46cdb69e034a4a4615ee2d596e8b46e7526860001b61155d565b6112307f948fd06e3cf88783c2b69f15e4ae3a1a5aacecbfc7ef961044c57ae8f70ad3af60001b61155d565b828160000160046101000a81548160ff021916908360ff1602179055506112797fd3c35d5be3c0d267a93de8041210b82abf70c191bd883582fe31638888104f8760001b61155d565b6112a57fbcb412c28a538d7dc355ed6e94ca42a8146aebc37b2e3ceb5a7ddc2def62f5da60001b61155d565b818160000160056101000a81548160ff021916908360ff160217905550505050505050565b6112f67fa651bf79cf4338035b16221d491b1df9219119b496e88974a52dcdc53557fced60001b61155d565b6113227ff697810fa109861b3239e5485d6a0a041d65d542c43a298e83650c3cb2328af160001b61155d565b61134e7f3eea0ad3fe28c7547200ce5a8c643ea87c6af9197cd6360a8ac915c786db31b760001b61155d565b600060056000600854815260200190815260200160002090506113937fe05c9ae02d0829d2ffb320e3d4f3f5adec68761d043ddb514a47190add3b938860001b61155d565b6113bf7f5ad4a711c4a9096459f9df9f181b2a8f3f2350e7d1481124e749510f841aa2cf60001b61155d565b818160070190805190602001906113d7929190611560565b506114047f199f89ca8c5796bfd43040bf05615619f751b0e606fe8ccd871cb07bef47891160001b61155d565b6114307f06a0e14e576f0aad4e0144bc0840620561271dda25aa93e14c5c96c00a6b442b60001b61155d565b83816000019080519060200190611448929190611560565b506114757f7bd4d1adc4f64ef9a08de6954af141651d441fe0676260de13adf5cd2b684e1c60001b61155d565b6114a17fc9b5d20c6d85d5ba5d7a342d426a646bea9541c47ab4899ad53513f1fc669f7460001b61155d565b828160010160008201518160000190805190602001906114c2929190611560565b5060208201518160010190805190602001906114df929190611560565b5060408201518160020190805190602001906114fc929190611560565b506060820151816003019080519060200190611519929190611560565b506080820151816004019080519060200190611536929190611560565b5060a0820151816005019080519060200190611553929190611560565b5090505050505050565b50565b82805461156c90611fa0565b90600052602060002090601f01602090048101928261158e57600085556115d5565b82601f106115a757805160ff19168380011785556115d5565b828001600101855582156115d5579182015b828111156115d45782518255916020019190600101906115b9565b5b5090506115e29190611673565b5090565b8280546115f290611fa0565b90600052602060002090601f0160209004810192826116145760008555611662565b82601f106116255780548555611662565b8280016001018555821561166257600052602060002091601f016020900482015b82811115611661578254825591600101919060010190611646565b5b50905061166f9190611673565b5090565b5b8082111561168c576000816000905550600101611674565b5090565b600081519050919050565b600082825260208201905092915050565b60005b838110156116ca5780820151818401526020810190506116af565b838111156116d9576000848401525b50505050565b6000601f19601f8301169050919050565b60006116fb82611690565b611705818561169b565b93506117158185602086016116ac565b61171e816116df565b840191505092915050565b6000602082019050818103600083015261174381846116f0565b905092915050565b6000604051905090565b600080fd5b600080fd5b600080fd5b600080fd5b7f4e487b7100000000000000000000000000000000000000000000000000000000600052604160045260246000fd5b6117a1826116df565b810181811067ffffffffffffffff821117156117c0576117bf611769565b5b80604052505050565b60006117d361174b565b90506117df8282611798565b919050565b600067ffffffffffffffff8211156117ff576117fe611769565b5b611808826116df565b9050602081019050919050565b82818337600083830152505050565b6000611837611832846117e4565b6117c9565b90508281526020810184848401111561185357611852611764565b5b61185e848285611815565b509392505050565b600082601f83011261187b5761187a61175f565b5b813561188b848260208601611824565b91505092915050565b600080fd5b600080fd5b600060c082840312156118b4576118b3611894565b5b6118be60c06117c9565b9050600082013567ffffffffffffffff8111156118de576118dd611899565b5b6118ea84828501611866565b600083015250602082013567ffffffffffffffff81111561190e5761190d611899565b5b61191a84828501611866565b602083015250604082013567ffffffffffffffff81111561193e5761193d611899565b5b61194a84828501611866565b604083015250606082013567ffffffffffffffff81111561196e5761196d611899565b5b61197a84828501611866565b606083015250608082013567ffffffffffffffff81111561199e5761199d611899565b5b6119aa84828501611866565b60808301525060a082013567ffffffffffffffff8111156119ce576119cd611899565b5b6119da84828501611866565b60a08301525092915050565b6000806000606084860312156119ff576119fe611755565b5b600084013567ffffffffffffffff811115611a1d57611a1c61175a565b5b611a2986828701611866565b935050602084013567ffffffffffffffff811115611a4a57611a4961175a565b5b611a568682870161189e565b925050604084013567ffffffffffffffff811115611a7757611a7661175a565b5b611a8386828701611866565b9150509250925092565b600060ff82169050919050565b611aa381611a8d565b8114611aae57600080fd5b50565b600081359050611ac081611a9a565b92915050565b600061ffff82169050919050565b611add81611ac6565b8114611ae857600080fd5b50565b600081359050611afa81611ad4565b92915050565b600060a08284031215611b1657611b15611894565b5b611b2060a06117c9565b90506000611b3084828501611ab1565b6000830152506020611b4484828501611ab1565b6020830152506040611b5884828501611aeb565b6040830152506060611b6c84828501611ab1565b6060830152506080611b8084828501611ab1565b60808301525092915050565b600073ffffffffffffffffffffffffffffffffffffffff82169050919050565b6000611bb782611b8c565b9050919050565b611bc781611bac565b8114611bd257600080fd5b50565b600081359050611be481611bbe565b92915050565b600060e08284031215611c0057611bff611894565b5b611c0a60606117c9565b9050600082013567ffffffffffffffff811115611c2a57611c29611899565b5b611c3684828501611866565b600083015250602082013567ffffffffffffffff811115611c5a57611c59611899565b5b611c6684828501611866565b6020830152506040611c7a84828501611b00565b60408301525092915050565b600060608284031215611c9c57611c9b611894565b5b611ca660606117c9565b9050600082013567ffffffffffffffff811115611cc657611cc5611899565b5b611cd284828501611866565b600083015250602082013567ffffffffffffffff811115611cf657611cf5611899565b5b611d0284828501611866565b602083015250604082013567ffffffffffffffff811115611d2657611d25611899565b5b611d3284828501611bea565b60408301525092915050565b60006fffffffffffffffffffffffffffffffff82169050919050565b611d6381611d3e565b8114611d6e57600080fd5b50565b600081359050611d8081611d5a565b92915050565b60008060008060006101208688031215611da357611da2611755565b5b600086013567ffffffffffffffff811115611dc157611dc061175a565b5b611dcd88828901611866565b9550506020611dde88828901611b00565b94505060c0611def88828901611bd5565b93505060e086013567ffffffffffffffff811115611e1057611e0f61175a565b5b611e1c88828901611c86565b925050610100611e2e88828901611d71565b9150509295509295909350565b60008115159050919050565b611e5081611e3b565b82525050565b6000819050919050565b611e6981611e56565b82525050565b6000606082019050611e846000830186611e47565b8181036020830152611e9681856116f0565b9050611ea56040830184611e60565b949350505050565b600060208284031215611ec357611ec2611755565b5b600082013567ffffffffffffffff811115611ee157611ee061175a565b5b611eed84828501611866565b91505092915050565b600080600080600060a08688031215611f1257611f11611755565b5b6000611f2088828901611ab1565b9550506020611f3188828901611ab1565b9450506040611f4288828901611aeb565b9350506060611f5388828901611ab1565b9250506080611f6488828901611ab1565b9150509295509295909350565b7f4e487b7100000000000000000000000000000000000000000000000000000000600052602260045260246000fd5b60006002820490506001821680611fb857607f821691505b60208210811415611fcc57611fcb611f71565b5b50919050565b7f4e487b7100000000000000000000000000000000000000000000000000000000600052601160045260246000fd5b6000819050919050565b600061201682612001565b91507fffffffffffffffffffffffffffffffffffffffffffffffffffffffffffffffff82141561204957612048611fd2565b5b600182019050919050565b600061205f82612001565b915061206a83612001565b92508282101561207d5761207c611fd2565b5b82820390509291505056fe496e666f726d656420707269636520646f6573206e6f7420636f72726573706f6e6420746f2073656e7420696e20746865206d657373616765a26469706673582212202bb99dd23107ed8ca5c7e791234528353c9ea2a7cb5bb2a9c8cb016b5f4ab24564736f6c63430008090033",
          "opcodes": "PUSH1 0x80 PUSH1 0x40 MSTORE PUSH1 0x40 MLOAD DUP1 PUSH1 0x60 ADD PUSH1 0x40 MSTORE DUP1 PUSH1 0x40 MLOAD DUP1 PUSH1 0x40 ADD PUSH1 0x40 MSTORE DUP1 PUSH1 0x6 DUP2 MSTORE PUSH1 0x20 ADD PUSH32 0x4E4F524D414C0000000000000000000000000000000000000000000000000000 DUP2 MSTORE POP DUP2 MSTORE PUSH1 0x20 ADD PUSH1 0x40 MLOAD DUP1 PUSH1 0x40 ADD PUSH1 0x40 MSTORE DUP1 PUSH1 0x5 DUP2 MSTORE PUSH1 0x20 ADD PUSH32 0x5452414445000000000000000000000000000000000000000000000000000000 DUP2 MSTORE POP DUP2 MSTORE PUSH1 0x20 ADD PUSH1 0x40 MLOAD DUP1 PUSH1 0x40 ADD PUSH1 0x40 MSTORE DUP1 PUSH1 0x4 DUP2 MSTORE PUSH1 0x20 ADD PUSH32 0x4749465400000000000000000000000000000000000000000000000000000000 DUP2 MSTORE POP DUP2 MSTORE POP PUSH1 0x1 SWAP1 PUSH1 0x3 PUSH3 0xD0 SWAP3 SWAP2 SWAP1 PUSH3 0x1C8 JUMP JUMPDEST POP PUSH1 0x0 PUSH1 0x8 SSTORE CALLVALUE DUP1 ISZERO PUSH3 0xE3 JUMPI PUSH1 0x0 DUP1 REVERT JUMPDEST POP PUSH1 0x40 MLOAD PUSH3 0x269A CODESIZE SUB DUP1 PUSH3 0x269A DUP4 CODECOPY DUP2 DUP2 ADD PUSH1 0x40 MSTORE DUP2 ADD SWAP1 PUSH3 0x109 SWAP2 SWAP1 PUSH3 0x4DD JUMP JUMPDEST PUSH3 0x13D PUSH32 0x9CB68FE2E5E45863E7AE5E3BD897D4335AAE0B4C78DA317BCAA20556D970FFFD PUSH1 0x0 SHL PUSH3 0x1C5 PUSH1 0x20 SHL PUSH1 0x20 SHR JUMP JUMPDEST PUSH3 0x171 PUSH32 0xE0C71756E2707B7B28903F8B89E27893DA56357EEC5F19FF28DE28902959F6EE PUSH1 0x0 SHL PUSH3 0x1C5 PUSH1 0x20 SHL PUSH1 0x20 SHR JUMP JUMPDEST PUSH3 0x1A5 PUSH32 0x8EA1A64111742ED5197196D73596D8AFA414AD5F04CB5418A953032C00B25E82 PUSH1 0x0 SHL PUSH3 0x1C5 PUSH1 0x20 SHL PUSH1 0x20 SHR JUMP JUMPDEST DUP1 PUSH1 0x0 SWAP1 DUP1 MLOAD SWAP1 PUSH1 0x20 ADD SWAP1 PUSH3 0x1BD SWAP3 SWAP2 SWAP1 PUSH3 0x222 JUMP JUMPDEST POP POP PUSH3 0x593 JUMP JUMPDEST POP JUMP JUMPDEST DUP3 PUSH1 0x3 DUP2 ADD SWAP3 DUP3 ISZERO PUSH3 0x20F JUMPI SWAP2 PUSH1 0x20 MUL DUP3 ADD JUMPDEST DUP3 DUP2 GT ISZERO PUSH3 0x20E JUMPI DUP3 MLOAD DUP3 SWAP1 DUP1 MLOAD SWAP1 PUSH1 0x20 ADD SWAP1 PUSH3 0x1FD SWAP3 SWAP2 SWAP1 PUSH3 0x222 JUMP JUMPDEST POP SWAP2 PUSH1 0x20 ADD SWAP2 SWAP1 PUSH1 0x1 ADD SWAP1 PUSH3 0x1DC JUMP JUMPDEST JUMPDEST POP SWAP1 POP PUSH3 0x21E SWAP2 SWAP1 PUSH3 0x2B3 JUMP JUMPDEST POP SWAP1 JUMP JUMPDEST DUP3 DUP1 SLOAD PUSH3 0x230 SWAP1 PUSH3 0x55D JUMP JUMPDEST SWAP1 PUSH1 0x0 MSTORE PUSH1 0x20 PUSH1 0x0 KECCAK256 SWAP1 PUSH1 0x1F ADD PUSH1 0x20 SWAP1 DIV DUP2 ADD SWAP3 DUP3 PUSH3 0x254 JUMPI PUSH1 0x0 DUP6 SSTORE PUSH3 0x2A0 JUMP JUMPDEST DUP3 PUSH1 0x1F LT PUSH3 0x26F JUMPI DUP1 MLOAD PUSH1 0xFF NOT AND DUP4 DUP1 ADD OR DUP6 SSTORE PUSH3 0x2A0 JUMP JUMPDEST DUP3 DUP1 ADD PUSH1 0x1 ADD DUP6 SSTORE DUP3 ISZERO PUSH3 0x2A0 JUMPI SWAP2 DUP3 ADD JUMPDEST DUP3 DUP2 GT ISZERO PUSH3 0x29F JUMPI DUP3 MLOAD DUP3 SSTORE SWAP2 PUSH1 0x20 ADD SWAP2 SWAP1 PUSH1 0x1 ADD SWAP1 PUSH3 0x282 JUMP JUMPDEST JUMPDEST POP SWAP1 POP PUSH3 0x2AF SWAP2 SWAP1 PUSH3 0x2DB JUMP JUMPDEST POP SWAP1 JUMP JUMPDEST JUMPDEST DUP1 DUP3 GT ISZERO PUSH3 0x2D7 JUMPI PUSH1 0x0 DUP2 DUP2 PUSH3 0x2CD SWAP2 SWAP1 PUSH3 0x2FA JUMP JUMPDEST POP PUSH1 0x1 ADD PUSH3 0x2B4 JUMP JUMPDEST POP SWAP1 JUMP JUMPDEST JUMPDEST DUP1 DUP3 GT ISZERO PUSH3 0x2F6 JUMPI PUSH1 0x0 DUP2 PUSH1 0x0 SWAP1 SSTORE POP PUSH1 0x1 ADD PUSH3 0x2DC JUMP JUMPDEST POP SWAP1 JUMP JUMPDEST POP DUP1 SLOAD PUSH3 0x308 SWAP1 PUSH3 0x55D JUMP JUMPDEST PUSH1 0x0 DUP3 SSTORE DUP1 PUSH1 0x1F LT PUSH3 0x31C JUMPI POP PUSH3 0x33D JUMP JUMPDEST PUSH1 0x1F ADD PUSH1 0x20 SWAP1 DIV SWAP1 PUSH1 0x0 MSTORE PUSH1 0x20 PUSH1 0x0 KECCAK256 SWAP1 DUP2 ADD SWAP1 PUSH3 0x33C SWAP2 SWAP1 PUSH3 0x2DB JUMP JUMPDEST JUMPDEST POP JUMP JUMPDEST PUSH1 0x0 PUSH1 0x40 MLOAD SWAP1 POP SWAP1 JUMP JUMPDEST PUSH1 0x0 DUP1 REVERT JUMPDEST PUSH1 0x0 DUP1 REVERT JUMPDEST PUSH1 0x0 DUP1 REVERT JUMPDEST PUSH1 0x0 DUP1 REVERT JUMPDEST PUSH1 0x0 PUSH1 0x1F NOT PUSH1 0x1F DUP4 ADD AND SWAP1 POP SWAP2 SWAP1 POP JUMP JUMPDEST PUSH32 0x4E487B7100000000000000000000000000000000000000000000000000000000 PUSH1 0x0 MSTORE PUSH1 0x41 PUSH1 0x4 MSTORE PUSH1 0x24 PUSH1 0x0 REVERT JUMPDEST PUSH3 0x3A9 DUP3 PUSH3 0x35E JUMP JUMPDEST DUP2 ADD DUP2 DUP2 LT PUSH8 0xFFFFFFFFFFFFFFFF DUP3 GT OR ISZERO PUSH3 0x3CB JUMPI PUSH3 0x3CA PUSH3 0x36F JUMP JUMPDEST JUMPDEST DUP1 PUSH1 0x40 MSTORE POP POP POP JUMP JUMPDEST PUSH1 0x0 PUSH3 0x3E0 PUSH3 0x340 JUMP JUMPDEST SWAP1 POP PUSH3 0x3EE DUP3 DUP3 PUSH3 0x39E JUMP JUMPDEST SWAP2 SWAP1 POP JUMP JUMPDEST PUSH1 0x0 PUSH8 0xFFFFFFFFFFFFFFFF DUP3 GT ISZERO PUSH3 0x411 JUMPI PUSH3 0x410 PUSH3 0x36F JUMP JUMPDEST JUMPDEST PUSH3 0x41C DUP3 PUSH3 0x35E JUMP JUMPDEST SWAP1 POP PUSH1 0x20 DUP2 ADD SWAP1 POP SWAP2 SWAP1 POP JUMP JUMPDEST PUSH1 0x0 JUMPDEST DUP4 DUP2 LT ISZERO PUSH3 0x449 JUMPI DUP1 DUP3 ADD MLOAD DUP2 DUP5 ADD MSTORE PUSH1 0x20 DUP2 ADD SWAP1 POP PUSH3 0x42C JUMP JUMPDEST DUP4 DUP2 GT ISZERO PUSH3 0x459 JUMPI PUSH1 0x0 DUP5 DUP5 ADD MSTORE JUMPDEST POP POP POP POP JUMP JUMPDEST PUSH1 0x0 PUSH3 0x476 PUSH3 0x470 DUP5 PUSH3 0x3F3 JUMP JUMPDEST PUSH3 0x3D4 JUMP JUMPDEST SWAP1 POP DUP3 DUP2 MSTORE PUSH1 0x20 DUP2 ADD DUP5 DUP5 DUP5 ADD GT ISZERO PUSH3 0x495 JUMPI PUSH3 0x494 PUSH3 0x359 JUMP JUMPDEST JUMPDEST PUSH3 0x4A2 DUP5 DUP3 DUP6 PUSH3 0x429 JUMP JUMPDEST POP SWAP4 SWAP3 POP POP POP JUMP JUMPDEST PUSH1 0x0 DUP3 PUSH1 0x1F DUP4 ADD SLT PUSH3 0x4C2 JUMPI PUSH3 0x4C1 PUSH3 0x354 JUMP JUMPDEST JUMPDEST DUP2 MLOAD PUSH3 0x4D4 DUP5 DUP3 PUSH1 0x20 DUP7 ADD PUSH3 0x45F JUMP JUMPDEST SWAP2 POP POP SWAP3 SWAP2 POP POP JUMP JUMPDEST PUSH1 0x0 PUSH1 0x20 DUP3 DUP5 SUB SLT ISZERO PUSH3 0x4F6 JUMPI PUSH3 0x4F5 PUSH3 0x34A JUMP JUMPDEST JUMPDEST PUSH1 0x0 DUP3 ADD MLOAD PUSH8 0xFFFFFFFFFFFFFFFF DUP2 GT ISZERO PUSH3 0x517 JUMPI PUSH3 0x516 PUSH3 0x34F JUMP JUMPDEST JUMPDEST PUSH3 0x525 DUP5 DUP3 DUP6 ADD PUSH3 0x4AA JUMP JUMPDEST SWAP2 POP POP SWAP3 SWAP2 POP POP JUMP JUMPDEST PUSH32 0x4E487B7100000000000000000000000000000000000000000000000000000000 PUSH1 0x0 MSTORE PUSH1 0x22 PUSH1 0x4 MSTORE PUSH1 0x24 PUSH1 0x0 REVERT JUMPDEST PUSH1 0x0 PUSH1 0x2 DUP3 DIV SWAP1 POP PUSH1 0x1 DUP3 AND DUP1 PUSH3 0x576 JUMPI PUSH1 0x7F DUP3 AND SWAP2 POP JUMPDEST PUSH1 0x20 DUP3 LT DUP2 EQ ISZERO PUSH3 0x58D JUMPI PUSH3 0x58C PUSH3 0x52E JUMP JUMPDEST JUMPDEST POP SWAP2 SWAP1 POP JUMP JUMPDEST PUSH2 0x20F7 DUP1 PUSH3 0x5A3 PUSH1 0x0 CODECOPY PUSH1 0x0 RETURN INVALID PUSH1 0x80 PUSH1 0x40 MSTORE PUSH1 0x4 CALLDATASIZE LT PUSH2 0x55 JUMPI PUSH1 0x0 CALLDATALOAD PUSH1 0xE0 SHR DUP1 PUSH4 0x17D7DE7C EQ PUSH2 0x5A JUMPI DUP1 PUSH4 0x409DD707 EQ PUSH2 0x85 JUMPI DUP1 PUSH4 0x517CA9F4 EQ PUSH2 0xAE JUMPI DUP1 PUSH4 0x5353A2D8 EQ PUSH2 0xE0 JUMPI DUP1 PUSH4 0x70C64351 EQ PUSH2 0x109 JUMPI DUP1 PUSH4 0x9747A200 EQ PUSH2 0x132 JUMPI JUMPDEST PUSH1 0x0 DUP1 REVERT JUMPDEST CALLVALUE DUP1 ISZERO PUSH2 0x66 JUMPI PUSH1 0x0 DUP1 REVERT JUMPDEST POP PUSH2 0x6F PUSH2 0x15B JUMP JUMPDEST PUSH1 0x40 MLOAD PUSH2 0x7C SWAP2 SWAP1 PUSH2 0x1729 JUMP JUMPDEST PUSH1 0x40 MLOAD DUP1 SWAP2 SUB SWAP1 RETURN JUMPDEST CALLVALUE DUP1 ISZERO PUSH2 0x91 JUMPI PUSH1 0x0 DUP1 REVERT JUMPDEST POP PUSH2 0xAC PUSH1 0x4 DUP1 CALLDATASIZE SUB DUP2 ADD SWAP1 PUSH2 0xA7 SWAP2 SWAP1 PUSH2 0x19E6 JUMP JUMPDEST PUSH2 0x271 JUMP JUMPDEST STOP JUMPDEST PUSH2 0xC8 PUSH1 0x4 DUP1 CALLDATASIZE SUB DUP2 ADD SWAP1 PUSH2 0xC3 SWAP2 SWAP1 PUSH2 0x1D86 JUMP JUMPDEST PUSH2 0x504 JUMP JUMPDEST PUSH1 0x40 MLOAD PUSH2 0xD7 SWAP4 SWAP3 SWAP2 SWAP1 PUSH2 0x1E6F JUMP JUMPDEST PUSH1 0x40 MLOAD DUP1 SWAP2 SUB SWAP1 RETURN JUMPDEST CALLVALUE DUP1 ISZERO PUSH2 0xEC JUMPI PUSH1 0x0 DUP1 REVERT JUMPDEST POP PUSH2 0x107 PUSH1 0x4 DUP1 CALLDATASIZE SUB DUP2 ADD SWAP1 PUSH2 0x102 SWAP2 SWAP1 PUSH2 0x1EAD JUMP JUMPDEST PUSH2 0xF3C JUMP JUMPDEST STOP JUMPDEST CALLVALUE DUP1 ISZERO PUSH2 0x115 JUMPI PUSH1 0x0 DUP1 REVERT JUMPDEST POP PUSH2 0x130 PUSH1 0x4 DUP1 CALLDATASIZE SUB DUP2 ADD SWAP1 PUSH2 0x12B SWAP2 SWAP1 PUSH2 0x1EF6 JUMP JUMPDEST PUSH2 0xFDA JUMP JUMPDEST STOP JUMPDEST CALLVALUE DUP1 ISZERO PUSH2 0x13E JUMPI PUSH1 0x0 DUP1 REVERT JUMPDEST POP PUSH2 0x159 PUSH1 0x4 DUP1 CALLDATASIZE SUB DUP2 ADD SWAP1 PUSH2 0x154 SWAP2 SWAP1 PUSH2 0x19E6 JUMP JUMPDEST PUSH2 0x12CA JUMP JUMPDEST STOP JUMPDEST PUSH1 0x60 PUSH2 0x189 PUSH32 0xB6FEBFDC3B6189C3EE731AB4C29F11D5C7196C080BCB8C15A53D4E6213C5B395 PUSH1 0x0 SHL PUSH2 0x155D JUMP JUMPDEST PUSH2 0x1B5 PUSH32 0x943BF6CBA249E1ADA24D8EB60B18194E2E3B3D1D200BC77C97D47B395FDB05E6 PUSH1 0x0 SHL PUSH2 0x155D JUMP JUMPDEST PUSH2 0x1E1 PUSH32 0x7B35B24D5E36035A4D7E161B45CB4DB394FE99A49EA29ED0C93C820168F0AFDE PUSH1 0x0 SHL PUSH2 0x155D JUMP JUMPDEST PUSH1 0x0 DUP1 SLOAD PUSH2 0x1EE SWAP1 PUSH2 0x1FA0 JUMP JUMPDEST DUP1 PUSH1 0x1F ADD PUSH1 0x20 DUP1 SWAP2 DIV MUL PUSH1 0x20 ADD PUSH1 0x40 MLOAD SWAP1 DUP2 ADD PUSH1 0x40 MSTORE DUP1 SWAP3 SWAP2 SWAP1 DUP2 DUP2 MSTORE PUSH1 0x20 ADD DUP3 DUP1 SLOAD PUSH2 0x21A SWAP1 PUSH2 0x1FA0 JUMP JUMPDEST DUP1 ISZERO PUSH2 0x267 JUMPI DUP1 PUSH1 0x1F LT PUSH2 0x23C JUMPI PUSH2 0x100 DUP1 DUP4 SLOAD DIV MUL DUP4 MSTORE SWAP2 PUSH1 0x20 ADD SWAP2 PUSH2 0x267 JUMP JUMPDEST DUP3 ADD SWAP2 SWAP1 PUSH1 0x0 MSTORE PUSH1 0x20 PUSH1 0x0 KECCAK256 SWAP1 JUMPDEST DUP2 SLOAD DUP2 MSTORE SWAP1 PUSH1 0x1 ADD SWAP1 PUSH1 0x20 ADD DUP1 DUP4 GT PUSH2 0x24A JUMPI DUP3 SWAP1 SUB PUSH1 0x1F AND DUP3 ADD SWAP2 JUMPDEST POP POP POP POP POP SWAP1 POP SWAP1 JUMP JUMPDEST PUSH2 0x29D PUSH32 0x870A469A7DA06646F0E1861793851D84A97E92AA7D02BD56A517934F4F4DFCC2 PUSH1 0x0 SHL PUSH2 0x155D JUMP JUMPDEST PUSH2 0x2C9 PUSH32 0x47023E2D016BC472362A36DDE3F766BCE078325FCE1A062B7845AA95851D46AE PUSH1 0x0 SHL PUSH2 0x155D JUMP JUMPDEST PUSH2 0x2F5 PUSH32 0x784DD6B436404CE01DEBBCF42626C26DC1DAE49355F6EAF949B93C75E2B168A2 PUSH1 0x0 SHL PUSH2 0x155D JUMP JUMPDEST PUSH1 0x0 PUSH1 0x6 PUSH1 0x0 PUSH1 0x8 SLOAD DUP2 MSTORE PUSH1 0x20 ADD SWAP1 DUP2 MSTORE PUSH1 0x20 ADD PUSH1 0x0 KECCAK256 SWAP1 POP PUSH2 0x33A PUSH32 0xA12F34AAECB8F16C57766C6E6FD4BB5650D391D0849E847E2CDDC5B480F8A3C6 PUSH1 0x0 SHL PUSH2 0x155D JUMP JUMPDEST PUSH2 0x366 PUSH32 0x6DF385FD01F80903EABFEECBC5A310BAAE2BB0DBD856DA7E9E32264BDE245FF6 PUSH1 0x0 SHL PUSH2 0x155D JUMP JUMPDEST DUP2 DUP2 PUSH1 0x7 ADD SWAP1 DUP1 MLOAD SWAP1 PUSH1 0x20 ADD SWAP1 PUSH2 0x37E SWAP3 SWAP2 SWAP1 PUSH2 0x1560 JUMP JUMPDEST POP PUSH2 0x3AB PUSH32 0x79B068737E37CCD2D53F9901128DD7DC2F49B6E5D9E761E0B4BD7E96E08D937B PUSH1 0x0 SHL PUSH2 0x155D JUMP JUMPDEST PUSH2 0x3D7 PUSH32 0xFC9403C6264871A6B5CE0AA287C35EBC7615C2DC212083C08381805A8EA040E2 PUSH1 0x0 SHL PUSH2 0x155D JUMP JUMPDEST DUP4 DUP2 PUSH1 0x0 ADD SWAP1 DUP1 MLOAD SWAP1 PUSH1 0x20 ADD SWAP1 PUSH2 0x3EF SWAP3 SWAP2 SWAP1 PUSH2 0x1560 JUMP JUMPDEST POP PUSH2 0x41C PUSH32 0x3DCCAEF7DC6C9032F26FF7052D40FF48B30D58C6AE9833392AADD76E6C1DE456 PUSH1 0x0 SHL PUSH2 0x155D JUMP JUMPDEST PUSH2 0x448 PUSH32 0x4D57261466D5280F89C7194845755371F86D1E0D85291127EA98EA94759B60F5 PUSH1 0x0 SHL PUSH2 0x155D JUMP JUMPDEST DUP3 DUP2 PUSH1 0x1 ADD PUSH1 0x0 DUP3 ADD MLOAD DUP2 PUSH1 0x0 ADD SWAP1 DUP1 MLOAD SWAP1 PUSH1 0x20 ADD SWAP1 PUSH2 0x469 SWAP3 SWAP2 SWAP1 PUSH2 0x1560 JUMP JUMPDEST POP PUSH1 0x20 DUP3 ADD MLOAD DUP2 PUSH1 0x1 ADD SWAP1 DUP1 MLOAD SWAP1 PUSH1 0x20 ADD SWAP1 PUSH2 0x486 SWAP3 SWAP2 SWAP1 PUSH2 0x1560 JUMP JUMPDEST POP PUSH1 0x40 DUP3 ADD MLOAD DUP2 PUSH1 0x2 ADD SWAP1 DUP1 MLOAD SWAP1 PUSH1 0x20 ADD SWAP1 PUSH2 0x4A3 SWAP3 SWAP2 SWAP1 PUSH2 0x1560 JUMP JUMPDEST POP PUSH1 0x60 DUP3 ADD MLOAD DUP2 PUSH1 0x3 ADD SWAP1 DUP1 MLOAD SWAP1 PUSH1 0x20 ADD SWAP1 PUSH2 0x4C0 SWAP3 SWAP2 SWAP1 PUSH2 0x1560 JUMP JUMPDEST POP PUSH1 0x80 DUP3 ADD MLOAD DUP2 PUSH1 0x4 ADD SWAP1 DUP1 MLOAD SWAP1 PUSH1 0x20 ADD SWAP1 PUSH2 0x4DD SWAP3 SWAP2 SWAP1 PUSH2 0x1560 JUMP JUMPDEST POP PUSH1 0xA0 DUP3 ADD MLOAD DUP2 PUSH1 0x5 ADD SWAP1 DUP1 MLOAD SWAP1 PUSH1 0x20 ADD SWAP1 PUSH2 0x4FA SWAP3 SWAP2 SWAP1 PUSH2 0x1560 JUMP JUMPDEST POP SWAP1 POP POP POP POP POP POP JUMP JUMPDEST PUSH1 0x0 PUSH1 0x60 PUSH1 0x0 PUSH2 0x536 PUSH32 0x16501BFC64E53FA0127DB52E280EF351D1AE2D21685F53FA2F56FE084DD3A904 PUSH1 0x0 SHL PUSH2 0x155D JUMP JUMPDEST PUSH2 0x562 PUSH32 0x1CB3FC7DF858EF8959D0F098672F19F1008D0646018D1BED5362475AED82C7A0 PUSH1 0x0 SHL PUSH2 0x155D JUMP JUMPDEST PUSH2 0x58E PUSH32 0x114F8C5BDD2F8668DBB924CCA033B2961B59F9A8608977EC3C47FB1F314BDD2 PUSH1 0x0 SHL PUSH2 0x155D JUMP JUMPDEST DUP4 PUSH16 0xFFFFFFFFFFFFFFFFFFFFFFFFFFFFFFFF AND CALLVALUE EQ PUSH2 0x711 JUMPI PUSH2 0x5D2 PUSH31 0xF8ABDF795E4E695EA762D68CC4D7665F3AD456B2005736D250995FE8857ECC PUSH1 0x0 SHL PUSH2 0x155D JUMP JUMPDEST PUSH2 0x5FE PUSH32 0x850AA47E95B933F97D18C31D75EB209787E4C3CF38F6B9F4B10C123B90820385 PUSH1 0x0 SHL PUSH2 0x155D JUMP JUMPDEST PUSH2 0x62A PUSH32 0x6BA4DC3BAF0BADB256A6A6A480753BEACF3D23F97AE9B6179E9DDA4080E77609 PUSH1 0x0 SHL PUSH2 0x155D JUMP JUMPDEST DUP6 PUSH20 0xFFFFFFFFFFFFFFFFFFFFFFFFFFFFFFFFFFFFFFFF AND PUSH2 0x8FC CALLVALUE SWAP1 DUP2 ISZERO MUL SWAP1 PUSH1 0x40 MLOAD PUSH1 0x0 PUSH1 0x40 MLOAD DUP1 DUP4 SUB DUP2 DUP6 DUP9 DUP9 CALL SWAP4 POP POP POP POP ISZERO DUP1 ISZERO PUSH2 0x670 JUMPI RETURNDATASIZE PUSH1 0x0 DUP1 RETURNDATACOPY RETURNDATASIZE PUSH1 0x0 REVERT JUMPDEST POP PUSH2 0x69D PUSH32 0x5DBBD9A88839F8E4AFF55C44EACB8D263B8ABEC4CDFB9FAC66998C922368666B PUSH1 0x0 SHL PUSH2 0x155D JUMP JUMPDEST PUSH2 0x6C9 PUSH32 0xEE6008BE172B57250877A21E4FF796E97FE7DD6449B393F919EC59801CFF9B7F PUSH1 0x0 SHL PUSH2 0x155D JUMP JUMPDEST PUSH1 0x0 PUSH32 0xFFFFFFFFFFFFFFFFFFFFFFFFFFFFFFFFFFFFFFFFFFFFFFFFFFFFFFFFFFFFFFFF PUSH1 0x40 MLOAD DUP1 PUSH1 0x60 ADD PUSH1 0x40 MSTORE DUP1 PUSH1 0x39 DUP2 MSTORE PUSH1 0x20 ADD PUSH2 0x2089 PUSH1 0x39 SWAP2 CODECOPY SWAP1 SWAP3 POP SWAP3 POP SWAP3 POP PUSH2 0xF31 JUMP JUMPDEST PUSH2 0x73D PUSH32 0xAF3BAC6D3DF658E65803C0AF8D7E71D1417BA29FFA142EF8B7ED1E4AE9B71C01 PUSH1 0x0 SHL PUSH2 0x155D JUMP JUMPDEST PUSH2 0x769 PUSH32 0x23D8C74E02BA85D24B987A0164F378EAB55ABEB683C5DAE7CE383BC96F1362CA PUSH1 0x0 SHL PUSH2 0x155D JUMP JUMPDEST PUSH2 0x795 PUSH32 0x9D71B182401AE83270C4DEEFF178FA59DD3A136F36E83B0C2426FCD4817F9494 PUSH1 0x0 SHL PUSH2 0x155D JUMP JUMPDEST PUSH1 0x0 PUSH1 0x4 PUSH1 0x0 PUSH1 0x8 SLOAD DUP2 MSTORE PUSH1 0x20 ADD SWAP1 DUP2 MSTORE PUSH1 0x20 ADD PUSH1 0x0 KECCAK256 SWAP1 POP PUSH2 0x7DA PUSH32 0xD5D00C1CF93D495B0168E2FD7B3FD237AAA95D99D4B38869657DCA63FACE401A PUSH1 0x0 SHL PUSH2 0x155D JUMP JUMPDEST PUSH2 0x806 PUSH32 0x42BA79315AB5FAC7B2F18B03378CA557FA1114C0ADFC4D9F8344A1197C587C8B PUSH1 0x0 SHL PUSH2 0x155D JUMP JUMPDEST DUP9 DUP2 PUSH1 0x0 ADD SWAP1 DUP1 MLOAD SWAP1 PUSH1 0x20 ADD SWAP1 PUSH2 0x81E SWAP3 SWAP2 SWAP1 PUSH2 0x1560 JUMP JUMPDEST POP PUSH2 0x84B PUSH32 0x9F3478CC86D3F0C30B491B18FE90B2EFF31CD59BCC2D5EA0D075723EABF3EF38 PUSH1 0x0 SHL PUSH2 0x155D JUMP JUMPDEST PUSH2 0x877 PUSH32 0x5E504CD5C6658AD64073B767B8F639356EF66C95D5E1BBC9E3944BFCF92DF673 PUSH1 0x0 SHL PUSH2 0x155D JUMP JUMPDEST DUP8 DUP2 PUSH1 0x1 ADD PUSH1 0x0 DUP3 ADD MLOAD DUP2 PUSH1 0x0 ADD PUSH1 0x0 PUSH2 0x100 EXP DUP2 SLOAD DUP2 PUSH1 0xFF MUL NOT AND SWAP1 DUP4 PUSH1 0xFF AND MUL OR SWAP1 SSTORE POP PUSH1 0x20 DUP3 ADD MLOAD DUP2 PUSH1 0x0 ADD PUSH1 0x1 PUSH2 0x100 EXP DUP2 SLOAD DUP2 PUSH1 0xFF MUL NOT AND SWAP1 DUP4 PUSH1 0xFF AND MUL OR SWAP1 SSTORE POP PUSH1 0x40 DUP3 ADD MLOAD DUP2 PUSH1 0x0 ADD PUSH1 0x2 PUSH2 0x100 EXP DUP2 SLOAD DUP2 PUSH2 0xFFFF MUL NOT AND SWAP1 DUP4 PUSH2 0xFFFF AND MUL OR SWAP1 SSTORE POP PUSH1 0x60 DUP3 ADD MLOAD DUP2 PUSH1 0x0 ADD PUSH1 0x4 PUSH2 0x100 EXP DUP2 SLOAD DUP2 PUSH1 0xFF MUL NOT AND SWAP1 DUP4 PUSH1 0xFF AND MUL OR SWAP1 SSTORE POP PUSH1 0x80 DUP3 ADD MLOAD DUP2 PUSH1 0x0 ADD PUSH1 0x5 PUSH2 0x100 EXP DUP2 SLOAD DUP2 PUSH1 0xFF MUL NOT AND SWAP1 DUP4 PUSH1 0xFF AND MUL OR SWAP1 SSTORE POP SWAP1 POP POP PUSH2 0x952 PUSH32 0xDCB8F69A348338C14A036606E2BF05FF733D894BD1999550CB34171D9E8CBB1D PUSH1 0x0 SHL PUSH2 0x155D JUMP JUMPDEST PUSH2 0x97E PUSH32 0xB231786FA7BBBFD53C7BBD1A809A526EF168B52816F4794A86F24204CDDF8E20 PUSH1 0x0 SHL PUSH2 0x155D JUMP JUMPDEST PUSH1 0x5 PUSH1 0x0 PUSH1 0x8 SLOAD DUP2 MSTORE PUSH1 0x20 ADD SWAP1 DUP2 MSTORE PUSH1 0x20 ADD PUSH1 0x0 KECCAK256 DUP2 PUSH1 0x2 ADD PUSH1 0x0 DUP3 ADD DUP2 PUSH1 0x0 ADD SWAP1 DUP1 SLOAD PUSH2 0x9AB SWAP1 PUSH2 0x1FA0 JUMP JUMPDEST PUSH2 0x9B6 SWAP3 SWAP2 SWAP1 PUSH2 0x15E6 JUMP JUMPDEST POP PUSH1 0x1 DUP3 ADD DUP2 PUSH1 0x1 ADD PUSH1 0x0 DUP3 ADD DUP2 PUSH1 0x0 ADD SWAP1 DUP1 SLOAD PUSH2 0x9D3 SWAP1 PUSH2 0x1FA0 JUMP JUMPDEST PUSH2 0x9DE SWAP3 SWAP2 SWAP1 PUSH2 0x15E6 JUMP JUMPDEST POP PUSH1 0x1 DUP3 ADD DUP2 PUSH1 0x1 ADD SWAP1 DUP1 SLOAD PUSH2 0x9F3 SWAP1 PUSH2 0x1FA0 JUMP JUMPDEST PUSH2 0x9FE SWAP3 SWAP2 SWAP1 PUSH2 0x15E6 JUMP JUMPDEST POP PUSH1 0x2 DUP3 ADD DUP2 PUSH1 0x2 ADD SWAP1 DUP1 SLOAD PUSH2 0xA13 SWAP1 PUSH2 0x1FA0 JUMP JUMPDEST PUSH2 0xA1E SWAP3 SWAP2 SWAP1 PUSH2 0x15E6 JUMP JUMPDEST POP PUSH1 0x3 DUP3 ADD DUP2 PUSH1 0x3 ADD SWAP1 DUP1 SLOAD PUSH2 0xA33 SWAP1 PUSH2 0x1FA0 JUMP JUMPDEST PUSH2 0xA3E SWAP3 SWAP2 SWAP1 PUSH2 0x15E6 JUMP JUMPDEST POP PUSH1 0x4 DUP3 ADD DUP2 PUSH1 0x4 ADD SWAP1 DUP1 SLOAD PUSH2 0xA53 SWAP1 PUSH2 0x1FA0 JUMP JUMPDEST PUSH2 0xA5E SWAP3 SWAP2 SWAP1 PUSH2 0x15E6 JUMP JUMPDEST POP PUSH1 0x5 DUP3 ADD DUP2 PUSH1 0x5 ADD SWAP1 DUP1 SLOAD PUSH2 0xA73 SWAP1 PUSH2 0x1FA0 JUMP JUMPDEST PUSH2 0xA7E SWAP3 SWAP2 SWAP1 PUSH2 0x15E6 JUMP JUMPDEST POP POP POP PUSH1 0x7 DUP3 ADD DUP2 PUSH1 0x7 ADD SWAP1 DUP1 SLOAD PUSH2 0xA95 SWAP1 PUSH2 0x1FA0 JUMP JUMPDEST PUSH2 0xAA0 SWAP3 SWAP2 SWAP1 PUSH2 0x15E6 JUMP JUMPDEST POP SWAP1 POP POP PUSH2 0xAD0 PUSH32 0x8D686B05ABAFA744C863FF66B4CA7477B5FC146D9021A965360EA39CE636D1D8 PUSH1 0x0 SHL PUSH2 0x155D JUMP JUMPDEST PUSH2 0xAFC PUSH32 0x3A23034266080D051E6CC4F6F264F25F240FB44D87BA5972B26A1303D30A8416 PUSH1 0x0 SHL PUSH2 0x155D JUMP JUMPDEST PUSH1 0x6 PUSH1 0x0 PUSH1 0x8 SLOAD DUP2 MSTORE PUSH1 0x20 ADD SWAP1 DUP2 MSTORE PUSH1 0x20 ADD PUSH1 0x0 KECCAK256 DUP2 PUSH1 0xA ADD PUSH1 0x0 DUP3 ADD DUP2 PUSH1 0x0 ADD SWAP1 DUP1 SLOAD PUSH2 0xB29 SWAP1 PUSH2 0x1FA0 JUMP JUMPDEST PUSH2 0xB34 SWAP3 SWAP2 SWAP1 PUSH2 0x15E6 JUMP JUMPDEST POP PUSH1 0x1 DUP3 ADD DUP2 PUSH1 0x1 ADD PUSH1 0x0 DUP3 ADD DUP2 PUSH1 0x0 ADD SWAP1 DUP1 SLOAD PUSH2 0xB51 SWAP1 PUSH2 0x1FA0 JUMP JUMPDEST PUSH2 0xB5C SWAP3 SWAP2 SWAP1 PUSH2 0x15E6 JUMP JUMPDEST POP PUSH1 0x1 DUP3 ADD DUP2 PUSH1 0x1 ADD SWAP1 DUP1 SLOAD PUSH2 0xB71 SWAP1 PUSH2 0x1FA0 JUMP JUMPDEST PUSH2 0xB7C SWAP3 SWAP2 SWAP1 PUSH2 0x15E6 JUMP JUMPDEST POP PUSH1 0x2 DUP3 ADD DUP2 PUSH1 0x2 ADD SWAP1 DUP1 SLOAD PUSH2 0xB91 SWAP1 PUSH2 0x1FA0 JUMP JUMPDEST PUSH2 0xB9C SWAP3 SWAP2 SWAP1 PUSH2 0x15E6 JUMP JUMPDEST POP PUSH1 0x3 DUP3 ADD DUP2 PUSH1 0x3 ADD SWAP1 DUP1 SLOAD PUSH2 0xBB1 SWAP1 PUSH2 0x1FA0 JUMP JUMPDEST PUSH2 0xBBC SWAP3 SWAP2 SWAP1 PUSH2 0x15E6 JUMP JUMPDEST POP PUSH1 0x4 DUP3 ADD DUP2 PUSH1 0x4 ADD SWAP1 DUP1 SLOAD PUSH2 0xBD1 SWAP1 PUSH2 0x1FA0 JUMP JUMPDEST PUSH2 0xBDC SWAP3 SWAP2 SWAP1 PUSH2 0x15E6 JUMP JUMPDEST POP PUSH1 0x5 DUP3 ADD DUP2 PUSH1 0x5 ADD SWAP1 DUP1 SLOAD PUSH2 0xBF1 SWAP1 PUSH2 0x1FA0 JUMP JUMPDEST PUSH2 0xBFC SWAP3 SWAP2 SWAP1 PUSH2 0x15E6 JUMP JUMPDEST POP POP POP PUSH1 0x7 DUP3 ADD DUP2 PUSH1 0x7 ADD SWAP1 DUP1 SLOAD PUSH2 0xC13 SWAP1 PUSH2 0x1FA0 JUMP JUMPDEST PUSH2 0xC1E SWAP3 SWAP2 SWAP1 PUSH2 0x15E6 JUMP JUMPDEST POP SWAP1 POP POP PUSH2 0xC4E PUSH32 0x6FB1E300E1A61AF2E82D78C6D5A74BCE2EBA5D0A8582D3C931115DE78BEE1C82 PUSH1 0x0 SHL PUSH2 0x155D JUMP JUMPDEST PUSH2 0xC7A PUSH32 0x2BA6036DF372B9FB29DB5919206C6C50920A8715509B4AD60E327834E45D156E PUSH1 0x0 SHL PUSH2 0x155D JUMP JUMPDEST DUP6 DUP2 PUSH1 0x12 ADD PUSH1 0x0 DUP3 ADD MLOAD DUP2 PUSH1 0x0 ADD SWAP1 DUP1 MLOAD SWAP1 PUSH1 0x20 ADD SWAP1 PUSH2 0xC9B SWAP3 SWAP2 SWAP1 PUSH2 0x1560 JUMP JUMPDEST POP PUSH1 0x20 DUP3 ADD MLOAD DUP2 PUSH1 0x1 ADD SWAP1 DUP1 MLOAD SWAP1 PUSH1 0x20 ADD SWAP1 PUSH2 0xCB8 SWAP3 SWAP2 SWAP1 PUSH2 0x1560 JUMP JUMPDEST POP PUSH1 0x40 DUP3 ADD MLOAD DUP2 PUSH1 0x2 ADD PUSH1 0x0 DUP3 ADD MLOAD DUP2 PUSH1 0x0 ADD SWAP1 DUP1 MLOAD SWAP1 PUSH1 0x20 ADD SWAP1 PUSH2 0xCDE SWAP3 SWAP2 SWAP1 PUSH2 0x1560 JUMP JUMPDEST POP PUSH1 0x20 DUP3 ADD MLOAD DUP2 PUSH1 0x1 ADD SWAP1 DUP1 MLOAD SWAP1 PUSH1 0x20 ADD SWAP1 PUSH2 0xCFB SWAP3 SWAP2 SWAP1 PUSH2 0x1560 JUMP JUMPDEST POP PUSH1 0x40 DUP3 ADD MLOAD DUP2 PUSH1 0x2 ADD PUSH1 0x0 DUP3 ADD MLOAD DUP2 PUSH1 0x0 ADD PUSH1 0x0 PUSH2 0x100 EXP DUP2 SLOAD DUP2 PUSH1 0xFF MUL NOT AND SWAP1 DUP4 PUSH1 0xFF AND MUL OR SWAP1 SSTORE POP PUSH1 0x20 DUP3 ADD MLOAD DUP2 PUSH1 0x0 ADD PUSH1 0x1 PUSH2 0x100 EXP DUP2 SLOAD DUP2 PUSH1 0xFF MUL NOT AND SWAP1 DUP4 PUSH1 0xFF AND MUL OR SWAP1 SSTORE POP PUSH1 0x40 DUP3 ADD MLOAD DUP2 PUSH1 0x0 ADD PUSH1 0x2 PUSH2 0x100 EXP DUP2 SLOAD DUP2 PUSH2 0xFFFF MUL NOT AND SWAP1 DUP4 PUSH2 0xFFFF AND MUL OR SWAP1 SSTORE POP PUSH1 0x60 DUP3 ADD MLOAD DUP2 PUSH1 0x0 ADD PUSH1 0x4 PUSH2 0x100 EXP DUP2 SLOAD DUP2 PUSH1 0xFF MUL NOT AND SWAP1 DUP4 PUSH1 0xFF AND MUL OR SWAP1 SSTORE POP PUSH1 0x80 DUP3 ADD MLOAD DUP2 PUSH1 0x0 ADD PUSH1 0x5 PUSH2 0x100 EXP DUP2 SLOAD DUP2 PUSH1 0xFF MUL NOT AND SWAP1 DUP4 PUSH1 0xFF AND MUL OR SWAP1 SSTORE POP POP POP POP POP SWAP1 POP POP PUSH2 0xDDF PUSH32 0x970E99947A77E1B9E2D79839D1DA73C369B5BD415B9A5F126B694FCC396D3446 PUSH1 0x0 SHL PUSH2 0x155D JUMP JUMPDEST PUSH2 0xE0B PUSH32 0xCED965DC1AA0F02B1741AD019AAF6C2BC08930CB61CAA4BE0AD77D84C814514D PUSH1 0x0 SHL PUSH2 0x155D JUMP JUMPDEST DUP5 DUP2 PUSH1 0x17 ADD PUSH1 0x0 PUSH2 0x100 EXP DUP2 SLOAD DUP2 PUSH16 0xFFFFFFFFFFFFFFFFFFFFFFFFFFFFFFFF MUL NOT AND SWAP1 DUP4 PUSH16 0xFFFFFFFFFFFFFFFFFFFFFFFFFFFFFFFF AND MUL OR SWAP1 SSTORE POP PUSH2 0xE72 PUSH32 0xBAACEEE0B935BF2B4E6262B6359B5E23B147A185FC083CE571440D35844E8597 PUSH1 0x0 SHL PUSH2 0x155D JUMP JUMPDEST PUSH1 0x8 PUSH1 0x0 DUP2 SLOAD DUP1 SWAP3 SWAP2 SWAP1 PUSH2 0xE85 SWAP1 PUSH2 0x200B JUMP JUMPDEST SWAP2 SWAP1 POP SSTORE POP PUSH2 0xEB6 PUSH32 0xB2D8F45A82BFDD9A40B9DC717BD6CD9D64ADC4C04765BA6BEED4879E7C3365EB PUSH1 0x0 SHL PUSH2 0x155D JUMP JUMPDEST PUSH2 0xEE2 PUSH32 0x5BC05EC95E33EAA8CE565A0ED9B3B76EF18FECD0E88B073D9917A71F4212B6AB PUSH1 0x0 SHL PUSH2 0x155D JUMP JUMPDEST PUSH1 0x1 DUP1 PUSH1 0x8 SLOAD PUSH2 0xEF2 SWAP2 SWAP1 PUSH2 0x2054 JUMP JUMPDEST PUSH1 0x40 MLOAD DUP1 PUSH1 0x40 ADD PUSH1 0x40 MSTORE DUP1 PUSH1 0x8 DUP2 MSTORE PUSH1 0x20 ADD PUSH32 0x5375636365737321000000000000000000000000000000000000000000000000 DUP2 MSTORE POP SWAP1 SWAP4 POP SWAP4 POP SWAP4 POP POP JUMPDEST SWAP6 POP SWAP6 POP SWAP6 SWAP3 POP POP POP JUMP JUMPDEST PUSH2 0xF68 PUSH32 0x9984B8F2187243259ACC35CAD80BBB8354A609E3B13463C39B9C9EFBBB67A846 PUSH1 0x0 SHL PUSH2 0x155D JUMP JUMPDEST PUSH2 0xF94 PUSH32 0x223451563BE1B93B93A725DDCCB383DDBF6CF3B1E5FFB0F6322413AB74441D04 PUSH1 0x0 SHL PUSH2 0x155D JUMP JUMPDEST PUSH2 0xFC0 PUSH32 0x3E7672FD4DD3EE83E1E9A00D705B45421E524379E128121998201067AC111DB4 PUSH1 0x0 SHL PUSH2 0x155D JUMP JUMPDEST DUP1 PUSH1 0x0 SWAP1 DUP1 MLOAD SWAP1 PUSH1 0x20 ADD SWAP1 PUSH2 0xFD6 SWAP3 SWAP2 SWAP1 PUSH2 0x1560 JUMP JUMPDEST POP POP JUMP JUMPDEST PUSH2 0x1006 PUSH32 0xD7058DF211153E89D4B5BA6021B9AB7D3736F914B157496C045E8FE31F250DA3 PUSH1 0x0 SHL PUSH2 0x155D JUMP JUMPDEST PUSH2 0x1032 PUSH32 0x800DF6152A42CA0F48EF80D25C7A3705A446F8367A42EBB57F98D43D4F7ABECB PUSH1 0x0 SHL PUSH2 0x155D JUMP JUMPDEST PUSH2 0x105E PUSH32 0xB11658AC07D3A7062C23DB42FEFEE1C74EB88E88EA8A4C6C9B56CB57647CA8F1 PUSH1 0x0 SHL PUSH2 0x155D JUMP JUMPDEST PUSH1 0x0 PUSH1 0x7 PUSH1 0x0 PUSH1 0x8 SLOAD DUP2 MSTORE PUSH1 0x20 ADD SWAP1 DUP2 MSTORE PUSH1 0x20 ADD PUSH1 0x0 KECCAK256 SWAP1 POP PUSH2 0x10A3 PUSH32 0x6D0152557609E965319F4CFDBE515D90D2D41234E39190F2DE2DF5764EB50B43 PUSH1 0x0 SHL PUSH2 0x155D JUMP JUMPDEST PUSH2 0x10CF PUSH32 0x9A45EE739C25E88962E926F571283C9108EF6C8DE3AEA1AFAD4923495F5D69F5 PUSH1 0x0 SHL PUSH2 0x155D JUMP JUMPDEST DUP6 DUP2 PUSH1 0x0 ADD PUSH1 0x0 PUSH2 0x100 EXP DUP2 SLOAD DUP2 PUSH1 0xFF MUL NOT AND SWAP1 DUP4 PUSH1 0xFF AND MUL OR SWAP1 SSTORE POP PUSH2 0x1118 PUSH32 0xDCA0B95DE551049796D9274E868DA98FA73B67550154B91DF9E9B2E8E4366C4D PUSH1 0x0 SHL PUSH2 0x155D JUMP JUMPDEST PUSH2 0x1144 PUSH32 0x6901CA07C61426E81D3F7B6EF5E11A3880387016723E43316717AC91B0781B35 PUSH1 0x0 SHL PUSH2 0x155D JUMP JUMPDEST DUP5 DUP2 PUSH1 0x0 ADD PUSH1 0x1 PUSH2 0x100 EXP DUP2 SLOAD DUP2 PUSH1 0xFF MUL NOT AND SWAP1 DUP4 PUSH1 0xFF AND MUL OR SWAP1 SSTORE POP PUSH2 0x118D PUSH32 0x5D016C0EA621350C59B39CF06DF2469AA00958051448B0ED5BC451663F72E575 PUSH1 0x0 SHL PUSH2 0x155D JUMP JUMPDEST PUSH2 0x11B9 PUSH32 0x81B7056711C4157440E226F477A4BC451D3C154CAF152E0BADE0F53BEBC8AFF1 PUSH1 0x0 SHL PUSH2 0x155D JUMP JUMPDEST DUP4 DUP2 PUSH1 0x0 ADD PUSH1 0x2 PUSH2 0x100 EXP DUP2 SLOAD DUP2 PUSH2 0xFFFF MUL NOT AND SWAP1 DUP4 PUSH2 0xFFFF AND MUL OR SWAP1 SSTORE POP PUSH2 0x1204 PUSH32 0x1300A89945019E249B3ED87E024E46CDB69E034A4A4615EE2D596E8B46E75268 PUSH1 0x0 SHL PUSH2 0x155D JUMP JUMPDEST PUSH2 0x1230 PUSH32 0x948FD06E3CF88783C2B69F15E4AE3A1A5AACECBFC7EF961044C57AE8F70AD3AF PUSH1 0x0 SHL PUSH2 0x155D JUMP JUMPDEST DUP3 DUP2 PUSH1 0x0 ADD PUSH1 0x4 PUSH2 0x100 EXP DUP2 SLOAD DUP2 PUSH1 0xFF MUL NOT AND SWAP1 DUP4 PUSH1 0xFF AND MUL OR SWAP1 SSTORE POP PUSH2 0x1279 PUSH32 0xD3C35D5BE3C0D267A93DE8041210B82ABF70C191BD883582FE31638888104F87 PUSH1 0x0 SHL PUSH2 0x155D JUMP JUMPDEST PUSH2 0x12A5 PUSH32 0xBCB412C28A538D7DC355ED6E94CA42A8146AEBC37B2E3CEB5A7DDC2DEF62F5DA PUSH1 0x0 SHL PUSH2 0x155D JUMP JUMPDEST DUP2 DUP2 PUSH1 0x0 ADD PUSH1 0x5 PUSH2 0x100 EXP DUP2 SLOAD DUP2 PUSH1 0xFF MUL NOT AND SWAP1 DUP4 PUSH1 0xFF AND MUL OR SWAP1 SSTORE POP POP POP POP POP POP POP JUMP JUMPDEST PUSH2 0x12F6 PUSH32 0xA651BF79CF4338035B16221D491B1DF9219119B496E88974A52DCDC53557FCED PUSH1 0x0 SHL PUSH2 0x155D JUMP JUMPDEST PUSH2 0x1322 PUSH32 0xF697810FA109861B3239E5485D6A0A041D65D542C43A298E83650C3CB2328AF1 PUSH1 0x0 SHL PUSH2 0x155D JUMP JUMPDEST PUSH2 0x134E PUSH32 0x3EEA0AD3FE28C7547200CE5A8C643EA87C6AF9197CD6360A8AC915C786DB31B7 PUSH1 0x0 SHL PUSH2 0x155D JUMP JUMPDEST PUSH1 0x0 PUSH1 0x5 PUSH1 0x0 PUSH1 0x8 SLOAD DUP2 MSTORE PUSH1 0x20 ADD SWAP1 DUP2 MSTORE PUSH1 0x20 ADD PUSH1 0x0 KECCAK256 SWAP1 POP PUSH2 0x1393 PUSH32 0xE05C9AE02D0829D2FFB320E3D4F3F5ADEC68761D043DDB514A47190ADD3B9388 PUSH1 0x0 SHL PUSH2 0x155D JUMP JUMPDEST PUSH2 0x13BF PUSH32 0x5AD4A711C4A9096459F9DF9F181B2A8F3F2350E7D1481124E749510F841AA2CF PUSH1 0x0 SHL PUSH2 0x155D JUMP JUMPDEST DUP2 DUP2 PUSH1 0x7 ADD SWAP1 DUP1 MLOAD SWAP1 PUSH1 0x20 ADD SWAP1 PUSH2 0x13D7 SWAP3 SWAP2 SWAP1 PUSH2 0x1560 JUMP JUMPDEST POP PUSH2 0x1404 PUSH32 0x199F89CA8C5796BFD43040BF05615619F751B0E606FE8CCD871CB07BEF478911 PUSH1 0x0 SHL PUSH2 0x155D JUMP JUMPDEST PUSH2 0x1430 PUSH32 0x6A0E14E576F0AAD4E0144BC0840620561271DDA25AA93E14C5C96C00A6B442B PUSH1 0x0 SHL PUSH2 0x155D JUMP JUMPDEST DUP4 DUP2 PUSH1 0x0 ADD SWAP1 DUP1 MLOAD SWAP1 PUSH1 0x20 ADD SWAP1 PUSH2 0x1448 SWAP3 SWAP2 SWAP1 PUSH2 0x1560 JUMP JUMPDEST POP PUSH2 0x1475 PUSH32 0x7BD4D1ADC4F64EF9A08DE6954AF141651D441FE0676260DE13ADF5CD2B684E1C PUSH1 0x0 SHL PUSH2 0x155D JUMP JUMPDEST PUSH2 0x14A1 PUSH32 0xC9B5D20C6D85D5BA5D7A342D426A646BEA9541C47AB4899AD53513F1FC669F74 PUSH1 0x0 SHL PUSH2 0x155D JUMP JUMPDEST DUP3 DUP2 PUSH1 0x1 ADD PUSH1 0x0 DUP3 ADD MLOAD DUP2 PUSH1 0x0 ADD SWAP1 DUP1 MLOAD SWAP1 PUSH1 0x20 ADD SWAP1 PUSH2 0x14C2 SWAP3 SWAP2 SWAP1 PUSH2 0x1560 JUMP JUMPDEST POP PUSH1 0x20 DUP3 ADD MLOAD DUP2 PUSH1 0x1 ADD SWAP1 DUP1 MLOAD SWAP1 PUSH1 0x20 ADD SWAP1 PUSH2 0x14DF SWAP3 SWAP2 SWAP1 PUSH2 0x1560 JUMP JUMPDEST POP PUSH1 0x40 DUP3 ADD MLOAD DUP2 PUSH1 0x2 ADD SWAP1 DUP1 MLOAD SWAP1 PUSH1 0x20 ADD SWAP1 PUSH2 0x14FC SWAP3 SWAP2 SWAP1 PUSH2 0x1560 JUMP JUMPDEST POP PUSH1 0x60 DUP3 ADD MLOAD DUP2 PUSH1 0x3 ADD SWAP1 DUP1 MLOAD SWAP1 PUSH1 0x20 ADD SWAP1 PUSH2 0x1519 SWAP3 SWAP2 SWAP1 PUSH2 0x1560 JUMP JUMPDEST POP PUSH1 0x80 DUP3 ADD MLOAD DUP2 PUSH1 0x4 ADD SWAP1 DUP1 MLOAD SWAP1 PUSH1 0x20 ADD SWAP1 PUSH2 0x1536 SWAP3 SWAP2 SWAP1 PUSH2 0x1560 JUMP JUMPDEST POP PUSH1 0xA0 DUP3 ADD MLOAD DUP2 PUSH1 0x5 ADD SWAP1 DUP1 MLOAD SWAP1 PUSH1 0x20 ADD SWAP1 PUSH2 0x1553 SWAP3 SWAP2 SWAP1 PUSH2 0x1560 JUMP JUMPDEST POP SWAP1 POP POP POP POP POP POP JUMP JUMPDEST POP JUMP JUMPDEST DUP3 DUP1 SLOAD PUSH2 0x156C SWAP1 PUSH2 0x1FA0 JUMP JUMPDEST SWAP1 PUSH1 0x0 MSTORE PUSH1 0x20 PUSH1 0x0 KECCAK256 SWAP1 PUSH1 0x1F ADD PUSH1 0x20 SWAP1 DIV DUP2 ADD SWAP3 DUP3 PUSH2 0x158E JUMPI PUSH1 0x0 DUP6 SSTORE PUSH2 0x15D5 JUMP JUMPDEST DUP3 PUSH1 0x1F LT PUSH2 0x15A7 JUMPI DUP1 MLOAD PUSH1 0xFF NOT AND DUP4 DUP1 ADD OR DUP6 SSTORE PUSH2 0x15D5 JUMP JUMPDEST DUP3 DUP1 ADD PUSH1 0x1 ADD DUP6 SSTORE DUP3 ISZERO PUSH2 0x15D5 JUMPI SWAP2 DUP3 ADD JUMPDEST DUP3 DUP2 GT ISZERO PUSH2 0x15D4 JUMPI DUP3 MLOAD DUP3 SSTORE SWAP2 PUSH1 0x20 ADD SWAP2 SWAP1 PUSH1 0x1 ADD SWAP1 PUSH2 0x15B9 JUMP JUMPDEST JUMPDEST POP SWAP1 POP PUSH2 0x15E2 SWAP2 SWAP1 PUSH2 0x1673 JUMP JUMPDEST POP SWAP1 JUMP JUMPDEST DUP3 DUP1 SLOAD PUSH2 0x15F2 SWAP1 PUSH2 0x1FA0 JUMP JUMPDEST SWAP1 PUSH1 0x0 MSTORE PUSH1 0x20 PUSH1 0x0 KECCAK256 SWAP1 PUSH1 0x1F ADD PUSH1 0x20 SWAP1 DIV DUP2 ADD SWAP3 DUP3 PUSH2 0x1614 JUMPI PUSH1 0x0 DUP6 SSTORE PUSH2 0x1662 JUMP JUMPDEST DUP3 PUSH1 0x1F LT PUSH2 0x1625 JUMPI DUP1 SLOAD DUP6 SSTORE PUSH2 0x1662 JUMP JUMPDEST DUP3 DUP1 ADD PUSH1 0x1 ADD DUP6 SSTORE DUP3 ISZERO PUSH2 0x1662 JUMPI PUSH1 0x0 MSTORE PUSH1 0x20 PUSH1 0x0 KECCAK256 SWAP2 PUSH1 0x1F ADD PUSH1 0x20 SWAP1 DIV DUP3 ADD JUMPDEST DUP3 DUP2 GT ISZERO PUSH2 0x1661 JUMPI DUP3 SLOAD DUP3 SSTORE SWAP2 PUSH1 0x1 ADD SWAP2 SWAP1 PUSH1 0x1 ADD SWAP1 PUSH2 0x1646 JUMP JUMPDEST JUMPDEST POP SWAP1 POP PUSH2 0x166F SWAP2 SWAP1 PUSH2 0x1673 JUMP JUMPDEST POP SWAP1 JUMP JUMPDEST JUMPDEST DUP1 DUP3 GT ISZERO PUSH2 0x168C JUMPI PUSH1 0x0 DUP2 PUSH1 0x0 SWAP1 SSTORE POP PUSH1 0x1 ADD PUSH2 0x1674 JUMP JUMPDEST POP SWAP1 JUMP JUMPDEST PUSH1 0x0 DUP2 MLOAD SWAP1 POP SWAP2 SWAP1 POP JUMP JUMPDEST PUSH1 0x0 DUP3 DUP3 MSTORE PUSH1 0x20 DUP3 ADD SWAP1 POP SWAP3 SWAP2 POP POP JUMP JUMPDEST PUSH1 0x0 JUMPDEST DUP4 DUP2 LT ISZERO PUSH2 0x16CA JUMPI DUP1 DUP3 ADD MLOAD DUP2 DUP5 ADD MSTORE PUSH1 0x20 DUP2 ADD SWAP1 POP PUSH2 0x16AF JUMP JUMPDEST DUP4 DUP2 GT ISZERO PUSH2 0x16D9 JUMPI PUSH1 0x0 DUP5 DUP5 ADD MSTORE JUMPDEST POP POP POP POP JUMP JUMPDEST PUSH1 0x0 PUSH1 0x1F NOT PUSH1 0x1F DUP4 ADD AND SWAP1 POP SWAP2 SWAP1 POP JUMP JUMPDEST PUSH1 0x0 PUSH2 0x16FB DUP3 PUSH2 0x1690 JUMP JUMPDEST PUSH2 0x1705 DUP2 DUP6 PUSH2 0x169B JUMP JUMPDEST SWAP4 POP PUSH2 0x1715 DUP2 DUP6 PUSH1 0x20 DUP7 ADD PUSH2 0x16AC JUMP JUMPDEST PUSH2 0x171E DUP2 PUSH2 0x16DF JUMP JUMPDEST DUP5 ADD SWAP2 POP POP SWAP3 SWAP2 POP POP JUMP JUMPDEST PUSH1 0x0 PUSH1 0x20 DUP3 ADD SWAP1 POP DUP2 DUP2 SUB PUSH1 0x0 DUP4 ADD MSTORE PUSH2 0x1743 DUP2 DUP5 PUSH2 0x16F0 JUMP JUMPDEST SWAP1 POP SWAP3 SWAP2 POP POP JUMP JUMPDEST PUSH1 0x0 PUSH1 0x40 MLOAD SWAP1 POP SWAP1 JUMP JUMPDEST PUSH1 0x0 DUP1 REVERT JUMPDEST PUSH1 0x0 DUP1 REVERT JUMPDEST PUSH1 0x0 DUP1 REVERT JUMPDEST PUSH1 0x0 DUP1 REVERT JUMPDEST PUSH32 0x4E487B7100000000000000000000000000000000000000000000000000000000 PUSH1 0x0 MSTORE PUSH1 0x41 PUSH1 0x4 MSTORE PUSH1 0x24 PUSH1 0x0 REVERT JUMPDEST PUSH2 0x17A1 DUP3 PUSH2 0x16DF JUMP JUMPDEST DUP2 ADD DUP2 DUP2 LT PUSH8 0xFFFFFFFFFFFFFFFF DUP3 GT OR ISZERO PUSH2 0x17C0 JUMPI PUSH2 0x17BF PUSH2 0x1769 JUMP JUMPDEST JUMPDEST DUP1 PUSH1 0x40 MSTORE POP POP POP JUMP JUMPDEST PUSH1 0x0 PUSH2 0x17D3 PUSH2 0x174B JUMP JUMPDEST SWAP1 POP PUSH2 0x17DF DUP3 DUP3 PUSH2 0x1798 JUMP JUMPDEST SWAP2 SWAP1 POP JUMP JUMPDEST PUSH1 0x0 PUSH8 0xFFFFFFFFFFFFFFFF DUP3 GT ISZERO PUSH2 0x17FF JUMPI PUSH2 0x17FE PUSH2 0x1769 JUMP JUMPDEST JUMPDEST PUSH2 0x1808 DUP3 PUSH2 0x16DF JUMP JUMPDEST SWAP1 POP PUSH1 0x20 DUP2 ADD SWAP1 POP SWAP2 SWAP1 POP JUMP JUMPDEST DUP3 DUP2 DUP4 CALLDATACOPY PUSH1 0x0 DUP4 DUP4 ADD MSTORE POP POP POP JUMP JUMPDEST PUSH1 0x0 PUSH2 0x1837 PUSH2 0x1832 DUP5 PUSH2 0x17E4 JUMP JUMPDEST PUSH2 0x17C9 JUMP JUMPDEST SWAP1 POP DUP3 DUP2 MSTORE PUSH1 0x20 DUP2 ADD DUP5 DUP5 DUP5 ADD GT ISZERO PUSH2 0x1853 JUMPI PUSH2 0x1852 PUSH2 0x1764 JUMP JUMPDEST JUMPDEST PUSH2 0x185E DUP5 DUP3 DUP6 PUSH2 0x1815 JUMP JUMPDEST POP SWAP4 SWAP3 POP POP POP JUMP JUMPDEST PUSH1 0x0 DUP3 PUSH1 0x1F DUP4 ADD SLT PUSH2 0x187B JUMPI PUSH2 0x187A PUSH2 0x175F JUMP JUMPDEST JUMPDEST DUP2 CALLDATALOAD PUSH2 0x188B DUP5 DUP3 PUSH1 0x20 DUP7 ADD PUSH2 0x1824 JUMP JUMPDEST SWAP2 POP POP SWAP3 SWAP2 POP POP JUMP JUMPDEST PUSH1 0x0 DUP1 REVERT JUMPDEST PUSH1 0x0 DUP1 REVERT JUMPDEST PUSH1 0x0 PUSH1 0xC0 DUP3 DUP5 SUB SLT ISZERO PUSH2 0x18B4 JUMPI PUSH2 0x18B3 PUSH2 0x1894 JUMP JUMPDEST JUMPDEST PUSH2 0x18BE PUSH1 0xC0 PUSH2 0x17C9 JUMP JUMPDEST SWAP1 POP PUSH1 0x0 DUP3 ADD CALLDATALOAD PUSH8 0xFFFFFFFFFFFFFFFF DUP2 GT ISZERO PUSH2 0x18DE JUMPI PUSH2 0x18DD PUSH2 0x1899 JUMP JUMPDEST JUMPDEST PUSH2 0x18EA DUP5 DUP3 DUP6 ADD PUSH2 0x1866 JUMP JUMPDEST PUSH1 0x0 DUP4 ADD MSTORE POP PUSH1 0x20 DUP3 ADD CALLDATALOAD PUSH8 0xFFFFFFFFFFFFFFFF DUP2 GT ISZERO PUSH2 0x190E JUMPI PUSH2 0x190D PUSH2 0x1899 JUMP JUMPDEST JUMPDEST PUSH2 0x191A DUP5 DUP3 DUP6 ADD PUSH2 0x1866 JUMP JUMPDEST PUSH1 0x20 DUP4 ADD MSTORE POP PUSH1 0x40 DUP3 ADD CALLDATALOAD PUSH8 0xFFFFFFFFFFFFFFFF DUP2 GT ISZERO PUSH2 0x193E JUMPI PUSH2 0x193D PUSH2 0x1899 JUMP JUMPDEST JUMPDEST PUSH2 0x194A DUP5 DUP3 DUP6 ADD PUSH2 0x1866 JUMP JUMPDEST PUSH1 0x40 DUP4 ADD MSTORE POP PUSH1 0x60 DUP3 ADD CALLDATALOAD PUSH8 0xFFFFFFFFFFFFFFFF DUP2 GT ISZERO PUSH2 0x196E JUMPI PUSH2 0x196D PUSH2 0x1899 JUMP JUMPDEST JUMPDEST PUSH2 0x197A DUP5 DUP3 DUP6 ADD PUSH2 0x1866 JUMP JUMPDEST PUSH1 0x60 DUP4 ADD MSTORE POP PUSH1 0x80 DUP3 ADD CALLDATALOAD PUSH8 0xFFFFFFFFFFFFFFFF DUP2 GT ISZERO PUSH2 0x199E JUMPI PUSH2 0x199D PUSH2 0x1899 JUMP JUMPDEST JUMPDEST PUSH2 0x19AA DUP5 DUP3 DUP6 ADD PUSH2 0x1866 JUMP JUMPDEST PUSH1 0x80 DUP4 ADD MSTORE POP PUSH1 0xA0 DUP3 ADD CALLDATALOAD PUSH8 0xFFFFFFFFFFFFFFFF DUP2 GT ISZERO PUSH2 0x19CE JUMPI PUSH2 0x19CD PUSH2 0x1899 JUMP JUMPDEST JUMPDEST PUSH2 0x19DA DUP5 DUP3 DUP6 ADD PUSH2 0x1866 JUMP JUMPDEST PUSH1 0xA0 DUP4 ADD MSTORE POP SWAP3 SWAP2 POP POP JUMP JUMPDEST PUSH1 0x0 DUP1 PUSH1 0x0 PUSH1 0x60 DUP5 DUP7 SUB SLT ISZERO PUSH2 0x19FF JUMPI PUSH2 0x19FE PUSH2 0x1755 JUMP JUMPDEST JUMPDEST PUSH1 0x0 DUP5 ADD CALLDATALOAD PUSH8 0xFFFFFFFFFFFFFFFF DUP2 GT ISZERO PUSH2 0x1A1D JUMPI PUSH2 0x1A1C PUSH2 0x175A JUMP JUMPDEST JUMPDEST PUSH2 0x1A29 DUP7 DUP3 DUP8 ADD PUSH2 0x1866 JUMP JUMPDEST SWAP4 POP POP PUSH1 0x20 DUP5 ADD CALLDATALOAD PUSH8 0xFFFFFFFFFFFFFFFF DUP2 GT ISZERO PUSH2 0x1A4A JUMPI PUSH2 0x1A49 PUSH2 0x175A JUMP JUMPDEST JUMPDEST PUSH2 0x1A56 DUP7 DUP3 DUP8 ADD PUSH2 0x189E JUMP JUMPDEST SWAP3 POP POP PUSH1 0x40 DUP5 ADD CALLDATALOAD PUSH8 0xFFFFFFFFFFFFFFFF DUP2 GT ISZERO PUSH2 0x1A77 JUMPI PUSH2 0x1A76 PUSH2 0x175A JUMP JUMPDEST JUMPDEST PUSH2 0x1A83 DUP7 DUP3 DUP8 ADD PUSH2 0x1866 JUMP JUMPDEST SWAP2 POP POP SWAP3 POP SWAP3 POP SWAP3 JUMP JUMPDEST PUSH1 0x0 PUSH1 0xFF DUP3 AND SWAP1 POP SWAP2 SWAP1 POP JUMP JUMPDEST PUSH2 0x1AA3 DUP2 PUSH2 0x1A8D JUMP JUMPDEST DUP2 EQ PUSH2 0x1AAE JUMPI PUSH1 0x0 DUP1 REVERT JUMPDEST POP JUMP JUMPDEST PUSH1 0x0 DUP2 CALLDATALOAD SWAP1 POP PUSH2 0x1AC0 DUP2 PUSH2 0x1A9A JUMP JUMPDEST SWAP3 SWAP2 POP POP JUMP JUMPDEST PUSH1 0x0 PUSH2 0xFFFF DUP3 AND SWAP1 POP SWAP2 SWAP1 POP JUMP JUMPDEST PUSH2 0x1ADD DUP2 PUSH2 0x1AC6 JUMP JUMPDEST DUP2 EQ PUSH2 0x1AE8 JUMPI PUSH1 0x0 DUP1 REVERT JUMPDEST POP JUMP JUMPDEST PUSH1 0x0 DUP2 CALLDATALOAD SWAP1 POP PUSH2 0x1AFA DUP2 PUSH2 0x1AD4 JUMP JUMPDEST SWAP3 SWAP2 POP POP JUMP JUMPDEST PUSH1 0x0 PUSH1 0xA0 DUP3 DUP5 SUB SLT ISZERO PUSH2 0x1B16 JUMPI PUSH2 0x1B15 PUSH2 0x1894 JUMP JUMPDEST JUMPDEST PUSH2 0x1B20 PUSH1 0xA0 PUSH2 0x17C9 JUMP JUMPDEST SWAP1 POP PUSH1 0x0 PUSH2 0x1B30 DUP5 DUP3 DUP6 ADD PUSH2 0x1AB1 JUMP JUMPDEST PUSH1 0x0 DUP4 ADD MSTORE POP PUSH1 0x20 PUSH2 0x1B44 DUP5 DUP3 DUP6 ADD PUSH2 0x1AB1 JUMP JUMPDEST PUSH1 0x20 DUP4 ADD MSTORE POP PUSH1 0x40 PUSH2 0x1B58 DUP5 DUP3 DUP6 ADD PUSH2 0x1AEB JUMP JUMPDEST PUSH1 0x40 DUP4 ADD MSTORE POP PUSH1 0x60 PUSH2 0x1B6C DUP5 DUP3 DUP6 ADD PUSH2 0x1AB1 JUMP JUMPDEST PUSH1 0x60 DUP4 ADD MSTORE POP PUSH1 0x80 PUSH2 0x1B80 DUP5 DUP3 DUP6 ADD PUSH2 0x1AB1 JUMP JUMPDEST PUSH1 0x80 DUP4 ADD MSTORE POP SWAP3 SWAP2 POP POP JUMP JUMPDEST PUSH1 0x0 PUSH20 0xFFFFFFFFFFFFFFFFFFFFFFFFFFFFFFFFFFFFFFFF DUP3 AND SWAP1 POP SWAP2 SWAP1 POP JUMP JUMPDEST PUSH1 0x0 PUSH2 0x1BB7 DUP3 PUSH2 0x1B8C JUMP JUMPDEST SWAP1 POP SWAP2 SWAP1 POP JUMP JUMPDEST PUSH2 0x1BC7 DUP2 PUSH2 0x1BAC JUMP JUMPDEST DUP2 EQ PUSH2 0x1BD2 JUMPI PUSH1 0x0 DUP1 REVERT JUMPDEST POP JUMP JUMPDEST PUSH1 0x0 DUP2 CALLDATALOAD SWAP1 POP PUSH2 0x1BE4 DUP2 PUSH2 0x1BBE JUMP JUMPDEST SWAP3 SWAP2 POP POP JUMP JUMPDEST PUSH1 0x0 PUSH1 0xE0 DUP3 DUP5 SUB SLT ISZERO PUSH2 0x1C00 JUMPI PUSH2 0x1BFF PUSH2 0x1894 JUMP JUMPDEST JUMPDEST PUSH2 0x1C0A PUSH1 0x60 PUSH2 0x17C9 JUMP JUMPDEST SWAP1 POP PUSH1 0x0 DUP3 ADD CALLDATALOAD PUSH8 0xFFFFFFFFFFFFFFFF DUP2 GT ISZERO PUSH2 0x1C2A JUMPI PUSH2 0x1C29 PUSH2 0x1899 JUMP JUMPDEST JUMPDEST PUSH2 0x1C36 DUP5 DUP3 DUP6 ADD PUSH2 0x1866 JUMP JUMPDEST PUSH1 0x0 DUP4 ADD MSTORE POP PUSH1 0x20 DUP3 ADD CALLDATALOAD PUSH8 0xFFFFFFFFFFFFFFFF DUP2 GT ISZERO PUSH2 0x1C5A JUMPI PUSH2 0x1C59 PUSH2 0x1899 JUMP JUMPDEST JUMPDEST PUSH2 0x1C66 DUP5 DUP3 DUP6 ADD PUSH2 0x1866 JUMP JUMPDEST PUSH1 0x20 DUP4 ADD MSTORE POP PUSH1 0x40 PUSH2 0x1C7A DUP5 DUP3 DUP6 ADD PUSH2 0x1B00 JUMP JUMPDEST PUSH1 0x40 DUP4 ADD MSTORE POP SWAP3 SWAP2 POP POP JUMP JUMPDEST PUSH1 0x0 PUSH1 0x60 DUP3 DUP5 SUB SLT ISZERO PUSH2 0x1C9C JUMPI PUSH2 0x1C9B PUSH2 0x1894 JUMP JUMPDEST JUMPDEST PUSH2 0x1CA6 PUSH1 0x60 PUSH2 0x17C9 JUMP JUMPDEST SWAP1 POP PUSH1 0x0 DUP3 ADD CALLDATALOAD PUSH8 0xFFFFFFFFFFFFFFFF DUP2 GT ISZERO PUSH2 0x1CC6 JUMPI PUSH2 0x1CC5 PUSH2 0x1899 JUMP JUMPDEST JUMPDEST PUSH2 0x1CD2 DUP5 DUP3 DUP6 ADD PUSH2 0x1866 JUMP JUMPDEST PUSH1 0x0 DUP4 ADD MSTORE POP PUSH1 0x20 DUP3 ADD CALLDATALOAD PUSH8 0xFFFFFFFFFFFFFFFF DUP2 GT ISZERO PUSH2 0x1CF6 JUMPI PUSH2 0x1CF5 PUSH2 0x1899 JUMP JUMPDEST JUMPDEST PUSH2 0x1D02 DUP5 DUP3 DUP6 ADD PUSH2 0x1866 JUMP JUMPDEST PUSH1 0x20 DUP4 ADD MSTORE POP PUSH1 0x40 DUP3 ADD CALLDATALOAD PUSH8 0xFFFFFFFFFFFFFFFF DUP2 GT ISZERO PUSH2 0x1D26 JUMPI PUSH2 0x1D25 PUSH2 0x1899 JUMP JUMPDEST JUMPDEST PUSH2 0x1D32 DUP5 DUP3 DUP6 ADD PUSH2 0x1BEA JUMP JUMPDEST PUSH1 0x40 DUP4 ADD MSTORE POP SWAP3 SWAP2 POP POP JUMP JUMPDEST PUSH1 0x0 PUSH16 0xFFFFFFFFFFFFFFFFFFFFFFFFFFFFFFFF DUP3 AND SWAP1 POP SWAP2 SWAP1 POP JUMP JUMPDEST PUSH2 0x1D63 DUP2 PUSH2 0x1D3E JUMP JUMPDEST DUP2 EQ PUSH2 0x1D6E JUMPI PUSH1 0x0 DUP1 REVERT JUMPDEST POP JUMP JUMPDEST PUSH1 0x0 DUP2 CALLDATALOAD SWAP1 POP PUSH2 0x1D80 DUP2 PUSH2 0x1D5A JUMP JUMPDEST SWAP3 SWAP2 POP POP JUMP JUMPDEST PUSH1 0x0 DUP1 PUSH1 0x0 DUP1 PUSH1 0x0 PUSH2 0x120 DUP7 DUP9 SUB SLT ISZERO PUSH2 0x1DA3 JUMPI PUSH2 0x1DA2 PUSH2 0x1755 JUMP JUMPDEST JUMPDEST PUSH1 0x0 DUP7 ADD CALLDATALOAD PUSH8 0xFFFFFFFFFFFFFFFF DUP2 GT ISZERO PUSH2 0x1DC1 JUMPI PUSH2 0x1DC0 PUSH2 0x175A JUMP JUMPDEST JUMPDEST PUSH2 0x1DCD DUP9 DUP3 DUP10 ADD PUSH2 0x1866 JUMP JUMPDEST SWAP6 POP POP PUSH1 0x20 PUSH2 0x1DDE DUP9 DUP3 DUP10 ADD PUSH2 0x1B00 JUMP JUMPDEST SWAP5 POP POP PUSH1 0xC0 PUSH2 0x1DEF DUP9 DUP3 DUP10 ADD PUSH2 0x1BD5 JUMP JUMPDEST SWAP4 POP POP PUSH1 0xE0 DUP7 ADD CALLDATALOAD PUSH8 0xFFFFFFFFFFFFFFFF DUP2 GT ISZERO PUSH2 0x1E10 JUMPI PUSH2 0x1E0F PUSH2 0x175A JUMP JUMPDEST JUMPDEST PUSH2 0x1E1C DUP9 DUP3 DUP10 ADD PUSH2 0x1C86 JUMP JUMPDEST SWAP3 POP POP PUSH2 0x100 PUSH2 0x1E2E DUP9 DUP3 DUP10 ADD PUSH2 0x1D71 JUMP JUMPDEST SWAP2 POP POP SWAP3 SWAP6 POP SWAP3 SWAP6 SWAP1 SWAP4 POP JUMP JUMPDEST PUSH1 0x0 DUP2 ISZERO ISZERO SWAP1 POP SWAP2 SWAP1 POP JUMP JUMPDEST PUSH2 0x1E50 DUP2 PUSH2 0x1E3B JUMP JUMPDEST DUP3 MSTORE POP POP JUMP JUMPDEST PUSH1 0x0 DUP2 SWAP1 POP SWAP2 SWAP1 POP JUMP JUMPDEST PUSH2 0x1E69 DUP2 PUSH2 0x1E56 JUMP JUMPDEST DUP3 MSTORE POP POP JUMP JUMPDEST PUSH1 0x0 PUSH1 0x60 DUP3 ADD SWAP1 POP PUSH2 0x1E84 PUSH1 0x0 DUP4 ADD DUP7 PUSH2 0x1E47 JUMP JUMPDEST DUP2 DUP2 SUB PUSH1 0x20 DUP4 ADD MSTORE PUSH2 0x1E96 DUP2 DUP6 PUSH2 0x16F0 JUMP JUMPDEST SWAP1 POP PUSH2 0x1EA5 PUSH1 0x40 DUP4 ADD DUP5 PUSH2 0x1E60 JUMP JUMPDEST SWAP5 SWAP4 POP POP POP POP JUMP JUMPDEST PUSH1 0x0 PUSH1 0x20 DUP3 DUP5 SUB SLT ISZERO PUSH2 0x1EC3 JUMPI PUSH2 0x1EC2 PUSH2 0x1755 JUMP JUMPDEST JUMPDEST PUSH1 0x0 DUP3 ADD CALLDATALOAD PUSH8 0xFFFFFFFFFFFFFFFF DUP2 GT ISZERO PUSH2 0x1EE1 JUMPI PUSH2 0x1EE0 PUSH2 0x175A JUMP JUMPDEST JUMPDEST PUSH2 0x1EED DUP5 DUP3 DUP6 ADD PUSH2 0x1866 JUMP JUMPDEST SWAP2 POP POP SWAP3 SWAP2 POP POP JUMP JUMPDEST PUSH1 0x0 DUP1 PUSH1 0x0 DUP1 PUSH1 0x0 PUSH1 0xA0 DUP7 DUP9 SUB SLT ISZERO PUSH2 0x1F12 JUMPI PUSH2 0x1F11 PUSH2 0x1755 JUMP JUMPDEST JUMPDEST PUSH1 0x0 PUSH2 0x1F20 DUP9 DUP3 DUP10 ADD PUSH2 0x1AB1 JUMP JUMPDEST SWAP6 POP POP PUSH1 0x20 PUSH2 0x1F31 DUP9 DUP3 DUP10 ADD PUSH2 0x1AB1 JUMP JUMPDEST SWAP5 POP POP PUSH1 0x40 PUSH2 0x1F42 DUP9 DUP3 DUP10 ADD PUSH2 0x1AEB JUMP JUMPDEST SWAP4 POP POP PUSH1 0x60 PUSH2 0x1F53 DUP9 DUP3 DUP10 ADD PUSH2 0x1AB1 JUMP JUMPDEST SWAP3 POP POP PUSH1 0x80 PUSH2 0x1F64 DUP9 DUP3 DUP10 ADD PUSH2 0x1AB1 JUMP JUMPDEST SWAP2 POP POP SWAP3 SWAP6 POP SWAP3 SWAP6 SWAP1 SWAP4 POP JUMP JUMPDEST PUSH32 0x4E487B7100000000000000000000000000000000000000000000000000000000 PUSH1 0x0 MSTORE PUSH1 0x22 PUSH1 0x4 MSTORE PUSH1 0x24 PUSH1 0x0 REVERT JUMPDEST PUSH1 0x0 PUSH1 0x2 DUP3 DIV SWAP1 POP PUSH1 0x1 DUP3 AND DUP1 PUSH2 0x1FB8 JUMPI PUSH1 0x7F DUP3 AND SWAP2 POP JUMPDEST PUSH1 0x20 DUP3 LT DUP2 EQ ISZERO PUSH2 0x1FCC JUMPI PUSH2 0x1FCB PUSH2 0x1F71 JUMP JUMPDEST JUMPDEST POP SWAP2 SWAP1 POP JUMP JUMPDEST PUSH32 0x4E487B7100000000000000000000000000000000000000000000000000000000 PUSH1 0x0 MSTORE PUSH1 0x11 PUSH1 0x4 MSTORE PUSH1 0x24 PUSH1 0x0 REVERT JUMPDEST PUSH1 0x0 DUP2 SWAP1 POP SWAP2 SWAP1 POP JUMP JUMPDEST PUSH1 0x0 PUSH2 0x2016 DUP3 PUSH2 0x2001 JUMP JUMPDEST SWAP2 POP PUSH32 0xFFFFFFFFFFFFFFFFFFFFFFFFFFFFFFFFFFFFFFFFFFFFFFFFFFFFFFFFFFFFFFFF DUP3 EQ ISZERO PUSH2 0x2049 JUMPI PUSH2 0x2048 PUSH2 0x1FD2 JUMP JUMPDEST JUMPDEST PUSH1 0x1 DUP3 ADD SWAP1 POP SWAP2 SWAP1 POP JUMP JUMPDEST PUSH1 0x0 PUSH2 0x205F DUP3 PUSH2 0x2001 JUMP JUMPDEST SWAP2 POP PUSH2 0x206A DUP4 PUSH2 0x2001 JUMP JUMPDEST SWAP3 POP DUP3 DUP3 LT ISZERO PUSH2 0x207D JUMPI PUSH2 0x207C PUSH2 0x1FD2 JUMP JUMPDEST JUMPDEST DUP3 DUP3 SUB SWAP1 POP SWAP3 SWAP2 POP POP JUMP INVALID 0x49 PUSH15 0x666F726D656420707269636520646F PUSH6 0x73206E6F7420 PUSH4 0x6F727265 PUSH20 0x706F6E6420746F2073656E7420696E2074686520 PUSH14 0x657373616765A264697066735822 SLT KECCAK256 0x2B 0xB9 SWAP14 0xD2 BALANCE SMOD 0xED DUP13 0xA5 0xC7 0xE7 SWAP2 0x23 GASLIMIT 0x28 CALLDATALOAD EXTCODECOPY SWAP15 LOG2 0xA7 0xCB JUMPDEST 0xB2 0xA9 0xC8 0xCB ADD PUSH12 0x5F4AB24564736F6C63430008 MULMOD STOP CALLER "
        },
        "methodIdentifiers": {
          "addSale(string,(uint8,uint8,uint16,uint8,uint8),address,(string,string,(string,string,(uint8,uint8,uint16,uint8,uint8))),uint128)": "517ca9f4",
          "changeName(string)": "5353a2d8",
          "getName()": "17d7de7c",
          "setCompanyInfo(string,(string,string,string,string,string,string),string)": "409dd707",
          "setDate(uint8,uint8,uint16,uint8,uint8)": "70c64351",
          "setOwnerInfo(string,(string,string,string,string,string,string),string)": "9747a200"
        }
      }
    }
  }
}