{
  "_format": "hh-sol-artifact-1",
  "contractName": "OwnerToCompany",
  "sourceName": "contracts/ownerToCompany.sol",
  "abi": [
    {
      "inputs": [
        {
          "internalType": "string",
          "name": "type_of_sale",
          "type": "string"
        },
        {
          "components": [
            {
              "internalType": "uint8",
              "name": "day",
              "type": "uint8"
            },
            {
              "internalType": "uint8",
              "name": "month",
              "type": "uint8"
            },
            {
              "internalType": "uint16",
              "name": "year",
              "type": "uint16"
            },
            {
              "internalType": "uint8",
              "name": "hour",
              "type": "uint8"
            },
            {
              "internalType": "uint8",
              "name": "minute",
              "type": "uint8"
            }
          ],
          "internalType": "struct OwnerToCompany.Date",
          "name": "date",
          "type": "tuple"
        },
        {
          "internalType": "address payable",
          "name": "owner_info",
          "type": "address"
        },
        {
          "components": [
            {
              "internalType": "string",
              "name": "uid",
              "type": "string"
            },
            {
              "internalType": "string",
              "name": "name",
              "type": "string"
            },
            {
              "components": [
                {
                  "internalType": "string",
                  "name": "model",
                  "type": "string"
                },
                {
                  "internalType": "string",
                  "name": "color",
                  "type": "string"
                },
                {
                  "components": [
                    {
                      "internalType": "uint8",
                      "name": "day",
                      "type": "uint8"
                    },
                    {
                      "internalType": "uint8",
                      "name": "month",
                      "type": "uint8"
                    },
                    {
                      "internalType": "uint16",
                      "name": "year",
                      "type": "uint16"
                    },
                    {
                      "internalType": "uint8",
                      "name": "hour",
                      "type": "uint8"
                    },
                    {
                      "internalType": "uint8",
                      "name": "minute",
                      "type": "uint8"
                    }
                  ],
                  "internalType": "struct OwnerToCompany.Date",
                  "name": "creation",
                  "type": "tuple"
                }
              ],
              "internalType": "struct OwnerToCompany.CarPartDescription",
              "name": "description",
              "type": "tuple"
            }
          ],
          "internalType": "struct OwnerToCompany.CarPartInfo",
          "name": "carPart_info",
          "type": "tuple"
        },
        {
          "internalType": "uint128",
          "name": "price",
          "type": "uint128"
        }
      ],
      "name": "addSale",
      "outputs": [
        {
          "internalType": "bool",
          "name": "",
          "type": "bool"
        },
        {
          "internalType": "string",
          "name": "",
          "type": "string"
        },
        {
          "internalType": "int256",
          "name": "",
          "type": "int256"
        }
      ],
      "stateMutability": "payable",
      "type": "function"
    },
    {
      "inputs": [
        {
          "internalType": "string",
          "name": "_name",
          "type": "string"
        },
        {
          "components": [
            {
              "internalType": "string",
              "name": "street",
              "type": "string"
            },
            {
              "internalType": "string",
              "name": "number",
              "type": "string"
            },
            {
              "internalType": "string",
              "name": "addr_details",
              "type": "string"
            },
            {
              "internalType": "string",
              "name": "zip_code",
              "type": "string"
            },
            {
              "internalType": "string",
              "name": "city",
              "type": "string"
            },
            {
              "internalType": "string",
              "name": "state",
              "type": "string"
            }
          ],
          "internalType": "struct OwnerToCompany.Address",
          "name": "_address",
          "type": "tuple"
        },
        {
          "internalType": "string",
          "name": "_id",
          "type": "string"
        }
      ],
      "name": "setCompanyInfo",
      "outputs": [],
      "stateMutability": "nonpayable",
      "type": "function"
    },
    {
      "inputs": [
        {
          "internalType": "uint8",
          "name": "day",
          "type": "uint8"
        },
        {
          "internalType": "uint8",
          "name": "month",
          "type": "uint8"
        },
        {
          "internalType": "uint16",
          "name": "year",
          "type": "uint16"
        },
        {
          "internalType": "uint8",
          "name": "hour",
          "type": "uint8"
        },
        {
          "internalType": "uint8",
          "name": "minute",
          "type": "uint8"
        }
      ],
      "name": "setDate",
      "outputs": [],
      "stateMutability": "nonpayable",
      "type": "function"
    },
    {
      "inputs": [
        {
          "internalType": "string",
          "name": "_name",
          "type": "string"
        },
        {
          "components": [
            {
              "internalType": "string",
              "name": "street",
              "type": "string"
            },
            {
              "internalType": "string",
              "name": "number",
              "type": "string"
            },
            {
              "internalType": "string",
              "name": "addr_details",
              "type": "string"
            },
            {
              "internalType": "string",
              "name": "zip_code",
              "type": "string"
            },
            {
              "internalType": "string",
              "name": "city",
              "type": "string"
            },
            {
              "internalType": "string",
              "name": "state",
              "type": "string"
            }
          ],
          "internalType": "struct OwnerToCompany.Address",
          "name": "_address",
          "type": "tuple"
        },
        {
          "internalType": "string",
          "name": "_id",
          "type": "string"
        }
      ],
      "name": "setOwnerInfo",
      "outputs": [],
      "stateMutability": "nonpayable",
      "type": "function"
    }
  ],
  "bytecode": "0x608060405260405180606001604052806040518060400160405280600681526020017f4e4f524d414c000000000000000000000000000000000000000000000000000081525081526020016040518060400160405280600581526020017f545241444500000000000000000000000000000000000000000000000000000081525081526020016040518060400160405280600481526020017f47494654000000000000000000000000000000000000000000000000000000008152508152506000906003620000d0929190620000ea565b506000600755348015620000e357600080fd5b50620002c7565b826003810192821562000131579160200282015b82811115620001305782518290805190602001906200011f92919062000144565b5091602001919060010190620000fe565b5b509050620001409190620001d5565b5090565b828054620001529062000291565b90600052602060002090601f016020900481019282620001765760008555620001c2565b82601f106200019157805160ff1916838001178555620001c2565b82800160010185558215620001c2579182015b82811115620001c1578251825591602001919060010190620001a4565b5b509050620001d19190620001fd565b5090565b5b80821115620001f95760008181620001ef91906200021c565b50600101620001d6565b5090565b5b8082111562000218576000816000905550600101620001fe565b5090565b5080546200022a9062000291565b6000825580601f106200023e57506200025f565b601f0160209004906000526020600020908101906200025e9190620001fd565b5b50565b7f4e487b7100000000000000000000000000000000000000000000000000000000600052602260045260246000fd5b60006002820490506001821680620002aa57607f821691505b60208210811415620002c157620002c062000262565b5b50919050565b6114a080620002d76000396000f3fe60806040526004361061003f5760003560e01c8063409dd70714610044578063517ca9f41461006d57806370c643511461009f5780639747a200146100c8575b600080fd5b34801561005057600080fd5b5061006b60048036038101906100669190610d50565b6100f1565b005b610087600480360381019061008291906110f0565b6101f8565b60405161009693929190611261565b60405180910390f35b3480156100ab57600080fd5b506100c660048036038101906100c1919061129f565b6107b9565b005b3480156100d457600080fd5b506100ef60048036038101906100ea9190610d50565b61086d565b005b6000600560006007548152602001908152602001600020905081816007019080519060200190610122929190610974565b508381600001908051906020019061013b929190610974565b508281600101600082015181600001908051906020019061015d929190610974565b50602082015181600101908051906020019061017a929190610974565b506040820151816002019080519060200190610197929190610974565b5060608201518160030190805190602001906101b4929190610974565b5060808201518160040190805190602001906101d1929190610974565b5060a08201518160050190805190602001906101ee929190610974565b5090505050505050565b600060606000836fffffffffffffffffffffffffffffffff1634146102a6578573ffffffffffffffffffffffffffffffffffffffff166108fc349081150290604051600060405180830381858888f1935050505015801561025d573d6000803e3d6000fd5b5060007fffffffffffffffffffffffffffffffffffffffffffffffffffffffffffffffff60405180606001604052806039815260200161143260399139909250925092506107ae565b60006003600060075481526020019081526020016000209050888160000190805190602001906102d7929190610974565b50878160010160008201518160000160006101000a81548160ff021916908360ff16021790555060208201518160000160016101000a81548160ff021916908360ff16021790555060408201518160000160026101000a81548161ffff021916908361ffff16021790555060608201518160000160046101000a81548160ff021916908360ff16021790555060808201518160000160056101000a81548160ff021916908360ff1602179055509050506004600060075481526020019081526020016000208160020160008201816000019080546103b490611349565b6103bf9291906109fa565b50600182018160010160008201816000019080546103dc90611349565b6103e79291906109fa565b5060018201816001019080546103fc90611349565b6104079291906109fa565b50600282018160020190805461041c90611349565b6104279291906109fa565b50600382018160030190805461043c90611349565b6104479291906109fa565b50600482018160040190805461045c90611349565b6104679291906109fa565b50600582018160050190805461047c90611349565b6104879291906109fa565b505050600782018160070190805461049e90611349565b6104a99291906109fa565b5090505060056000600754815260200190815260200160002081600a0160008201816000019080546104da90611349565b6104e59291906109fa565b506001820181600101600082018160000190805461050290611349565b61050d9291906109fa565b50600182018160010190805461052290611349565b61052d9291906109fa565b50600282018160020190805461054290611349565b61054d9291906109fa565b50600382018160030190805461056290611349565b61056d9291906109fa565b50600482018160040190805461058290611349565b61058d9291906109fa565b5060058201816005019080546105a290611349565b6105ad9291906109fa565b50505060078201816007019080546105c490611349565b6105cf9291906109fa565b50905050858160120160008201518160000190805190602001906105f4929190610974565b506020820151816001019080519060200190610611929190610974565b506040820151816002016000820151816000019080519060200190610637929190610974565b506020820151816001019080519060200190610654929190610974565b5060408201518160020160008201518160000160006101000a81548160ff021916908360ff16021790555060208201518160000160016101000a81548160ff021916908360ff16021790555060408201518160000160026101000a81548161ffff021916908361ffff16021790555060608201518160000160046101000a81548160ff021916908360ff16021790555060808201518160000160056101000a81548160ff021916908360ff16021790555050505050905050848160170160006101000a8154816fffffffffffffffffffffffffffffffff02191690836fffffffffffffffffffffffffffffffff1602179055506007600081548092919061075a906113b4565b919050555060018060075461076f91906113fd565b6040518060400160405280600881526020017f537563636573732100000000000000000000000000000000000000000000000081525090935093509350505b955095509592505050565b60006006600060075481526020019081526020016000209050858160000160006101000a81548160ff021916908360ff160217905550848160000160016101000a81548160ff021916908360ff160217905550838160000160026101000a81548161ffff021916908361ffff160217905550828160000160046101000a81548160ff021916908360ff160217905550818160000160056101000a81548160ff021916908360ff160217905550505050505050565b600060046000600754815260200190815260200160002090508181600701908051906020019061089e929190610974565b50838160000190805190602001906108b7929190610974565b50828160010160008201518160000190805190602001906108d9929190610974565b5060208201518160010190805190602001906108f6929190610974565b506040820151816002019080519060200190610913929190610974565b506060820151816003019080519060200190610930929190610974565b50608082015181600401908051906020019061094d929190610974565b5060a082015181600501908051906020019061096a929190610974565b5090505050505050565b82805461098090611349565b90600052602060002090601f0160209004810192826109a257600085556109e9565b82601f106109bb57805160ff19168380011785556109e9565b828001600101855582156109e9579182015b828111156109e85782518255916020019190600101906109cd565b5b5090506109f69190610a87565b5090565b828054610a0690611349565b90600052602060002090601f016020900481019282610a285760008555610a76565b82601f10610a395780548555610a76565b82800160010185558215610a7657600052602060002091601f016020900482015b82811115610a75578254825591600101919060010190610a5a565b5b509050610a839190610a87565b5090565b5b80821115610aa0576000816000905550600101610a88565b5090565b6000604051905090565b600080fd5b600080fd5b600080fd5b600080fd5b6000601f19601f8301169050919050565b7f4e487b7100000000000000000000000000000000000000000000000000000000600052604160045260246000fd5b610b0b82610ac2565b810181811067ffffffffffffffff82111715610b2a57610b29610ad3565b5b80604052505050565b6000610b3d610aa4565b9050610b498282610b02565b919050565b600067ffffffffffffffff821115610b6957610b68610ad3565b5b610b7282610ac2565b9050602081019050919050565b82818337600083830152505050565b6000610ba1610b9c84610b4e565b610b33565b905082815260208101848484011115610bbd57610bbc610abd565b5b610bc8848285610b7f565b509392505050565b600082601f830112610be557610be4610ab8565b5b8135610bf5848260208601610b8e565b91505092915050565b600080fd5b600080fd5b600060c08284031215610c1e57610c1d610bfe565b5b610c2860c0610b33565b9050600082013567ffffffffffffffff811115610c4857610c47610c03565b5b610c5484828501610bd0565b600083015250602082013567ffffffffffffffff811115610c7857610c77610c03565b5b610c8484828501610bd0565b602083015250604082013567ffffffffffffffff811115610ca857610ca7610c03565b5b610cb484828501610bd0565b604083015250606082013567ffffffffffffffff811115610cd857610cd7610c03565b5b610ce484828501610bd0565b606083015250608082013567ffffffffffffffff811115610d0857610d07610c03565b5b610d1484828501610bd0565b60808301525060a082013567ffffffffffffffff811115610d3857610d37610c03565b5b610d4484828501610bd0565b60a08301525092915050565b600080600060608486031215610d6957610d68610aae565b5b600084013567ffffffffffffffff811115610d8757610d86610ab3565b5b610d9386828701610bd0565b935050602084013567ffffffffffffffff811115610db457610db3610ab3565b5b610dc086828701610c08565b925050604084013567ffffffffffffffff811115610de157610de0610ab3565b5b610ded86828701610bd0565b9150509250925092565b600060ff82169050919050565b610e0d81610df7565b8114610e1857600080fd5b50565b600081359050610e2a81610e04565b92915050565b600061ffff82169050919050565b610e4781610e30565b8114610e5257600080fd5b50565b600081359050610e6481610e3e565b92915050565b600060a08284031215610e8057610e7f610bfe565b5b610e8a60a0610b33565b90506000610e9a84828501610e1b565b6000830152506020610eae84828501610e1b565b6020830152506040610ec284828501610e55565b6040830152506060610ed684828501610e1b565b6060830152506080610eea84828501610e1b565b60808301525092915050565b600073ffffffffffffffffffffffffffffffffffffffff82169050919050565b6000610f2182610ef6565b9050919050565b610f3181610f16565b8114610f3c57600080fd5b50565b600081359050610f4e81610f28565b92915050565b600060e08284031215610f6a57610f69610bfe565b5b610f746060610b33565b9050600082013567ffffffffffffffff811115610f9457610f93610c03565b5b610fa084828501610bd0565b600083015250602082013567ffffffffffffffff811115610fc457610fc3610c03565b5b610fd084828501610bd0565b6020830152506040610fe484828501610e6a565b60408301525092915050565b60006060828403121561100657611005610bfe565b5b6110106060610b33565b9050600082013567ffffffffffffffff8111156110305761102f610c03565b5b61103c84828501610bd0565b600083015250602082013567ffffffffffffffff8111156110605761105f610c03565b5b61106c84828501610bd0565b602083015250604082013567ffffffffffffffff8111156110905761108f610c03565b5b61109c84828501610f54565b60408301525092915050565b60006fffffffffffffffffffffffffffffffff82169050919050565b6110cd816110a8565b81146110d857600080fd5b50565b6000813590506110ea816110c4565b92915050565b6000806000806000610120868803121561110d5761110c610aae565b5b600086013567ffffffffffffffff81111561112b5761112a610ab3565b5b61113788828901610bd0565b955050602061114888828901610e6a565b94505060c061115988828901610f3f565b93505060e086013567ffffffffffffffff81111561117a57611179610ab3565b5b61118688828901610ff0565b925050610100611198888289016110db565b9150509295509295909350565b60008115159050919050565b6111ba816111a5565b82525050565b600081519050919050565b600082825260208201905092915050565b60005b838110156111fa5780820151818401526020810190506111df565b83811115611209576000848401525b50505050565b600061121a826111c0565b61122481856111cb565b93506112348185602086016111dc565b61123d81610ac2565b840191505092915050565b6000819050919050565b61125b81611248565b82525050565b600060608201905061127660008301866111b1565b8181036020830152611288818561120f565b90506112976040830184611252565b949350505050565b600080600080600060a086880312156112bb576112ba610aae565b5b60006112c988828901610e1b565b95505060206112da88828901610e1b565b94505060406112eb88828901610e55565b93505060606112fc88828901610e1b565b925050608061130d88828901610e1b565b9150509295509295909350565b7f4e487b7100000000000000000000000000000000000000000000000000000000600052602260045260246000fd5b6000600282049050600182168061136157607f821691505b602082108114156113755761137461131a565b5b50919050565b7f4e487b7100000000000000000000000000000000000000000000000000000000600052601160045260246000fd5b6000819050919050565b60006113bf826113aa565b91507fffffffffffffffffffffffffffffffffffffffffffffffffffffffffffffffff8214156113f2576113f161137b565b5b600182019050919050565b6000611408826113aa565b9150611413836113aa565b9250828210156114265761142561137b565b5b82820390509291505056fe496e666f726d656420707269636520646f6573206e6f7420636f72726573706f6e6420746f2073656e7420696e20746865206d657373616765a2646970667358221220ad3d07223b5b4ab52c0235a2ef6c1e0aa137bc2922c6527093e9f9a27a13f80264736f6c63430008090033",
  "linkReferences": {},
  "deployedLinkReferences": {}
}