{
  "_format": "hh-sol-artifact-1",
  "contractName": "OwnerToCompany",
  "sourceName": "contracts/ownerToCompany.sol",
  "abi": [
    {
      "inputs": [
        {
          "internalType": "string",
          "name": "_name",
          "type": "string"
        }
      ],
      "stateMutability": "nonpayable",
      "type": "constructor"
    },
    {
      "inputs": [
        {
          "internalType": "string",
          "name": "type_of_sale",
          "type": "string"
        },
        {
          "components": [
            {
              "internalType": "uint8",
              "name": "day",
              "type": "uint8"
            },
            {
              "internalType": "uint8",
              "name": "month",
              "type": "uint8"
            },
            {
              "internalType": "uint16",
              "name": "year",
              "type": "uint16"
            },
            {
              "internalType": "uint8",
              "name": "hour",
              "type": "uint8"
            },
            {
              "internalType": "uint8",
              "name": "minute",
              "type": "uint8"
            }
          ],
          "internalType": "struct OwnerToCompany.Date",
          "name": "date",
          "type": "tuple"
        },
        {
          "internalType": "address payable",
          "name": "owner_info",
          "type": "address"
        },
        {
          "components": [
            {
              "internalType": "string",
              "name": "uid",
              "type": "string"
            },
            {
              "internalType": "string",
              "name": "name",
              "type": "string"
            },
            {
              "components": [
                {
                  "internalType": "string",
                  "name": "model",
                  "type": "string"
                },
                {
                  "internalType": "string",
                  "name": "color",
                  "type": "string"
                },
                {
                  "components": [
                    {
                      "internalType": "uint8",
                      "name": "day",
                      "type": "uint8"
                    },
                    {
                      "internalType": "uint8",
                      "name": "month",
                      "type": "uint8"
                    },
                    {
                      "internalType": "uint16",
                      "name": "year",
                      "type": "uint16"
                    },
                    {
                      "internalType": "uint8",
                      "name": "hour",
                      "type": "uint8"
                    },
                    {
                      "internalType": "uint8",
                      "name": "minute",
                      "type": "uint8"
                    }
                  ],
                  "internalType": "struct OwnerToCompany.Date",
                  "name": "creation",
                  "type": "tuple"
                }
              ],
              "internalType": "struct OwnerToCompany.CarPartDescription",
              "name": "description",
              "type": "tuple"
            }
          ],
          "internalType": "struct OwnerToCompany.CarPartInfo",
          "name": "carPart_info",
          "type": "tuple"
        },
        {
          "internalType": "uint128",
          "name": "price",
          "type": "uint128"
        }
      ],
      "name": "addSale",
      "outputs": [
        {
          "internalType": "bool",
          "name": "",
          "type": "bool"
        },
        {
          "internalType": "string",
          "name": "",
          "type": "string"
        },
        {
          "internalType": "int256",
          "name": "",
          "type": "int256"
        }
      ],
      "stateMutability": "payable",
      "type": "function"
    },
    {
      "inputs": [
        {
          "internalType": "string",
          "name": "_name",
          "type": "string"
        }
      ],
      "name": "changeName",
      "outputs": [],
      "stateMutability": "nonpayable",
      "type": "function"
    },
    {
      "inputs": [],
      "name": "getName",
      "outputs": [
        {
          "internalType": "string",
          "name": "",
          "type": "string"
        }
      ],
      "stateMutability": "view",
      "type": "function"
    },
    {
      "inputs": [
        {
          "internalType": "string",
          "name": "_name",
          "type": "string"
        },
        {
          "components": [
            {
              "internalType": "string",
              "name": "street",
              "type": "string"
            },
            {
              "internalType": "string",
              "name": "number",
              "type": "string"
            },
            {
              "internalType": "string",
              "name": "addr_details",
              "type": "string"
            },
            {
              "internalType": "string",
              "name": "zip_code",
              "type": "string"
            },
            {
              "internalType": "string",
              "name": "city",
              "type": "string"
            },
            {
              "internalType": "string",
              "name": "state",
              "type": "string"
            }
          ],
          "internalType": "struct OwnerToCompany.Address",
          "name": "_address",
          "type": "tuple"
        },
        {
          "internalType": "string",
          "name": "_id",
          "type": "string"
        }
      ],
      "name": "setCompanyInfo",
      "outputs": [],
      "stateMutability": "nonpayable",
      "type": "function"
    },
    {
      "inputs": [
        {
          "internalType": "uint8",
          "name": "day",
          "type": "uint8"
        },
        {
          "internalType": "uint8",
          "name": "month",
          "type": "uint8"
        },
        {
          "internalType": "uint16",
          "name": "year",
          "type": "uint16"
        },
        {
          "internalType": "uint8",
          "name": "hour",
          "type": "uint8"
        },
        {
          "internalType": "uint8",
          "name": "minute",
          "type": "uint8"
        }
      ],
      "name": "setDate",
      "outputs": [],
      "stateMutability": "nonpayable",
      "type": "function"
    },
    {
      "inputs": [
        {
          "internalType": "string",
          "name": "_name",
          "type": "string"
        },
        {
          "components": [
            {
              "internalType": "string",
              "name": "street",
              "type": "string"
            },
            {
              "internalType": "string",
              "name": "number",
              "type": "string"
            },
            {
              "internalType": "string",
              "name": "addr_details",
              "type": "string"
            },
            {
              "internalType": "string",
              "name": "zip_code",
              "type": "string"
            },
            {
              "internalType": "string",
              "name": "city",
              "type": "string"
            },
            {
              "internalType": "string",
              "name": "state",
              "type": "string"
            }
          ],
          "internalType": "struct OwnerToCompany.Address",
          "name": "_address",
          "type": "tuple"
        },
        {
          "internalType": "string",
          "name": "_id",
          "type": "string"
        }
      ],
      "name": "setOwnerInfo",
      "outputs": [],
      "stateMutability": "nonpayable",
      "type": "function"
    }
  ],
  "bytecode": "0x608060405260405180606001604052806040518060400160405280600681526020017f4e4f524d414c000000000000000000000000000000000000000000000000000081525081526020016040518060400160405280600581526020017f545241444500000000000000000000000000000000000000000000000000000081525081526020016040518060400160405280600481526020017f47494654000000000000000000000000000000000000000000000000000000008152508152506001906003620000d0929190620001c8565b506000600855348015620000e357600080fd5b506040516200269a3803806200269a8339818101604052810190620001099190620004dd565b6200013d7f9cb68fe2e5e45863e7ae5e3bd897d4335aae0b4c78da317bcaa20556d970fffd60001b620001c560201b60201c565b620001717fe0c71756e2707b7b28903f8b89e27893da56357eec5f19ff28de28902959f6ee60001b620001c560201b60201c565b620001a57f8ea1a64111742ed5197196d73596d8afa414ad5f04cb5418a953032c00b25e8260001b620001c560201b60201c565b8060009080519060200190620001bd92919062000222565b505062000593565b50565b82600381019282156200020f579160200282015b828111156200020e578251829080519060200190620001fd92919062000222565b5091602001919060010190620001dc565b5b5090506200021e9190620002b3565b5090565b82805462000230906200055d565b90600052602060002090601f016020900481019282620002545760008555620002a0565b82601f106200026f57805160ff1916838001178555620002a0565b82800160010185558215620002a0579182015b828111156200029f57825182559160200191906001019062000282565b5b509050620002af9190620002db565b5090565b5b80821115620002d75760008181620002cd9190620002fa565b50600101620002b4565b5090565b5b80821115620002f6576000816000905550600101620002dc565b5090565b50805462000308906200055d565b6000825580601f106200031c57506200033d565b601f0160209004906000526020600020908101906200033c9190620002db565b5b50565b6000604051905090565b600080fd5b600080fd5b600080fd5b600080fd5b6000601f19601f8301169050919050565b7f4e487b7100000000000000000000000000000000000000000000000000000000600052604160045260246000fd5b620003a9826200035e565b810181811067ffffffffffffffff82111715620003cb57620003ca6200036f565b5b80604052505050565b6000620003e062000340565b9050620003ee82826200039e565b919050565b600067ffffffffffffffff8211156200041157620004106200036f565b5b6200041c826200035e565b9050602081019050919050565b60005b83811015620004495780820151818401526020810190506200042c565b8381111562000459576000848401525b50505050565b6000620004766200047084620003f3565b620003d4565b90508281526020810184848401111562000495576200049462000359565b5b620004a284828562000429565b509392505050565b600082601f830112620004c257620004c162000354565b5b8151620004d48482602086016200045f565b91505092915050565b600060208284031215620004f657620004f56200034a565b5b600082015167ffffffffffffffff8111156200051757620005166200034f565b5b6200052584828501620004aa565b91505092915050565b7f4e487b7100000000000000000000000000000000000000000000000000000000600052602260045260246000fd5b600060028204905060018216806200057657607f821691505b602082108114156200058d576200058c6200052e565b5b50919050565b6120f780620005a36000396000f3fe6080604052600436106100555760003560e01c806317d7de7c1461005a578063409dd70714610085578063517ca9f4146100ae5780635353a2d8146100e057806370c64351146101095780639747a20014610132575b600080fd5b34801561006657600080fd5b5061006f61015b565b60405161007c9190611729565b60405180910390f35b34801561009157600080fd5b506100ac60048036038101906100a791906119e6565b610271565b005b6100c860048036038101906100c39190611d86565b610504565b6040516100d793929190611e6f565b60405180910390f35b3480156100ec57600080fd5b5061010760048036038101906101029190611ead565b610f3c565b005b34801561011557600080fd5b50610130600480360381019061012b9190611ef6565b610fda565b005b34801561013e57600080fd5b50610159600480360381019061015491906119e6565b6112ca565b005b60606101897fb6febfdc3b6189c3ee731ab4c29f11d5c7196c080bcb8c15a53d4e6213c5b39560001b61155d565b6101b57f943bf6cba249e1ada24d8eb60b18194e2e3b3d1d200bc77c97d47b395fdb05e660001b61155d565b6101e17f7b35b24d5e36035a4d7e161b45cb4db394fe99a49ea29ed0c93c820168f0afde60001b61155d565b600080546101ee90611fa0565b80601f016020809104026020016040519081016040528092919081815260200182805461021a90611fa0565b80156102675780601f1061023c57610100808354040283529160200191610267565b820191906000526020600020905b81548152906001019060200180831161024a57829003601f168201915b5050505050905090565b61029d7f870a469a7da06646f0e1861793851d84a97e92aa7d02bd56a517934f4f4dfcc260001b61155d565b6102c97f47023e2d016bc472362a36dde3f766bce078325fce1a062b7845aa95851d46ae60001b61155d565b6102f57f784dd6b436404ce01debbcf42626c26dc1dae49355f6eaf949b93c75e2b168a260001b61155d565b6000600660006008548152602001908152602001600020905061033a7fa12f34aaecb8f16c57766c6e6fd4bb5650d391d0849e847e2cddc5b480f8a3c660001b61155d565b6103667f6df385fd01f80903eabfeecbc5a310baae2bb0dbd856da7e9e32264bde245ff660001b61155d565b8181600701908051906020019061037e929190611560565b506103ab7f79b068737e37ccd2d53f9901128dd7dc2f49b6e5d9e761e0b4bd7e96e08d937b60001b61155d565b6103d77ffc9403c6264871a6b5ce0aa287c35ebc7615c2dc212083c08381805a8ea040e260001b61155d565b838160000190805190602001906103ef929190611560565b5061041c7f3dccaef7dc6c9032f26ff7052d40ff48b30d58c6ae9833392aadd76e6c1de45660001b61155d565b6104487f4d57261466d5280f89c7194845755371f86d1e0d85291127ea98ea94759b60f560001b61155d565b82816001016000820151816000019080519060200190610469929190611560565b506020820151816001019080519060200190610486929190611560565b5060408201518160020190805190602001906104a3929190611560565b5060608201518160030190805190602001906104c0929190611560565b5060808201518160040190805190602001906104dd929190611560565b5060a08201518160050190805190602001906104fa929190611560565b5090505050505050565b6000606060006105367f16501bfc64e53fa0127db52e280ef351d1ae2d21685f53fa2f56fe084dd3a90460001b61155d565b6105627f1cb3fc7df858ef8959d0f098672f19f1008d0646018d1bed5362475aed82c7a060001b61155d565b61058e7f0114f8c5bdd2f8668dbb924cca033b2961b59f9a8608977ec3c47fb1f314bdd260001b61155d565b836fffffffffffffffffffffffffffffffff163414610711576105d27ef8abdf795e4e695ea762d68cc4d7665f3ad456b2005736d250995fe8857ecc60001b61155d565b6105fe7f850aa47e95b933f97d18c31d75eb209787e4c3cf38f6b9f4b10c123b9082038560001b61155d565b61062a7f6ba4dc3baf0badb256a6a6a480753beacf3d23f97ae9b6179e9dda4080e7760960001b61155d565b8573ffffffffffffffffffffffffffffffffffffffff166108fc349081150290604051600060405180830381858888f19350505050158015610670573d6000803e3d6000fd5b5061069d7f5dbbd9a88839f8e4aff55c44eacb8d263b8abec4cdfb9fac66998c922368666b60001b61155d565b6106c97fee6008be172b57250877a21e4ff796e97fe7dd6449b393f919ec59801cff9b7f60001b61155d565b60007fffffffffffffffffffffffffffffffffffffffffffffffffffffffffffffffff6040518060600160405280603981526020016120896039913990925092509250610f31565b61073d7faf3bac6d3df658e65803c0af8d7e71d1417ba29ffa142ef8b7ed1e4ae9b71c0160001b61155d565b6107697f23d8c74e02ba85d24b987a0164f378eab55abeb683c5dae7ce383bc96f1362ca60001b61155d565b6107957f9d71b182401ae83270c4deeff178fa59dd3a136f36e83b0c2426fcd4817f949460001b61155d565b600060046000600854815260200190815260200160002090506107da7fd5d00c1cf93d495b0168e2fd7b3fd237aaa95d99d4b38869657dca63face401a60001b61155d565b6108067f42ba79315ab5fac7b2f18b03378ca557fa1114c0adfc4d9f8344a1197c587c8b60001b61155d565b8881600001908051906020019061081e929190611560565b5061084b7f9f3478cc86d3f0c30b491b18fe90b2eff31cd59bcc2d5ea0d075723eabf3ef3860001b61155d565b6108777f5e504cd5c6658ad64073b767b8f639356ef66c95d5e1bbc9e3944bfcf92df67360001b61155d565b878160010160008201518160000160006101000a81548160ff021916908360ff16021790555060208201518160000160016101000a81548160ff021916908360ff16021790555060408201518160000160026101000a81548161ffff021916908361ffff16021790555060608201518160000160046101000a81548160ff021916908360ff16021790555060808201518160000160056101000a81548160ff021916908360ff1602179055509050506109527fdcb8f69a348338c14a036606e2bf05ff733d894bd1999550cb34171d9e8cbb1d60001b61155d565b61097e7fb231786fa7bbbfd53c7bbd1a809a526ef168b52816f4794a86f24204cddf8e2060001b61155d565b6005600060085481526020019081526020016000208160020160008201816000019080546109ab90611fa0565b6109b69291906115e6565b50600182018160010160008201816000019080546109d390611fa0565b6109de9291906115e6565b5060018201816001019080546109f390611fa0565b6109fe9291906115e6565b506002820181600201908054610a1390611fa0565b610a1e9291906115e6565b506003820181600301908054610a3390611fa0565b610a3e9291906115e6565b506004820181600401908054610a5390611fa0565b610a5e9291906115e6565b506005820181600501908054610a7390611fa0565b610a7e9291906115e6565b5050506007820181600701908054610a9590611fa0565b610aa09291906115e6565b50905050610ad07f8d686b05abafa744c863ff66b4ca7477b5fc146d9021a965360ea39ce636d1d860001b61155d565b610afc7f3a23034266080d051e6cc4f6f264f25f240fb44d87ba5972b26a1303d30a841660001b61155d565b60066000600854815260200190815260200160002081600a016000820181600001908054610b2990611fa0565b610b349291906115e6565b5060018201816001016000820181600001908054610b5190611fa0565b610b5c9291906115e6565b506001820181600101908054610b7190611fa0565b610b7c9291906115e6565b506002820181600201908054610b9190611fa0565b610b9c9291906115e6565b506003820181600301908054610bb190611fa0565b610bbc9291906115e6565b506004820181600401908054610bd190611fa0565b610bdc9291906115e6565b506005820181600501908054610bf190611fa0565b610bfc9291906115e6565b5050506007820181600701908054610c1390611fa0565b610c1e9291906115e6565b50905050610c4e7f6fb1e300e1a61af2e82d78c6d5a74bce2eba5d0a8582d3c931115de78bee1c8260001b61155d565b610c7a7f2ba6036df372b9fb29db5919206c6c50920a8715509b4ad60e327834e45d156e60001b61155d565b85816012016000820151816000019080519060200190610c9b929190611560565b506020820151816001019080519060200190610cb8929190611560565b506040820151816002016000820151816000019080519060200190610cde929190611560565b506020820151816001019080519060200190610cfb929190611560565b5060408201518160020160008201518160000160006101000a81548160ff021916908360ff16021790555060208201518160000160016101000a81548160ff021916908360ff16021790555060408201518160000160026101000a81548161ffff021916908361ffff16021790555060608201518160000160046101000a81548160ff021916908360ff16021790555060808201518160000160056101000a81548160ff021916908360ff16021790555050505050905050610ddf7f970e99947a77e1b9e2d79839d1da73c369b5bd415b9a5f126b694fcc396d344660001b61155d565b610e0b7fced965dc1aa0f02b1741ad019aaf6c2bc08930cb61caa4be0ad77d84c814514d60001b61155d565b848160170160006101000a8154816fffffffffffffffffffffffffffffffff02191690836fffffffffffffffffffffffffffffffff160217905550610e727fbaaceee0b935bf2b4e6262b6359b5e23b147a185fc083ce571440d35844e859760001b61155d565b60086000815480929190610e859061200b565b9190505550610eb67fb2d8f45a82bfdd9a40b9dc717bd6cd9d64adc4c04765ba6beed4879e7c3365eb60001b61155d565b610ee27f5bc05ec95e33eaa8ce565a0ed9b3b76ef18fecd0e88b073d9917a71f4212b6ab60001b61155d565b600180600854610ef29190612054565b6040518060400160405280600881526020017f537563636573732100000000000000000000000000000000000000000000000081525090935093509350505b955095509592505050565b610f687f9984b8f2187243259acc35cad80bbb8354a609e3b13463c39b9c9efbbb67a84660001b61155d565b610f947f223451563be1b93b93a725ddccb383ddbf6cf3b1e5ffb0f6322413ab74441d0460001b61155d565b610fc07f3e7672fd4dd3ee83e1e9a00d705b45421e524379e128121998201067ac111db460001b61155d565b8060009080519060200190610fd6929190611560565b5050565b6110067fd7058df211153e89d4b5ba6021b9ab7d3736f914b157496c045e8fe31f250da360001b61155d565b6110327f800df6152a42ca0f48ef80d25c7a3705a446f8367a42ebb57f98d43d4f7abecb60001b61155d565b61105e7fb11658ac07d3a7062c23db42fefee1c74eb88e88ea8a4c6c9b56cb57647ca8f160001b61155d565b600060076000600854815260200190815260200160002090506110a37f6d0152557609e965319f4cfdbe515d90d2d41234e39190f2de2df5764eb50b4360001b61155d565b6110cf7f9a45ee739c25e88962e926f571283c9108ef6c8de3aea1afad4923495f5d69f560001b61155d565b858160000160006101000a81548160ff021916908360ff1602179055506111187fdca0b95de551049796d9274e868da98fa73b67550154b91df9e9b2e8e4366c4d60001b61155d565b6111447f6901ca07c61426e81d3f7b6ef5e11a3880387016723e43316717ac91b0781b3560001b61155d565b848160000160016101000a81548160ff021916908360ff16021790555061118d7f5d016c0ea621350c59b39cf06df2469aa00958051448b0ed5bc451663f72e57560001b61155d565b6111b97f81b7056711c4157440e226f477a4bc451d3c154caf152e0bade0f53bebc8aff160001b61155d565b838160000160026101000a81548161ffff021916908361ffff1602179055506112047f1300a89945019e249b3ed87e024e46cdb69e034a4a4615ee2d596e8b46e7526860001b61155d565b6112307f948fd06e3cf88783c2b69f15e4ae3a1a5aacecbfc7ef961044c57ae8f70ad3af60001b61155d565b828160000160046101000a81548160ff021916908360ff1602179055506112797fd3c35d5be3c0d267a93de8041210b82abf70c191bd883582fe31638888104f8760001b61155d565b6112a57fbcb412c28a538d7dc355ed6e94ca42a8146aebc37b2e3ceb5a7ddc2def62f5da60001b61155d565b818160000160056101000a81548160ff021916908360ff160217905550505050505050565b6112f67fa651bf79cf4338035b16221d491b1df9219119b496e88974a52dcdc53557fced60001b61155d565b6113227ff697810fa109861b3239e5485d6a0a041d65d542c43a298e83650c3cb2328af160001b61155d565b61134e7f3eea0ad3fe28c7547200ce5a8c643ea87c6af9197cd6360a8ac915c786db31b760001b61155d565b600060056000600854815260200190815260200160002090506113937fe05c9ae02d0829d2ffb320e3d4f3f5adec68761d043ddb514a47190add3b938860001b61155d565b6113bf7f5ad4a711c4a9096459f9df9f181b2a8f3f2350e7d1481124e749510f841aa2cf60001b61155d565b818160070190805190602001906113d7929190611560565b506114047f199f89ca8c5796bfd43040bf05615619f751b0e606fe8ccd871cb07bef47891160001b61155d565b6114307f06a0e14e576f0aad4e0144bc0840620561271dda25aa93e14c5c96c00a6b442b60001b61155d565b83816000019080519060200190611448929190611560565b506114757f7bd4d1adc4f64ef9a08de6954af141651d441fe0676260de13adf5cd2b684e1c60001b61155d565b6114a17fc9b5d20c6d85d5ba5d7a342d426a646bea9541c47ab4899ad53513f1fc669f7460001b61155d565b828160010160008201518160000190805190602001906114c2929190611560565b5060208201518160010190805190602001906114df929190611560565b5060408201518160020190805190602001906114fc929190611560565b506060820151816003019080519060200190611519929190611560565b506080820151816004019080519060200190611536929190611560565b5060a0820151816005019080519060200190611553929190611560565b5090505050505050565b50565b82805461156c90611fa0565b90600052602060002090601f01602090048101928261158e57600085556115d5565b82601f106115a757805160ff19168380011785556115d5565b828001600101855582156115d5579182015b828111156115d45782518255916020019190600101906115b9565b5b5090506115e29190611673565b5090565b8280546115f290611fa0565b90600052602060002090601f0160209004810192826116145760008555611662565b82601f106116255780548555611662565b8280016001018555821561166257600052602060002091601f016020900482015b82811115611661578254825591600101919060010190611646565b5b50905061166f9190611673565b5090565b5b8082111561168c576000816000905550600101611674565b5090565b600081519050919050565b600082825260208201905092915050565b60005b838110156116ca5780820151818401526020810190506116af565b838111156116d9576000848401525b50505050565b6000601f19601f8301169050919050565b60006116fb82611690565b611705818561169b565b93506117158185602086016116ac565b61171e816116df565b840191505092915050565b6000602082019050818103600083015261174381846116f0565b905092915050565b6000604051905090565b600080fd5b600080fd5b600080fd5b600080fd5b7f4e487b7100000000000000000000000000000000000000000000000000000000600052604160045260246000fd5b6117a1826116df565b810181811067ffffffffffffffff821117156117c0576117bf611769565b5b80604052505050565b60006117d361174b565b90506117df8282611798565b919050565b600067ffffffffffffffff8211156117ff576117fe611769565b5b611808826116df565b9050602081019050919050565b82818337600083830152505050565b6000611837611832846117e4565b6117c9565b90508281526020810184848401111561185357611852611764565b5b61185e848285611815565b509392505050565b600082601f83011261187b5761187a61175f565b5b813561188b848260208601611824565b91505092915050565b600080fd5b600080fd5b600060c082840312156118b4576118b3611894565b5b6118be60c06117c9565b9050600082013567ffffffffffffffff8111156118de576118dd611899565b5b6118ea84828501611866565b600083015250602082013567ffffffffffffffff81111561190e5761190d611899565b5b61191a84828501611866565b602083015250604082013567ffffffffffffffff81111561193e5761193d611899565b5b61194a84828501611866565b604083015250606082013567ffffffffffffffff81111561196e5761196d611899565b5b61197a84828501611866565b606083015250608082013567ffffffffffffffff81111561199e5761199d611899565b5b6119aa84828501611866565b60808301525060a082013567ffffffffffffffff8111156119ce576119cd611899565b5b6119da84828501611866565b60a08301525092915050565b6000806000606084860312156119ff576119fe611755565b5b600084013567ffffffffffffffff811115611a1d57611a1c61175a565b5b611a2986828701611866565b935050602084013567ffffffffffffffff811115611a4a57611a4961175a565b5b611a568682870161189e565b925050604084013567ffffffffffffffff811115611a7757611a7661175a565b5b611a8386828701611866565b9150509250925092565b600060ff82169050919050565b611aa381611a8d565b8114611aae57600080fd5b50565b600081359050611ac081611a9a565b92915050565b600061ffff82169050919050565b611add81611ac6565b8114611ae857600080fd5b50565b600081359050611afa81611ad4565b92915050565b600060a08284031215611b1657611b15611894565b5b611b2060a06117c9565b90506000611b3084828501611ab1565b6000830152506020611b4484828501611ab1565b6020830152506040611b5884828501611aeb565b6040830152506060611b6c84828501611ab1565b6060830152506080611b8084828501611ab1565b60808301525092915050565b600073ffffffffffffffffffffffffffffffffffffffff82169050919050565b6000611bb782611b8c565b9050919050565b611bc781611bac565b8114611bd257600080fd5b50565b600081359050611be481611bbe565b92915050565b600060e08284031215611c0057611bff611894565b5b611c0a60606117c9565b9050600082013567ffffffffffffffff811115611c2a57611c29611899565b5b611c3684828501611866565b600083015250602082013567ffffffffffffffff811115611c5a57611c59611899565b5b611c6684828501611866565b6020830152506040611c7a84828501611b00565b60408301525092915050565b600060608284031215611c9c57611c9b611894565b5b611ca660606117c9565b9050600082013567ffffffffffffffff811115611cc657611cc5611899565b5b611cd284828501611866565b600083015250602082013567ffffffffffffffff811115611cf657611cf5611899565b5b611d0284828501611866565b602083015250604082013567ffffffffffffffff811115611d2657611d25611899565b5b611d3284828501611bea565b60408301525092915050565b60006fffffffffffffffffffffffffffffffff82169050919050565b611d6381611d3e565b8114611d6e57600080fd5b50565b600081359050611d8081611d5a565b92915050565b60008060008060006101208688031215611da357611da2611755565b5b600086013567ffffffffffffffff811115611dc157611dc061175a565b5b611dcd88828901611866565b9550506020611dde88828901611b00565b94505060c0611def88828901611bd5565b93505060e086013567ffffffffffffffff811115611e1057611e0f61175a565b5b611e1c88828901611c86565b925050610100611e2e88828901611d71565b9150509295509295909350565b60008115159050919050565b611e5081611e3b565b82525050565b6000819050919050565b611e6981611e56565b82525050565b6000606082019050611e846000830186611e47565b8181036020830152611e9681856116f0565b9050611ea56040830184611e60565b949350505050565b600060208284031215611ec357611ec2611755565b5b600082013567ffffffffffffffff811115611ee157611ee061175a565b5b611eed84828501611866565b91505092915050565b600080600080600060a08688031215611f1257611f11611755565b5b6000611f2088828901611ab1565b9550506020611f3188828901611ab1565b9450506040611f4288828901611aeb565b9350506060611f5388828901611ab1565b9250506080611f6488828901611ab1565b9150509295509295909350565b7f4e487b7100000000000000000000000000000000000000000000000000000000600052602260045260246000fd5b60006002820490506001821680611fb857607f821691505b60208210811415611fcc57611fcb611f71565b5b50919050565b7f4e487b7100000000000000000000000000000000000000000000000000000000600052601160045260246000fd5b6000819050919050565b600061201682612001565b91507fffffffffffffffffffffffffffffffffffffffffffffffffffffffffffffffff82141561204957612048611fd2565b5b600182019050919050565b600061205f82612001565b915061206a83612001565b92508282101561207d5761207c611fd2565b5b82820390509291505056fe496e666f726d656420707269636520646f6573206e6f7420636f72726573706f6e6420746f2073656e7420696e20746865206d657373616765a26469706673582212202bb99dd23107ed8ca5c7e791234528353c9ea2a7cb5bb2a9c8cb016b5f4ab24564736f6c63430008090033",
  "linkReferences": {},
  "deployedLinkReferences": {}
}