{
  "_format": "hh-sol-artifact-1",
  "contractName": "OwnerToCompany",
  "sourceName": "contracts/ownerToCompany.sol",
  "abi": [
    {
      "inputs": [
        {
          "internalType": "string",
          "name": "_name",
          "type": "string"
        }
      ],
      "stateMutability": "nonpayable",
      "type": "constructor"
    },
    {
      "inputs": [
        {
          "internalType": "string",
          "name": "type_of_sale",
          "type": "string"
        },
        {
          "components": [
            {
              "internalType": "uint8",
              "name": "day",
              "type": "uint8"
            },
            {
              "internalType": "uint8",
              "name": "month",
              "type": "uint8"
            },
            {
              "internalType": "uint16",
              "name": "year",
              "type": "uint16"
            },
            {
              "internalType": "uint8",
              "name": "hour",
              "type": "uint8"
            },
            {
              "internalType": "uint8",
              "name": "minute",
              "type": "uint8"
            }
          ],
          "internalType": "struct OwnerToCompany.Date",
          "name": "date",
          "type": "tuple"
        },
        {
          "internalType": "address payable",
          "name": "owner_info",
          "type": "address"
        },
        {
          "components": [
            {
              "internalType": "string",
              "name": "uid",
              "type": "string"
            },
            {
              "internalType": "string",
              "name": "name",
              "type": "string"
            },
            {
              "components": [
                {
                  "internalType": "string",
                  "name": "model",
                  "type": "string"
                },
                {
                  "internalType": "string",
                  "name": "color",
                  "type": "string"
                },
                {
                  "components": [
                    {
                      "internalType": "uint8",
                      "name": "day",
                      "type": "uint8"
                    },
                    {
                      "internalType": "uint8",
                      "name": "month",
                      "type": "uint8"
                    },
                    {
                      "internalType": "uint16",
                      "name": "year",
                      "type": "uint16"
                    },
                    {
                      "internalType": "uint8",
                      "name": "hour",
                      "type": "uint8"
                    },
                    {
                      "internalType": "uint8",
                      "name": "minute",
                      "type": "uint8"
                    }
                  ],
                  "internalType": "struct OwnerToCompany.Date",
                  "name": "creation",
                  "type": "tuple"
                }
              ],
              "internalType": "struct OwnerToCompany.CarPartDescription",
              "name": "description",
              "type": "tuple"
            }
          ],
          "internalType": "struct OwnerToCompany.CarPartInfo",
          "name": "carPart_info",
          "type": "tuple"
        },
        {
          "internalType": "uint128",
          "name": "price",
          "type": "uint128"
        }
      ],
      "name": "addSale",
      "outputs": [
        {
          "internalType": "bool",
          "name": "",
          "type": "bool"
        },
        {
          "internalType": "string",
          "name": "",
          "type": "string"
        },
        {
          "internalType": "int256",
          "name": "",
          "type": "int256"
        }
      ],
      "stateMutability": "payable",
      "type": "function"
    },
    {
      "inputs": [
        {
          "internalType": "string",
          "name": "_name",
          "type": "string"
        }
      ],
      "name": "changeName",
      "outputs": [],
      "stateMutability": "nonpayable",
      "type": "function"
    },
    {
      "inputs": [],
      "name": "getName",
      "outputs": [
        {
          "internalType": "string",
          "name": "",
          "type": "string"
        }
      ],
      "stateMutability": "view",
      "type": "function"
    },
    {
      "inputs": [
        {
          "internalType": "string",
          "name": "_name",
          "type": "string"
        },
        {
          "components": [
            {
              "internalType": "string",
              "name": "street",
              "type": "string"
            },
            {
              "internalType": "string",
              "name": "number",
              "type": "string"
            },
            {
              "internalType": "string",
              "name": "addr_details",
              "type": "string"
            },
            {
              "internalType": "string",
              "name": "zip_code",
              "type": "string"
            },
            {
              "internalType": "string",
              "name": "city",
              "type": "string"
            },
            {
              "internalType": "string",
              "name": "state",
              "type": "string"
            }
          ],
          "internalType": "struct OwnerToCompany.Address",
          "name": "_address",
          "type": "tuple"
        },
        {
          "internalType": "string",
          "name": "_id",
          "type": "string"
        }
      ],
      "name": "setCompanyInfo",
      "outputs": [],
      "stateMutability": "nonpayable",
      "type": "function"
    },
    {
      "inputs": [
        {
          "internalType": "uint8",
          "name": "day",
          "type": "uint8"
        },
        {
          "internalType": "uint8",
          "name": "month",
          "type": "uint8"
        },
        {
          "internalType": "uint16",
          "name": "year",
          "type": "uint16"
        },
        {
          "internalType": "uint8",
          "name": "hour",
          "type": "uint8"
        },
        {
          "internalType": "uint8",
          "name": "minute",
          "type": "uint8"
        }
      ],
      "name": "setDate",
      "outputs": [],
      "stateMutability": "nonpayable",
      "type": "function"
    },
    {
      "inputs": [
        {
          "internalType": "string",
          "name": "_name",
          "type": "string"
        },
        {
          "components": [
            {
              "internalType": "string",
              "name": "street",
              "type": "string"
            },
            {
              "internalType": "string",
              "name": "number",
              "type": "string"
            },
            {
              "internalType": "string",
              "name": "addr_details",
              "type": "string"
            },
            {
              "internalType": "string",
              "name": "zip_code",
              "type": "string"
            },
            {
              "internalType": "string",
              "name": "city",
              "type": "string"
            },
            {
              "internalType": "string",
              "name": "state",
              "type": "string"
            }
          ],
          "internalType": "struct OwnerToCompany.Address",
          "name": "_address",
          "type": "tuple"
        },
        {
          "internalType": "string",
          "name": "_id",
          "type": "string"
        }
      ],
      "name": "setOwnerInfo",
      "outputs": [],
      "stateMutability": "nonpayable",
      "type": "function"
    }
  ],
  "bytecode": "0x608060405260405180606001604052806040518060400160405280600681526020017f4e4f524d414c000000000000000000000000000000000000000000000000000081525081526020016040518060400160405280600581526020017f545241444500000000000000000000000000000000000000000000000000000081525081526020016040518060400160405280600481526020017f47494654000000000000000000000000000000000000000000000000000000008152508152506001906003620000d092919062000129565b506000600855348015620000e357600080fd5b5060405162001b2538038062001b2583398181016040528101906200010991906200043e565b80600090805190602001906200012192919062000183565b5050620004f4565b826003810192821562000170579160200282015b828111156200016f5782518290805190602001906200015e92919062000183565b50916020019190600101906200013d565b5b5090506200017f919062000214565b5090565b8280546200019190620004be565b90600052602060002090601f016020900481019282620001b5576000855562000201565b82601f10620001d057805160ff191683800117855562000201565b8280016001018555821562000201579182015b8281111562000200578251825591602001919060010190620001e3565b5b5090506200021091906200023c565b5090565b5b808211156200023857600081816200022e91906200025b565b5060010162000215565b5090565b5b80821115620002575760008160009055506001016200023d565b5090565b5080546200026990620004be565b6000825580601f106200027d57506200029e565b601f0160209004906000526020600020908101906200029d91906200023c565b5b50565b6000604051905090565b600080fd5b600080fd5b600080fd5b600080fd5b6000601f19601f8301169050919050565b7f4e487b7100000000000000000000000000000000000000000000000000000000600052604160045260246000fd5b6200030a82620002bf565b810181811067ffffffffffffffff821117156200032c576200032b620002d0565b5b80604052505050565b600062000341620002a1565b90506200034f8282620002ff565b919050565b600067ffffffffffffffff821115620003725762000371620002d0565b5b6200037d82620002bf565b9050602081019050919050565b60005b83811015620003aa5780820151818401526020810190506200038d565b83811115620003ba576000848401525b50505050565b6000620003d7620003d18462000354565b62000335565b905082815260208101848484011115620003f657620003f5620002ba565b5b620004038482856200038a565b509392505050565b600082601f830112620004235762000422620002b5565b5b815162000435848260208601620003c0565b91505092915050565b600060208284031215620004575762000456620002ab565b5b600082015167ffffffffffffffff811115620004785762000477620002b0565b5b62000486848285016200040b565b91505092915050565b7f4e487b7100000000000000000000000000000000000000000000000000000000600052602260045260246000fd5b60006002820490506001821680620004d757607f821691505b60208210811415620004ee57620004ed6200048f565b5b50919050565b61162180620005046000396000f3fe6080604052600436106100555760003560e01c806317d7de7c1461005a578063409dd70714610085578063517ca9f4146100ae5780635353a2d8146100e057806370c64351146101095780639747a20014610132575b600080fd5b34801561006657600080fd5b5061006f61015b565b60405161007c9190610c53565b60405180910390f35b34801561009157600080fd5b506100ac60048036038101906100a79190610f10565b6101ed565b005b6100c860048036038101906100c391906112b0565b6102f4565b6040516100d793929190611399565b60405180910390f35b3480156100ec57600080fd5b50610107600480360381019061010291906113d7565b6108b5565b005b34801561011557600080fd5b50610130600480360381019061012b9190611420565b6108cf565b005b34801561013e57600080fd5b5061015960048036038101906101549190610f10565b610983565b005b60606000805461016a906114ca565b80601f0160208091040260200160405190810160405280929190818152602001828054610196906114ca565b80156101e35780601f106101b8576101008083540402835291602001916101e3565b820191906000526020600020905b8154815290600101906020018083116101c657829003601f168201915b5050505050905090565b600060066000600854815260200190815260200160002090508181600701908051906020019061021e929190610a8a565b5083816000019080519060200190610237929190610a8a565b5082816001016000820151816000019080519060200190610259929190610a8a565b506020820151816001019080519060200190610276929190610a8a565b506040820151816002019080519060200190610293929190610a8a565b5060608201518160030190805190602001906102b0929190610a8a565b5060808201518160040190805190602001906102cd929190610a8a565b5060a08201518160050190805190602001906102ea929190610a8a565b5090505050505050565b600060606000836fffffffffffffffffffffffffffffffff1634146103a2578573ffffffffffffffffffffffffffffffffffffffff166108fc349081150290604051600060405180830381858888f19350505050158015610359573d6000803e3d6000fd5b5060007fffffffffffffffffffffffffffffffffffffffffffffffffffffffffffffffff6040518060600160405280603981526020016115b360399139909250925092506108aa565b60006004600060085481526020019081526020016000209050888160000190805190602001906103d3929190610a8a565b50878160010160008201518160000160006101000a81548160ff021916908360ff16021790555060208201518160000160016101000a81548160ff021916908360ff16021790555060408201518160000160026101000a81548161ffff021916908361ffff16021790555060608201518160000160046101000a81548160ff021916908360ff16021790555060808201518160000160056101000a81548160ff021916908360ff1602179055509050506005600060085481526020019081526020016000208160020160008201816000019080546104b0906114ca565b6104bb929190610b10565b50600182018160010160008201816000019080546104d8906114ca565b6104e3929190610b10565b5060018201816001019080546104f8906114ca565b610503929190610b10565b506002820181600201908054610518906114ca565b610523929190610b10565b506003820181600301908054610538906114ca565b610543929190610b10565b506004820181600401908054610558906114ca565b610563929190610b10565b506005820181600501908054610578906114ca565b610583929190610b10565b505050600782018160070190805461059a906114ca565b6105a5929190610b10565b5090505060066000600854815260200190815260200160002081600a0160008201816000019080546105d6906114ca565b6105e1929190610b10565b50600182018160010160008201816000019080546105fe906114ca565b610609929190610b10565b50600182018160010190805461061e906114ca565b610629929190610b10565b50600282018160020190805461063e906114ca565b610649929190610b10565b50600382018160030190805461065e906114ca565b610669929190610b10565b50600482018160040190805461067e906114ca565b610689929190610b10565b50600582018160050190805461069e906114ca565b6106a9929190610b10565b50505060078201816007019080546106c0906114ca565b6106cb929190610b10565b50905050858160120160008201518160000190805190602001906106f0929190610a8a565b50602082015181600101908051906020019061070d929190610a8a565b506040820151816002016000820151816000019080519060200190610733929190610a8a565b506020820151816001019080519060200190610750929190610a8a565b5060408201518160020160008201518160000160006101000a81548160ff021916908360ff16021790555060208201518160000160016101000a81548160ff021916908360ff16021790555060408201518160000160026101000a81548161ffff021916908361ffff16021790555060608201518160000160046101000a81548160ff021916908360ff16021790555060808201518160000160056101000a81548160ff021916908360ff16021790555050505050905050848160170160006101000a8154816fffffffffffffffffffffffffffffffff02191690836fffffffffffffffffffffffffffffffff1602179055506008600081548092919061085690611535565b919050555060018060085461086b919061157e565b6040518060400160405280600881526020017f537563636573732100000000000000000000000000000000000000000000000081525090935093509350505b955095509592505050565b80600090805190602001906108cb929190610a8a565b5050565b60006007600060085481526020019081526020016000209050858160000160006101000a81548160ff021916908360ff160217905550848160000160016101000a81548160ff021916908360ff160217905550838160000160026101000a81548161ffff021916908361ffff160217905550828160000160046101000a81548160ff021916908360ff160217905550818160000160056101000a81548160ff021916908360ff160217905550505050505050565b60006005600060085481526020019081526020016000209050818160070190805190602001906109b4929190610a8a565b50838160000190805190602001906109cd929190610a8a565b50828160010160008201518160000190805190602001906109ef929190610a8a565b506020820151816001019080519060200190610a0c929190610a8a565b506040820151816002019080519060200190610a29929190610a8a565b506060820151816003019080519060200190610a46929190610a8a565b506080820151816004019080519060200190610a63929190610a8a565b5060a0820151816005019080519060200190610a80929190610a8a565b5090505050505050565b828054610a96906114ca565b90600052602060002090601f016020900481019282610ab85760008555610aff565b82601f10610ad157805160ff1916838001178555610aff565b82800160010185558215610aff579182015b82811115610afe578251825591602001919060010190610ae3565b5b509050610b0c9190610b9d565b5090565b828054610b1c906114ca565b90600052602060002090601f016020900481019282610b3e5760008555610b8c565b82601f10610b4f5780548555610b8c565b82800160010185558215610b8c57600052602060002091601f016020900482015b82811115610b8b578254825591600101919060010190610b70565b5b509050610b999190610b9d565b5090565b5b80821115610bb6576000816000905550600101610b9e565b5090565b600081519050919050565b600082825260208201905092915050565b60005b83811015610bf4578082015181840152602081019050610bd9565b83811115610c03576000848401525b50505050565b6000601f19601f8301169050919050565b6000610c2582610bba565b610c2f8185610bc5565b9350610c3f818560208601610bd6565b610c4881610c09565b840191505092915050565b60006020820190508181036000830152610c6d8184610c1a565b905092915050565b6000604051905090565b600080fd5b600080fd5b600080fd5b600080fd5b7f4e487b7100000000000000000000000000000000000000000000000000000000600052604160045260246000fd5b610ccb82610c09565b810181811067ffffffffffffffff82111715610cea57610ce9610c93565b5b80604052505050565b6000610cfd610c75565b9050610d098282610cc2565b919050565b600067ffffffffffffffff821115610d2957610d28610c93565b5b610d3282610c09565b9050602081019050919050565b82818337600083830152505050565b6000610d61610d5c84610d0e565b610cf3565b905082815260208101848484011115610d7d57610d7c610c8e565b5b610d88848285610d3f565b509392505050565b600082601f830112610da557610da4610c89565b5b8135610db5848260208601610d4e565b91505092915050565b600080fd5b600080fd5b600060c08284031215610dde57610ddd610dbe565b5b610de860c0610cf3565b9050600082013567ffffffffffffffff811115610e0857610e07610dc3565b5b610e1484828501610d90565b600083015250602082013567ffffffffffffffff811115610e3857610e37610dc3565b5b610e4484828501610d90565b602083015250604082013567ffffffffffffffff811115610e6857610e67610dc3565b5b610e7484828501610d90565b604083015250606082013567ffffffffffffffff811115610e9857610e97610dc3565b5b610ea484828501610d90565b606083015250608082013567ffffffffffffffff811115610ec857610ec7610dc3565b5b610ed484828501610d90565b60808301525060a082013567ffffffffffffffff811115610ef857610ef7610dc3565b5b610f0484828501610d90565b60a08301525092915050565b600080600060608486031215610f2957610f28610c7f565b5b600084013567ffffffffffffffff811115610f4757610f46610c84565b5b610f5386828701610d90565b935050602084013567ffffffffffffffff811115610f7457610f73610c84565b5b610f8086828701610dc8565b925050604084013567ffffffffffffffff811115610fa157610fa0610c84565b5b610fad86828701610d90565b9150509250925092565b600060ff82169050919050565b610fcd81610fb7565b8114610fd857600080fd5b50565b600081359050610fea81610fc4565b92915050565b600061ffff82169050919050565b61100781610ff0565b811461101257600080fd5b50565b60008135905061102481610ffe565b92915050565b600060a082840312156110405761103f610dbe565b5b61104a60a0610cf3565b9050600061105a84828501610fdb565b600083015250602061106e84828501610fdb565b602083015250604061108284828501611015565b604083015250606061109684828501610fdb565b60608301525060806110aa84828501610fdb565b60808301525092915050565b600073ffffffffffffffffffffffffffffffffffffffff82169050919050565b60006110e1826110b6565b9050919050565b6110f1816110d6565b81146110fc57600080fd5b50565b60008135905061110e816110e8565b92915050565b600060e0828403121561112a57611129610dbe565b5b6111346060610cf3565b9050600082013567ffffffffffffffff81111561115457611153610dc3565b5b61116084828501610d90565b600083015250602082013567ffffffffffffffff81111561118457611183610dc3565b5b61119084828501610d90565b60208301525060406111a48482850161102a565b60408301525092915050565b6000606082840312156111c6576111c5610dbe565b5b6111d06060610cf3565b9050600082013567ffffffffffffffff8111156111f0576111ef610dc3565b5b6111fc84828501610d90565b600083015250602082013567ffffffffffffffff8111156112205761121f610dc3565b5b61122c84828501610d90565b602083015250604082013567ffffffffffffffff8111156112505761124f610dc3565b5b61125c84828501611114565b60408301525092915050565b60006fffffffffffffffffffffffffffffffff82169050919050565b61128d81611268565b811461129857600080fd5b50565b6000813590506112aa81611284565b92915050565b600080600080600061012086880312156112cd576112cc610c7f565b5b600086013567ffffffffffffffff8111156112eb576112ea610c84565b5b6112f788828901610d90565b95505060206113088882890161102a565b94505060c0611319888289016110ff565b93505060e086013567ffffffffffffffff81111561133a57611339610c84565b5b611346888289016111b0565b9250506101006113588882890161129b565b9150509295509295909350565b60008115159050919050565b61137a81611365565b82525050565b6000819050919050565b61139381611380565b82525050565b60006060820190506113ae6000830186611371565b81810360208301526113c08185610c1a565b90506113cf604083018461138a565b949350505050565b6000602082840312156113ed576113ec610c7f565b5b600082013567ffffffffffffffff81111561140b5761140a610c84565b5b61141784828501610d90565b91505092915050565b600080600080600060a0868803121561143c5761143b610c7f565b5b600061144a88828901610fdb565b955050602061145b88828901610fdb565b945050604061146c88828901611015565b935050606061147d88828901610fdb565b925050608061148e88828901610fdb565b9150509295509295909350565b7f4e487b7100000000000000000000000000000000000000000000000000000000600052602260045260246000fd5b600060028204905060018216806114e257607f821691505b602082108114156114f6576114f561149b565b5b50919050565b7f4e487b7100000000000000000000000000000000000000000000000000000000600052601160045260246000fd5b6000819050919050565b60006115408261152b565b91507fffffffffffffffffffffffffffffffffffffffffffffffffffffffffffffffff821415611573576115726114fc565b5b600182019050919050565b60006115898261152b565b91506115948361152b565b9250828210156115a7576115a66114fc565b5b82820390509291505056fe496e666f726d656420707269636520646f6573206e6f7420636f72726573706f6e6420746f2073656e7420696e20746865206d657373616765a2646970667358221220f019719ca825c44fd7d5b4c40d69482c8a7595d5ac14b2f1eb50814052da949f64736f6c63430008090033",
  "linkReferences": {},
  "deployedLinkReferences": {}
}